{
  "contractName": "CharityChain",
  "abi": [
    {
      "inputs": [],
      "stateMutability": "nonpayable",
      "type": "constructor"
    },
    {
      "anonymous": false,
      "inputs": [
        {
          "indexed": true,
          "internalType": "uint256",
          "name": "donationIndex",
          "type": "uint256"
        },
        {
          "indexed": false,
          "internalType": "uint256",
          "name": "amount",
          "type": "uint256"
        },
        {
          "indexed": false,
          "internalType": "uint256",
          "name": "date",
          "type": "uint256"
        },
        {
          "indexed": false,
          "internalType": "address",
          "name": "sender",
          "type": "address"
        }
      ],
      "name": "DonationMade",
      "type": "event"
    },
    {
      "inputs": [
        {
          "internalType": "uint256",
          "name": "",
          "type": "uint256"
        }
      ],
      "name": "donations",
      "outputs": [
        {
          "internalType": "uint256",
          "name": "amount",
          "type": "uint256"
        },
        {
          "internalType": "uint256",
          "name": "date",
          "type": "uint256"
        },
        {
          "internalType": "string",
          "name": "message",
          "type": "string"
        }
      ],
      "stateMutability": "view",
      "type": "function"
    },
    {
      "inputs": [],
      "name": "owner",
      "outputs": [
        {
          "internalType": "address",
          "name": "",
          "type": "address"
        }
      ],
      "stateMutability": "view",
      "type": "function"
    },
    {
      "inputs": [
        {
          "internalType": "uint256",
          "name": "_amount",
          "type": "uint256"
        },
        {
          "internalType": "string",
          "name": "_message",
          "type": "string"
        }
      ],
      "name": "makeDonation",
      "outputs": [],
      "stateMutability": "nonpayable",
      "type": "function"
    }
  ],
  "bytecode": "0x608060405234801561000f575f80fd5b503360015f6101000a81548173ffffffffffffffffffffffffffffffffffffffff021916908373ffffffffffffffffffffffffffffffffffffffff16021790555061081f8061005d5f395ff3fe608060405234801561000f575f80fd5b506004361061003f575f3560e01c80638da5cb5b14610043578063aec8d85914610061578063f8626af81461007d575b5f80fd5b61004b6100af565b604051610058919061023d565b60405180910390f35b61007b600480360381019061007691906103d6565b6100d4565b005b61009760048036038101906100929190610430565b610144565b6040516100a6939291906104e4565b60405180910390f35b60015f9054906101000a900473ffffffffffffffffffffffffffffffffffffffff1681565b5f604051806060016040528084815260200142815260200183815250908060018154018082558091505060019003905f5260205f2090600302015f909190919091505f820151815f015560208201518160010155604082015181600201908161013d919061071a565b5050505050565b5f8181548110610152575f80fd5b905f5260205f2090600302015f91509050805f01549080600101549080600201805461017d9061054d565b80601f01602080910402602001604051908101604052809291908181526020018280546101a99061054d565b80156101f45780601f106101cb576101008083540402835291602001916101f4565b820191905f5260205f20905b8154815290600101906020018083116101d757829003601f168201915b5050505050905083565b5f73ffffffffffffffffffffffffffffffffffffffff82169050919050565b5f610227826101fe565b9050919050565b6102378161021d565b82525050565b5f6020820190506102505f83018461022e565b92915050565b5f604051905090565b5f80fd5b5f80fd5b5f819050919050565b61027981610267565b8114610283575f80fd5b50565b5f8135905061029481610270565b92915050565b5f80fd5b5f80fd5b5f601f19601f8301169050919050565b7f4e487b71000000000000000000000000000000000000000000000000000000005f52604160045260245ffd5b6102e8826102a2565b810181811067ffffffffffffffff82111715610307576103066102b2565b5b80604052505050565b5f610319610256565b905061032582826102df565b919050565b5f67ffffffffffffffff821115610344576103436102b2565b5b61034d826102a2565b9050602081019050919050565b828183375f83830152505050565b5f61037a6103758461032a565b610310565b9050828152602081018484840111156103965761039561029e565b5b6103a184828561035a565b509392505050565b5f82601f8301126103bd576103bc61029a565b5b81356103cd848260208601610368565b91505092915050565b5f80604083850312156103ec576103eb61025f565b5b5f6103f985828601610286565b925050602083013567ffffffffffffffff81111561041a57610419610263565b5b610426858286016103a9565b9150509250929050565b5f602082840312156104455761044461025f565b5b5f61045284828501610286565b91505092915050565b61046481610267565b82525050565b5f81519050919050565b5f82825260208201905092915050565b5f5b838110156104a1578082015181840152602081019050610486565b5f8484015250505050565b5f6104b68261046a565b6104c08185610474565b93506104d0818560208601610484565b6104d9816102a2565b840191505092915050565b5f6060820190506104f75f83018661045b565b610504602083018561045b565b818103604083015261051681846104ac565b9050949350505050565b7f4e487b71000000000000000000000000000000000000000000000000000000005f52602260045260245ffd5b5f600282049050600182168061056457607f821691505b60208210810361057757610576610520565b5b50919050565b5f819050815f5260205f209050919050565b5f6020601f8301049050919050565b5f82821b905092915050565b5f600883026105d97fffffffffffffffffffffffffffffffffffffffffffffffffffffffffffffffff8261059e565b6105e3868361059e565b95508019841693508086168417925050509392505050565b5f819050919050565b5f61061e61061961061484610267565b6105fb565b610267565b9050919050565b5f819050919050565b61063783610604565b61064b61064382610625565b8484546105aa565b825550505050565b5f90565b61065f610653565b61066a81848461062e565b505050565b5b8181101561068d576106825f82610657565b600181019050610670565b5050565b601f8211156106d2576106a38161057d565b6106ac8461058f565b810160208510156106bb578190505b6106cf6106c78561058f565b83018261066f565b50505b505050565b5f82821c905092915050565b5f6106f25f19846008026106d7565b1980831691505092915050565b5f61070a83836106e3565b9150826002028217905092915050565b6107238261046a565b67ffffffffffffffff81111561073c5761073b6102b2565b5b610746825461054d565b610751828285610691565b5f60209050601f831160018114610782575f8415610770578287015190505b61077a85826106ff565b8655506107e1565b601f1984166107908661057d565b5f5b828110156107b757848901518255600182019150602085019450602081019050610792565b868310156107d457848901516107d0601f8916826106e3565b8355505b6001600288020188555050505b50505050505056fea2646970667358221220e44153c757506aa798e86bf024ef4e017a08c6ab464f1a449fcc49448a73e37564736f6c63430008150033",
  "immutableReferences": {},
  "source": "pragma solidity ^0.8.21;\ncontract CharityChain {\n\n    struct Donation {\n      uint amount; \n      uint date; \n      string message; \n    }\n    Donation[] public donations;\n    address public owner;\n\n    constructor() {\n        owner = msg.sender;\n    }\n    event DonationMade(uint indexed donationIndex, uint amount, uint date, address sender);\n\n    function makeDonation(uint _amount, string memory _message) public {\n        donations.push(Donation(_amount, block.timestamp, _message));\n        \n        \n    }\n  \n\n    }",
  "sourcePath": "/Users/erickchandra/Documents/code/DApp/smart_contract/contracts/Donating.sol",
  "compiler": {
    "name": "solc",
    "version": "0.8.21+commit.d9974bed.Emscripten.clang"
  },
  "schemaVersion": "3.4.16",
  "updatedAt": "2023-10-31T11:22:56.458Z",
  "devdoc": {
    "kind": "dev",
    "methods": {},
    "version": 1
  },
  "userdoc": {
    "kind": "user",
    "methods": {},
    "version": 1
  }
}