{
  "contractName": "Fundraiser",
  "abi": [
    {
      "inputs": [
        {
          "internalType": "string",
          "name": "_name",
          "type": "string"
        },
        {
          "internalType": "string",
          "name": "_image",
          "type": "string"
        },
        {
          "internalType": "string",
          "name": "_description",
          "type": "string"
        },
        {
          "internalType": "uint256",
          "name": "_goalAmount",
          "type": "uint256"
        },
        {
          "internalType": "address",
          "name": "_custodian",
          "type": "address"
        }
      ],
      "stateMutability": "nonpayable",
      "type": "constructor"
    },
    {
      "anonymous": false,
      "inputs": [
        {
          "indexed": true,
          "internalType": "address",
          "name": "donor",
          "type": "address"
        },
        {
          "indexed": false,
          "internalType": "uint256",
          "name": "value",
          "type": "uint256"
        }
      ],
      "name": "DonationReceived",
      "type": "event"
    },
    {
      "anonymous": false,
      "inputs": [
        {
          "indexed": true,
          "internalType": "address",
          "name": "previousOwner",
          "type": "address"
        },
        {
          "indexed": true,
          "internalType": "address",
          "name": "newOwner",
          "type": "address"
        }
      ],
      "name": "OwnershipTransferred",
      "type": "event"
    },
    {
      "anonymous": false,
      "inputs": [
        {
          "indexed": true,
          "internalType": "uint256",
          "name": "requestId",
          "type": "uint256"
        },
        {
          "indexed": true,
          "internalType": "address",
          "name": "beneficiary",
          "type": "address"
        }
      ],
      "name": "RequestApproved",
      "type": "event"
    },
    {
      "anonymous": false,
      "inputs": [
        {
          "indexed": true,
          "internalType": "uint256",
          "name": "requestId",
          "type": "uint256"
        },
        {
          "indexed": true,
          "internalType": "address",
          "name": "beneficiary",
          "type": "address"
        }
      ],
      "name": "RequestCreated",
      "type": "event"
    },
    {
      "anonymous": false,
      "inputs": [
        {
          "indexed": true,
          "internalType": "uint256",
          "name": "requestId",
          "type": "uint256"
        },
        {
          "indexed": true,
          "internalType": "address",
          "name": "beneficiary",
          "type": "address"
        }
      ],
      "name": "RequestRejected",
      "type": "event"
    },
    {
      "inputs": [],
      "name": "REQUEST_AMOUNT",
      "outputs": [
        {
          "internalType": "uint256",
          "name": "",
          "type": "uint256"
        }
      ],
      "stateMutability": "view",
      "type": "function"
    },
    {
      "inputs": [
        {
          "internalType": "address",
          "name": "",
          "type": "address"
        },
        {
          "internalType": "uint256",
          "name": "",
          "type": "uint256"
        }
      ],
      "name": "_donations",
      "outputs": [
        {
          "internalType": "uint256",
          "name": "value",
          "type": "uint256"
        },
        {
          "internalType": "uint256",
          "name": "date",
          "type": "uint256"
        }
      ],
      "stateMutability": "view",
      "type": "function"
    },
    {
      "inputs": [
        {
          "internalType": "uint256",
          "name": "",
          "type": "uint256"
        }
      ],
      "name": "_requests",
      "outputs": [
        {
          "internalType": "uint256",
          "name": "amount",
          "type": "uint256"
        },
        {
          "internalType": "address payable",
          "name": "beneficiary",
          "type": "address"
        },
        {
          "internalType": "enum Fundraiser.RequestStatus",
          "name": "status",
          "type": "uint8"
        }
      ],
      "stateMutability": "view",
      "type": "function"
    },
    {
      "inputs": [],
      "name": "description",
      "outputs": [
        {
          "internalType": "string",
          "name": "",
          "type": "string"
        }
      ],
      "stateMutability": "view",
      "type": "function"
    },
    {
      "inputs": [],
      "name": "donationsCount",
      "outputs": [
        {
          "internalType": "uint256",
          "name": "",
          "type": "uint256"
        }
      ],
      "stateMutability": "view",
      "type": "function"
    },
    {
      "inputs": [],
      "name": "goalAmount",
      "outputs": [
        {
          "internalType": "uint256",
          "name": "",
          "type": "uint256"
        }
      ],
      "stateMutability": "view",
      "type": "function"
    },
    {
      "inputs": [],
      "name": "image",
      "outputs": [
        {
          "internalType": "string",
          "name": "",
          "type": "string"
        }
      ],
      "stateMutability": "view",
      "type": "function"
    },
    {
      "inputs": [],
      "name": "name",
      "outputs": [
        {
          "internalType": "string",
          "name": "",
          "type": "string"
        }
      ],
      "stateMutability": "view",
      "type": "function"
    },
    {
      "inputs": [],
      "name": "owner",
      "outputs": [
        {
          "internalType": "address",
          "name": "",
          "type": "address"
        }
      ],
      "stateMutability": "view",
      "type": "function"
    },
    {
      "inputs": [],
      "name": "renounceOwnership",
      "outputs": [],
      "stateMutability": "nonpayable",
      "type": "function"
    },
    {
      "inputs": [],
      "name": "totalDonations",
      "outputs": [
        {
          "internalType": "uint256",
          "name": "",
          "type": "uint256"
        }
      ],
      "stateMutability": "view",
      "type": "function"
    },
    {
      "inputs": [
        {
          "internalType": "address",
          "name": "newOwner",
          "type": "address"
        }
      ],
      "name": "transferOwnership",
      "outputs": [],
      "stateMutability": "nonpayable",
      "type": "function"
    },
    {
      "inputs": [],
      "name": "myDonationsCount",
      "outputs": [
        {
          "internalType": "uint256",
          "name": "",
          "type": "uint256"
        }
      ],
      "stateMutability": "view",
      "type": "function"
    },
    {
      "inputs": [],
      "name": "donate",
      "outputs": [],
      "stateMutability": "payable",
      "type": "function"
    },
    {
      "inputs": [],
      "name": "myDonations",
      "outputs": [
        {
          "internalType": "uint256[]",
          "name": "values",
          "type": "uint256[]"
        },
        {
          "internalType": "uint256[]",
          "name": "dates",
          "type": "uint256[]"
        }
      ],
      "stateMutability": "view",
      "type": "function"
    },
    {
      "inputs": [
        {
          "internalType": "address payable",
          "name": "_beneficiary",
          "type": "address"
        }
      ],
      "name": "createRequest",
      "outputs": [],
      "stateMutability": "nonpayable",
      "type": "function"
    },
    {
      "inputs": [
        {
          "internalType": "uint256",
          "name": "requestId",
          "type": "uint256"
        }
      ],
      "name": "approveRequest",
      "outputs": [],
      "stateMutability": "nonpayable",
      "type": "function"
    },
    {
      "inputs": [
        {
          "internalType": "uint256",
          "name": "requestId",
          "type": "uint256"
        }
      ],
      "name": "rejectRequest",
      "outputs": [],
      "stateMutability": "nonpayable",
      "type": "function"
    }
  ],
  "bytecode": "0x60806040523480156200001157600080fd5b506040516200211a3803806200211a8339818101604052810190620000379190620002e1565b620000576200004b620000c560201b60201c565b620000cd60201b60201c565b84600390805190602001906200006f92919062000191565b5083600490805190602001906200008892919062000191565b508260059080519060200190620000a192919062000191565b5081600681905550620000ba81620000cd60201b60201c565b505050505062000551565b600033905090565b60008060009054906101000a900473ffffffffffffffffffffffffffffffffffffffff169050816000806101000a81548173ffffffffffffffffffffffffffffffffffffffff021916908373ffffffffffffffffffffffffffffffffffffffff1602179055508173ffffffffffffffffffffffffffffffffffffffff168173ffffffffffffffffffffffffffffffffffffffff167f8be0079c531659141344cd1fd0a4f28419497f9722a3daafe3b4186f6b6457e060405160405180910390a35050565b8280546200019f9062000489565b90600052602060002090601f016020900481019282620001c357600085556200020f565b82601f10620001de57805160ff19168380011785556200020f565b828001600101855582156200020f579182015b828111156200020e578251825591602001919060010190620001f1565b5b5090506200021e919062000222565b5090565b5b808211156200023d57600081600090555060010162000223565b5090565b6000620002586200025284620003e2565b620003ae565b9050828152602081018484840111156200027157600080fd5b6200027e84828562000453565b509392505050565b60008151905062000297816200051d565b92915050565b600082601f830112620002af57600080fd5b8151620002c184826020860162000241565b91505092915050565b600081519050620002db8162000537565b92915050565b600080600080600060a08688031215620002fa57600080fd5b600086015167ffffffffffffffff8111156200031557600080fd5b62000323888289016200029d565b955050602086015167ffffffffffffffff8111156200034157600080fd5b6200034f888289016200029d565b945050604086015167ffffffffffffffff8111156200036d57600080fd5b6200037b888289016200029d565b93505060606200038e88828901620002ca565b9250506080620003a18882890162000286565b9150509295509295909350565b6000604051905081810181811067ffffffffffffffff82111715620003d857620003d7620004ee565b5b8060405250919050565b600067ffffffffffffffff8211156200040057620003ff620004ee565b5b601f19601f8301169050602081019050919050565b6000620004228262000429565b9050919050565b600073ffffffffffffffffffffffffffffffffffffffff82169050919050565b6000819050919050565b60005b838110156200047357808201518184015260208101905062000456565b8381111562000483576000848401525b50505050565b60006002820490506001821680620004a257607f821691505b60208210811415620004b957620004b8620004bf565b5b50919050565b7f4e487b7100000000000000000000000000000000000000000000000000000000600052602260045260246000fd5b7f4e487b7100000000000000000000000000000000000000000000000000000000600052604160045260246000fd5b620005288162000415565b81146200053457600080fd5b50565b620005428162000449565b81146200054e57600080fd5b50565b611bb980620005616000396000f3fe6080604052600436106101095760003560e01c80637284e41611610095578063dc0661be11610064578063dc0661be14610338578063de2ed89314610376578063ed88c68e146103a1578063f2fde38b146103ab578063f3ccaac0146103d457610109565b80637284e4161461027a5780638da5cb5b146102a5578063bff60c0f146102d0578063d7d1bbdb1461030f57610109565b80631a57f7b4116100dc5780631a57f7b4146101b85780631f522595146101e45780632636b9451461020f5780632d7788db1461023a578063715018a61461026357610109565b80630180b97c1461010e57806306fdde031461013957806314ee93a21461016457806316d26e3a1461018d575b600080fd5b34801561011a57600080fd5b506101236103ff565b6040516101309190611811565b60405180910390f35b34801561014557600080fd5b5061014e610449565b60405161015b919061172f565b60405180910390f35b34801561017057600080fd5b5061018b600480360381019061018691906113af565b6104d7565b005b34801561019957600080fd5b506101a26106c2565b6040516101af9190611811565b60405180910390f35b3480156101c457600080fd5b506101cd6106ce565b6040516101db9291906116f8565b60405180910390f35b3480156101f057600080fd5b506101f9610901565b6040516102069190611811565b60405180910390f35b34801561021b57600080fd5b50610224610907565b6040516102319190611811565b60405180910390f35b34801561024657600080fd5b50610261600480360381019061025c9190611414565b61090d565b005b34801561026f57600080fd5b50610278610b2b565b005b34801561028657600080fd5b5061028f610b3f565b60405161029c919061172f565b60405180910390f35b3480156102b157600080fd5b506102ba610bcd565b6040516102c791906116dd565b60405180910390f35b3480156102dc57600080fd5b506102f760048036038101906102f29190611414565b610bf6565b6040516103069392919061182c565b60405180910390f35b34801561031b57600080fd5b5061033660048036038101906103319190611414565b610c5d565b005b34801561034457600080fd5b5061035f600480360381019061035a91906113d8565b610f5c565b60405161036d929190611863565b60405180910390f35b34801561038257600080fd5b5061038b610f9d565b6040516103989190611811565b60405180910390f35b6103a9610fa3565b005b3480156103b757600080fd5b506103d260048036038101906103cd9190611386565b6110bf565b005b3480156103e057600080fd5b506103e9611143565b6040516103f6919061172f565b60405180910390f35b6000600160003373ffffffffffffffffffffffffffffffffffffffff1673ffffffffffffffffffffffffffffffffffffffff16815260200190815260200160002080549050905090565b6003805461045690611a11565b80601f016020809104026020016040519081016040528092919081815260200182805461048290611a11565b80156104cf5780601f106104a4576101008083540402835291602001916104cf565b820191906000526020600020905b8154815290600101906020018083116104b257829003601f168201915b505050505081565b670de0b6b3a76400006007541015610524576040517f08c379a000000000000000000000000000000000000000000000000000000000815260040161051b906117b1565b60405180910390fd5b60026040518060600160405280670de0b6b3a764000081526020018373ffffffffffffffffffffffffffffffffffffffff16815260200160006002811115610595577f4e487b7100000000000000000000000000000000000000000000000000000000600052602160045260246000fd5b81525090806001815401808255809150506001900390600052602060002090600202016000909190919091506000820151816000015560208201518160010160006101000a81548173ffffffffffffffffffffffffffffffffffffffff021916908373ffffffffffffffffffffffffffffffffffffffff16021790555060408201518160010160146101000a81548160ff02191690836002811115610663577f4e487b7100000000000000000000000000000000000000000000000000000000600052602160045260246000fd5b021790555050508073ffffffffffffffffffffffffffffffffffffffff1660016002805490506106939190611937565b7f233bb55fd57b21b8a3d15c9ad8fbbab435fe4cf2865cc654f6a57d9d4d8cda5460405160405180910390a350565b670de0b6b3a764000081565b60608060006106db6103ff565b90508067ffffffffffffffff81111561071d577f4e487b7100000000000000000000000000000000000000000000000000000000600052604160045260246000fd5b60405190808252806020026020018201604052801561074b5781602001602082028036833780820191505090505b5092508067ffffffffffffffff81111561078e577f4e487b7100000000000000000000000000000000000000000000000000000000600052604160045260246000fd5b6040519080825280602002602001820160405280156107bc5781602001602082028036833780820191505090505b50915060005b818110156108fb576000600160003373ffffffffffffffffffffffffffffffffffffffff1673ffffffffffffffffffffffffffffffffffffffff1681526020019081526020016000208281548110610843577f4e487b7100000000000000000000000000000000000000000000000000000000600052603260045260246000fd5b906000526020600020906002020190508060000154858381518110610891577f4e487b7100000000000000000000000000000000000000000000000000000000600052603260045260246000fd5b60200260200101818152505080600101548483815181106108db577f4e487b7100000000000000000000000000000000000000000000000000000000600052603260045260246000fd5b6020026020010181815250505080806108f390611a43565b9150506107c2565b50509091565b60085481565b60065481565b6109156111d1565b600280549050811061095c576040517f08c379a0000000000000000000000000000000000000000000000000000000008152600401610953906117f1565b60405180910390fd5b600060028281548110610998577f4e487b7100000000000000000000000000000000000000000000000000000000600052603260045260246000fd5b90600052602060002090600202019050600060028111156109e2577f4e487b7100000000000000000000000000000000000000000000000000000000600052602160045260246000fd5b8160010160149054906101000a900460ff166002811115610a2c577f4e487b7100000000000000000000000000000000000000000000000000000000600052602160045260246000fd5b14610a6c576040517f08c379a0000000000000000000000000000000000000000000000000000000008152600401610a6390611771565b60405180910390fd5b60028160010160146101000a81548160ff02191690836002811115610aba577f4e487b7100000000000000000000000000000000000000000000000000000000600052602160045260246000fd5b02179055508060010160009054906101000a900473ffffffffffffffffffffffffffffffffffffffff1673ffffffffffffffffffffffffffffffffffffffff16827f490ad67e4c8b3b9c1d11dfcd7f02e155190b8f6feff3a9d9e9df3721f0f74e5760405160405180910390a35050565b610b336111d1565b610b3d600061124f565b565b60058054610b4c90611a11565b80601f0160208091040260200160405190810160405280929190818152602001828054610b7890611a11565b8015610bc55780601f10610b9a57610100808354040283529160200191610bc5565b820191906000526020600020905b815481529060010190602001808311610ba857829003601f168201915b505050505081565b60008060009054906101000a900473ffffffffffffffffffffffffffffffffffffffff16905090565b60028181548110610c0657600080fd5b90600052602060002090600202016000915090508060000154908060010160009054906101000a900473ffffffffffffffffffffffffffffffffffffffff16908060010160149054906101000a900460ff16905083565b610c656111d1565b6002805490508110610cac576040517f08c379a0000000000000000000000000000000000000000000000000000000008152600401610ca3906117f1565b60405180910390fd5b600060028281548110610ce8577f4e487b7100000000000000000000000000000000000000000000000000000000600052603260045260246000fd5b9060005260206000209060020201905060006002811115610d32577f4e487b7100000000000000000000000000000000000000000000000000000000600052602160045260246000fd5b8160010160149054906101000a900460ff166002811115610d7c577f4e487b7100000000000000000000000000000000000000000000000000000000600052602160045260246000fd5b14610dbc576040517f08c379a0000000000000000000000000000000000000000000000000000000008152600401610db390611771565b60405180910390fd5b670de0b6b3a7640000471015610e07576040517f08c379a0000000000000000000000000000000000000000000000000000000008152600401610dfe906117d1565b60405180910390fd5b8060010160009054906101000a900473ffffffffffffffffffffffffffffffffffffffff1673ffffffffffffffffffffffffffffffffffffffff166108fc670de0b6b3a76400009081150290604051600060405180830381858888f19350505050158015610e79573d6000803e3d6000fd5b5060018160010160146101000a81548160ff02191690836002811115610ec8577f4e487b7100000000000000000000000000000000000000000000000000000000600052602160045260246000fd5b0217905550610eea670de0b6b3a764000060075461131390919063ffffffff16565b6007819055508060010160009054906101000a900473ffffffffffffffffffffffffffffffffffffffff1673ffffffffffffffffffffffffffffffffffffffff16827ff3dc904660a0ea05aba8dfa1e21fbc4fb2914be2a3029da7b0fdd3e5eee20ddb60405160405180910390a35050565b60016020528160005260406000208181548110610f7857600080fd5b9060005260206000209060020201600091509150508060000154908060010154905082565b60075481565b60006040518060400160405280348152602001428152509050600160003373ffffffffffffffffffffffffffffffffffffffff1673ffffffffffffffffffffffffffffffffffffffff168152602001908152602001600020819080600181540180825580915050600190039060005260206000209060020201600090919091909150600082015181600001556020820151816001015550506110503460075461132990919063ffffffff16565b6007819055506008600081548092919061106990611a43565b91905055503373ffffffffffffffffffffffffffffffffffffffff167f264f630d9efa0d07053a31163641d9fcc0adafc9d9e76f1c37c2ce3a558d2c52346040516110b49190611811565b60405180910390a250565b6110c76111d1565b600073ffffffffffffffffffffffffffffffffffffffff168173ffffffffffffffffffffffffffffffffffffffff161415611137576040517f08c379a000000000000000000000000000000000000000000000000000000000815260040161112e90611751565b60405180910390fd5b6111408161124f565b50565b6004805461115090611a11565b80601f016020809104026020016040519081016040528092919081815260200182805461117c90611a11565b80156111c95780601f1061119e576101008083540402835291602001916111c9565b820191906000526020600020905b8154815290600101906020018083116111ac57829003601f168201915b505050505081565b6111d961133f565b73ffffffffffffffffffffffffffffffffffffffff166111f7610bcd565b73ffffffffffffffffffffffffffffffffffffffff161461124d576040517f08c379a000000000000000000000000000000000000000000000000000000000815260040161124490611791565b60405180910390fd5b565b60008060009054906101000a900473ffffffffffffffffffffffffffffffffffffffff169050816000806101000a81548173ffffffffffffffffffffffffffffffffffffffff021916908373ffffffffffffffffffffffffffffffffffffffff1602179055508173ffffffffffffffffffffffffffffffffffffffff168173ffffffffffffffffffffffffffffffffffffffff167f8be0079c531659141344cd1fd0a4f28419497f9722a3daafe3b4186f6b6457e060405160405180910390a35050565b600081836113219190611937565b905092915050565b6000818361133791906118e1565b905092915050565b600033905090565b60008135905061135681611b3e565b92915050565b60008135905061136b81611b55565b92915050565b60008135905061138081611b6c565b92915050565b60006020828403121561139857600080fd5b60006113a684828501611347565b91505092915050565b6000602082840312156113c157600080fd5b60006113cf8482850161135c565b91505092915050565b600080604083850312156113eb57600080fd5b60006113f985828601611347565b925050602061140a85828601611371565b9150509250929050565b60006020828403121561142657600080fd5b600061143484828501611371565b91505092915050565b600061144983836116bf565b60208301905092915050565b61145e8161197d565b82525050565b61146d8161196b565b82525050565b600061147e8261189c565b61148881856118bf565b93506114938361188c565b8060005b838110156114c45781516114ab888261143d565b97506114b6836118b2565b925050600181019050611497565b5085935050505092915050565b6114da816119cc565b82525050565b60006114eb826118a7565b6114f581856118d0565b93506115058185602086016119de565b61150e81611b19565b840191505092915050565b60006115266026836118d0565b91507f4f776e61626c653a206e6577206f776e657220697320746865207a65726f206160008301527f64647265737300000000000000000000000000000000000000000000000000006020830152604082019050919050565b600061158c6016836118d0565b91507f52657175657374206973206e6f742070656e64696e67000000000000000000006000830152602082019050919050565b60006115cc6020836118d0565b91507f4f776e61626c653a2063616c6c6572206973206e6f7420746865206f776e65726000830152602082019050919050565b600061160c601e836118d0565b91507f496e73756666696369656e742066756e647320666f72207265717565737400006000830152602082019050919050565b600061164c601d836118d0565b91507f496e73756666696369656e7420636f6e74726163742062616c616e63650000006000830152602082019050919050565b600061168c6012836118d0565b91507f496e76616c6964207265717565737420494400000000000000000000000000006000830152602082019050919050565b6116c8816119c2565b82525050565b6116d7816119c2565b82525050565b60006020820190506116f26000830184611464565b92915050565b600060408201905081810360008301526117128185611473565b905081810360208301526117268184611473565b90509392505050565b6000602082019050818103600083015261174981846114e0565b905092915050565b6000602082019050818103600083015261176a81611519565b9050919050565b6000602082019050818103600083015261178a8161157f565b9050919050565b600060208201905081810360008301526117aa816115bf565b9050919050565b600060208201905081810360008301526117ca816115ff565b9050919050565b600060208201905081810360008301526117ea8161163f565b9050919050565b6000602082019050818103600083015261180a8161167f565b9050919050565b600060208201905061182660008301846116ce565b92915050565b600060608201905061184160008301866116ce565b61184e6020830185611455565b61185b60408301846114d1565b949350505050565b600060408201905061187860008301856116ce565b61188560208301846116ce565b9392505050565b6000819050602082019050919050565b600081519050919050565b600081519050919050565b6000602082019050919050565b600082825260208201905092915050565b600082825260208201905092915050565b60006118ec826119c2565b91506118f7836119c2565b9250827fffffffffffffffffffffffffffffffffffffffffffffffffffffffffffffffff0382111561192c5761192b611a8c565b5b828201905092915050565b6000611942826119c2565b915061194d836119c2565b9250828210156119605761195f611a8c565b5b828203905092915050565b6000611976826119a2565b9050919050565b6000611988826119a2565b9050919050565b600081905061199d82611b2a565b919050565b600073ffffffffffffffffffffffffffffffffffffffff82169050919050565b6000819050919050565b60006119d78261198f565b9050919050565b60005b838110156119fc5780820151818401526020810190506119e1565b83811115611a0b576000848401525b50505050565b60006002820490506001821680611a2957607f821691505b60208210811415611a3d57611a3c611aea565b5b50919050565b6000611a4e826119c2565b91507fffffffffffffffffffffffffffffffffffffffffffffffffffffffffffffffff821415611a8157611a80611a8c565b5b600182019050919050565b7f4e487b7100000000000000000000000000000000000000000000000000000000600052601160045260246000fd5b7f4e487b7100000000000000000000000000000000000000000000000000000000600052602160045260246000fd5b7f4e487b7100000000000000000000000000000000000000000000000000000000600052602260045260246000fd5b6000601f19601f8301169050919050565b60038110611b3b57611b3a611abb565b5b50565b611b478161196b565b8114611b5257600080fd5b50565b611b5e8161197d565b8114611b6957600080fd5b50565b611b75816119c2565b8114611b8057600080fd5b5056fea26469706673582212209ec4ae2c61f5bcd334f2aae139b8896a7e0e01e66153f2e3aae5b437354f9e4a64736f6c63430008000033",
  "immutableReferences": {},
  "source": "// SPDX-License-Identifier: MIT\npragma solidity ^0.8.0;\n\nimport \"@openzeppelin/contracts/access/Ownable.sol\";\nimport \"@openzeppelin/contracts/utils/math/SafeMath.sol\";\n\ncontract Fundraiser is Ownable {\n    using SafeMath for uint256;\n\n    struct Donation {\n        uint256 value;\n        uint256 date;\n    }\n\n    struct FundsRequest {\n        uint256 amount;\n        address payable beneficiary;\n        RequestStatus status;\n    }\n\n    enum RequestStatus {\n        Pending,\n        Approved,\n        Rejected\n    }\n\n    mapping(address => Donation[]) public _donations;\n    FundsRequest[] public _requests;\n\n    event DonationReceived(address indexed donor, uint256 value);\n    event RequestCreated(\n        uint256 indexed requestId,\n        address indexed beneficiary\n    );\n    event RequestApproved(\n        uint256 indexed requestId,\n        address indexed beneficiary\n    );\n    event RequestRejected(\n        uint256 indexed requestId,\n        address indexed beneficiary\n    );\n\n    string public name;\n    string public image;\n    string public description;\n    uint256 public goalAmount;\n    uint256 public totalDonations;\n    uint256 public donationsCount;\n    uint256 public constant REQUEST_AMOUNT = 1 ether; // Hardcoded request amount\n\n    constructor(\n        string memory _name,\n        string memory _image,\n        string memory _description,\n        uint256 _goalAmount,\n        address _custodian\n    ) public {\n        name = _name;\n        image = _image;\n        description = _description;\n        goalAmount = _goalAmount;\n        _transferOwnership(_custodian);\n    }\n\n    function myDonationsCount() public view returns (uint256) {\n        return _donations[msg.sender].length;\n    }\n\n    function donate() public payable {\n        Donation memory donation = Donation({\n            value: msg.value,\n            date: block.timestamp\n        });\n        _donations[msg.sender].push(donation);\n        totalDonations = totalDonations.add(msg.value);\n        donationsCount++;\n\n        emit DonationReceived(msg.sender, msg.value);\n    }\n\n    function myDonations()\n        public\n        view\n        returns (uint256[] memory values, uint256[] memory dates)\n    {\n        uint256 count = myDonationsCount();\n        values = new uint256[](count);\n        dates = new uint256[](count);\n        for (uint256 i = 0; i < count; i++) {\n            Donation storage donation = _donations[msg.sender][i];\n            values[i] = donation.value;\n            dates[i] = donation.date;\n        }\n    }\n\n    function createRequest(address payable _beneficiary) public {\n        require(\n            totalDonations >= REQUEST_AMOUNT,\n            \"Insufficient funds for request\"\n        );\n\n        _requests.push(\n            FundsRequest({\n                amount: REQUEST_AMOUNT,\n                beneficiary: _beneficiary,\n                status: RequestStatus.Pending\n            })\n        );\n\n        emit RequestCreated(_requests.length - 1, _beneficiary);\n    }\n\n    function approveRequest(uint256 requestId) public onlyOwner {\n        require(requestId < _requests.length, \"Invalid request ID\");\n        FundsRequest storage request = _requests[requestId];\n        require(\n            request.status == RequestStatus.Pending,\n            \"Request is not pending\"\n        );\n        require(\n            address(this).balance >= REQUEST_AMOUNT,\n            \"Insufficient contract balance\"\n        );\n\n        request.beneficiary.transfer(REQUEST_AMOUNT);\n        request.status = RequestStatus.Approved;\n        totalDonations = totalDonations.sub(REQUEST_AMOUNT);\n\n        emit RequestApproved(requestId, request.beneficiary);\n    }\n\n    function rejectRequest(uint256 requestId) public onlyOwner {\n        require(requestId < _requests.length, \"Invalid request ID\");\n        FundsRequest storage request = _requests[requestId];\n        require(\n            request.status == RequestStatus.Pending,\n            \"Request is not pending\"\n        );\n\n        request.status = RequestStatus.Rejected;\n\n        emit RequestRejected(requestId, request.beneficiary);\n    }\n}\n",
  "sourcePath": "/Users/erickchandra/Documents/code/DApp/contracts/Fundraiser.sol",
  "compiler": {
    "name": "solc",
    "version": "0.8.0+commit.c7dfd78e.Emscripten.clang"
  },
  "schemaVersion": "3.4.16",
  "updatedAt": "2023-11-25T09:04:34.555Z",
  "devdoc": {
    "kind": "dev",
    "methods": {
      "owner()": {
        "details": "Returns the address of the current owner."
      },
      "renounceOwnership()": {
        "details": "Leaves the contract without owner. It will not be possible to call `onlyOwner` functions anymore. Can only be called by the current owner. NOTE: Renouncing ownership will leave the contract without an owner, thereby removing any functionality that is only available to the owner."
      },
      "transferOwnership(address)": {
        "details": "Transfers ownership of the contract to a new account (`newOwner`). Can only be called by the current owner."
      }
    },
    "version": 1
  },
  "userdoc": {
    "kind": "user",
    "methods": {},
    "version": 1
  }
}