{
  "contractName": "FundraiserFactory",
  "abi": [
    {
      "anonymous": false,
      "inputs": [
        {
          "indexed": true,
          "internalType": "contract Fundraiser",
          "name": "fundraiser",
          "type": "address"
        },
        {
          "indexed": true,
          "internalType": "address",
          "name": "owner",
          "type": "address"
        }
      ],
      "name": "FundraiserCreated",
      "type": "event"
    },
    {
      "inputs": [
        {
          "internalType": "uint256",
          "name": "",
          "type": "uint256"
        }
      ],
      "name": "_fundraisers",
      "outputs": [
        {
          "internalType": "contract Fundraiser",
          "name": "",
          "type": "address"
        }
      ],
      "stateMutability": "view",
      "type": "function",
      "constant": true
    },
    {
      "inputs": [
        {
          "internalType": "string",
          "name": "name",
          "type": "string"
        },
        {
          "internalType": "string",
          "name": "image",
          "type": "string"
        },
        {
          "internalType": "string",
          "name": "description",
          "type": "string"
        },
        {
          "internalType": "uint256",
          "name": "goalAmount",
          "type": "uint256"
        }
      ],
      "name": "createFundraiser",
      "outputs": [],
      "stateMutability": "nonpayable",
      "type": "function"
    },
    {
      "inputs": [],
      "name": "fundraisersCount",
      "outputs": [
        {
          "internalType": "uint256",
          "name": "",
          "type": "uint256"
        }
      ],
      "stateMutability": "view",
      "type": "function",
      "constant": true
    },
    {
      "inputs": [
        {
          "internalType": "uint256",
          "name": "limit",
          "type": "uint256"
        },
        {
          "internalType": "uint256",
          "name": "offset",
          "type": "uint256"
        }
      ],
      "name": "fundraisers",
      "outputs": [
        {
          "internalType": "contract Fundraiser[]",
          "name": "coll",
          "type": "address[]"
        }
      ],
      "stateMutability": "view",
      "type": "function",
      "constant": true
    }
  ],
  "bytecode": "0x608060405234801561001057600080fd5b50612c90806100206000396000f3fe60806040523480156200001157600080fd5b5060043610620000525760003560e01c8063598aceaa1462000057578063704914f814620000775780639d3b435514620000ad578063a13af7bd14620000cf575b600080fd5b6200007560048036038101906200006f919062000509565b62000105565b005b6200009560048036038101906200008f9190620005ec565b6200020e565b604051620000a4919062000778565b60405180910390f35b620000b762000426565b604051620000c691906200084d565b60405180910390f35b620000ed6004803603810190620000e79190620005c0565b62000432565b604051620000fc91906200079c565b60405180910390f35b600084848484336040516200011a9062000472565b6200012a959493929190620007b9565b604051809103906000f08015801562000147573d6000803e3d6000fd5b5090506000819080600181540180825580915050600190039060005260206000200160009091909190916101000a81548173ffffffffffffffffffffffffffffffffffffffff021916908373ffffffffffffffffffffffffffffffffffffffff1602179055503373ffffffffffffffffffffffffffffffffffffffff168173ffffffffffffffffffffffffffffffffffffffff167fa2398daac0c8053a1e3c0280916c2ec6bc884f0959c27e639a4db829b7eabfb160405160405180910390a35050505050565b60606200021a62000426565b8211156200025f576040517f08c379a000000000000000000000000000000000000000000000000000000000815260040162000256906200082b565b60405180910390fd5b6000826200026c62000426565b62000278919062000983565b90508381106200028957836200028b565b805b9050603281106200029e576032620002a0565b805b90508067ffffffffffffffff811115620002e3577f4e487b7100000000000000000000000000000000000000000000000000000000600052604160045260246000fd5b604051908082528060200260200182016040528015620003125781602001602082028036833780820191505090505b50915060005b818110156200041e576000818562000331919062000926565b8154811062000369577f4e487b7100000000000000000000000000000000000000000000000000000000600052603260045260246000fd5b9060005260206000200160009054906101000a900473ffffffffffffffffffffffffffffffffffffffff16838281518110620003ce577f4e487b7100000000000000000000000000000000000000000000000000000000600052603260045260246000fd5b602002602001019073ffffffffffffffffffffffffffffffffffffffff16908173ffffffffffffffffffffffffffffffffffffffff16815250508080620004159062000a69565b91505062000318565b505092915050565b60008080549050905090565b600081815481106200044357600080fd5b906000526020600020016000915054906101000a900473ffffffffffffffffffffffffffffffffffffffff1681565b61211a8062000b4183390190565b60006200049762000491846200089e565b6200086a565b905082815260208101848484011115620004b057600080fd5b620004bd84828562000a24565b509392505050565b600082601f830112620004d757600080fd5b8135620004e984826020860162000480565b91505092915050565b600081359050620005038162000b26565b92915050565b600080600080608085870312156200052057600080fd5b600085013567ffffffffffffffff8111156200053b57600080fd5b6200054987828801620004c5565b945050602085013567ffffffffffffffff8111156200056757600080fd5b6200057587828801620004c5565b935050604085013567ffffffffffffffff8111156200059357600080fd5b620005a187828801620004c5565b9250506060620005b487828801620004f2565b91505092959194509250565b600060208284031215620005d357600080fd5b6000620005e384828501620004f2565b91505092915050565b600080604083850312156200060057600080fd5b60006200061085828601620004f2565b92505060206200062385828601620004f2565b9150509250929050565b60006200063b8383620006c2565b60208301905092915050565b6200065281620009be565b82525050565b60006200066582620008e1565b62000671818562000904565b93506200067e83620008d1565b8060005b83811015620006b55781516200069988826200062d565b9750620006a683620008f7565b92505060018101905062000682565b5085935050505092915050565b620006cd81620009fc565b82525050565b620006de81620009fc565b82525050565b6000620006f182620008ec565b620006fd818562000915565b93506200070f81856020860162000a33565b6200071a8162000b15565b840191505092915050565b60006200073460148362000915565b91507f6f6666736574206f7574206f6620626f756e64730000000000000000000000006000830152602082019050919050565b6200077281620009f2565b82525050565b6000602082019050818103600083015262000794818462000658565b905092915050565b6000602082019050620007b36000830184620006d3565b92915050565b600060a0820190508181036000830152620007d58188620006e4565b90508181036020830152620007eb8187620006e4565b90508181036040830152620008018186620006e4565b905062000812606083018562000767565b62000821608083018462000647565b9695505050505050565b60006020820190508181036000830152620008468162000725565b9050919050565b600060208201905062000864600083018462000767565b92915050565b6000604051905081810181811067ffffffffffffffff8211171562000894576200089362000ae6565b5b8060405250919050565b600067ffffffffffffffff821115620008bc57620008bb62000ae6565b5b601f19601f8301169050602081019050919050565b6000819050602082019050919050565b600081519050919050565b600081519050919050565b6000602082019050919050565b600082825260208201905092915050565b600082825260208201905092915050565b60006200093382620009f2565b91506200094083620009f2565b9250827fffffffffffffffffffffffffffffffffffffffffffffffffffffffffffffffff0382111562000978576200097762000ab7565b5b828201905092915050565b60006200099082620009f2565b91506200099d83620009f2565b925082821015620009b357620009b262000ab7565b5b828203905092915050565b6000620009cb82620009d2565b9050919050565b600073ffffffffffffffffffffffffffffffffffffffff82169050919050565b6000819050919050565b600062000a098262000a10565b9050919050565b600062000a1d82620009d2565b9050919050565b82818337600083830152505050565b60005b8381101562000a5357808201518184015260208101905062000a36565b8381111562000a63576000848401525b50505050565b600062000a7682620009f2565b91507fffffffffffffffffffffffffffffffffffffffffffffffffffffffffffffffff82141562000aac5762000aab62000ab7565b5b600182019050919050565b7f4e487b7100000000000000000000000000000000000000000000000000000000600052601160045260246000fd5b7f4e487b7100000000000000000000000000000000000000000000000000000000600052604160045260246000fd5b6000601f19601f8301169050919050565b62000b3181620009f2565b811462000b3d57600080fd5b5056fe60806040523480156200001157600080fd5b506040516200211a3803806200211a8339818101604052810190620000379190620002e1565b620000576200004b620000c560201b60201c565b620000cd60201b60201c565b84600390805190602001906200006f92919062000191565b5083600490805190602001906200008892919062000191565b508260059080519060200190620000a192919062000191565b5081600681905550620000ba81620000cd60201b60201c565b505050505062000551565b600033905090565b60008060009054906101000a900473ffffffffffffffffffffffffffffffffffffffff169050816000806101000a81548173ffffffffffffffffffffffffffffffffffffffff021916908373ffffffffffffffffffffffffffffffffffffffff1602179055508173ffffffffffffffffffffffffffffffffffffffff168173ffffffffffffffffffffffffffffffffffffffff167f8be0079c531659141344cd1fd0a4f28419497f9722a3daafe3b4186f6b6457e060405160405180910390a35050565b8280546200019f9062000489565b90600052602060002090601f016020900481019282620001c357600085556200020f565b82601f10620001de57805160ff19168380011785556200020f565b828001600101855582156200020f579182015b828111156200020e578251825591602001919060010190620001f1565b5b5090506200021e919062000222565b5090565b5b808211156200023d57600081600090555060010162000223565b5090565b6000620002586200025284620003e2565b620003ae565b9050828152602081018484840111156200027157600080fd5b6200027e84828562000453565b509392505050565b60008151905062000297816200051d565b92915050565b600082601f830112620002af57600080fd5b8151620002c184826020860162000241565b91505092915050565b600081519050620002db8162000537565b92915050565b600080600080600060a08688031215620002fa57600080fd5b600086015167ffffffffffffffff8111156200031557600080fd5b62000323888289016200029d565b955050602086015167ffffffffffffffff8111156200034157600080fd5b6200034f888289016200029d565b945050604086015167ffffffffffffffff8111156200036d57600080fd5b6200037b888289016200029d565b93505060606200038e88828901620002ca565b9250506080620003a18882890162000286565b9150509295509295909350565b6000604051905081810181811067ffffffffffffffff82111715620003d857620003d7620004ee565b5b8060405250919050565b600067ffffffffffffffff8211156200040057620003ff620004ee565b5b601f19601f8301169050602081019050919050565b6000620004228262000429565b9050919050565b600073ffffffffffffffffffffffffffffffffffffffff82169050919050565b6000819050919050565b60005b838110156200047357808201518184015260208101905062000456565b8381111562000483576000848401525b50505050565b60006002820490506001821680620004a257607f821691505b60208210811415620004b957620004b8620004bf565b5b50919050565b7f4e487b7100000000000000000000000000000000000000000000000000000000600052602260045260246000fd5b7f4e487b7100000000000000000000000000000000000000000000000000000000600052604160045260246000fd5b620005288162000415565b81146200053457600080fd5b50565b620005428162000449565b81146200054e57600080fd5b50565b611bb980620005616000396000f3fe6080604052600436106101095760003560e01c80637284e41611610095578063dc0661be11610064578063dc0661be14610338578063de2ed89314610376578063ed88c68e146103a1578063f2fde38b146103ab578063f3ccaac0146103d457610109565b80637284e4161461027a5780638da5cb5b146102a5578063bff60c0f146102d0578063d7d1bbdb1461030f57610109565b80631a57f7b4116100dc5780631a57f7b4146101b85780631f522595146101e45780632636b9451461020f5780632d7788db1461023a578063715018a61461026357610109565b80630180b97c1461010e57806306fdde031461013957806314ee93a21461016457806316d26e3a1461018d575b600080fd5b34801561011a57600080fd5b506101236103ff565b6040516101309190611811565b60405180910390f35b34801561014557600080fd5b5061014e610449565b60405161015b919061172f565b60405180910390f35b34801561017057600080fd5b5061018b600480360381019061018691906113af565b6104d7565b005b34801561019957600080fd5b506101a26106c2565b6040516101af9190611811565b60405180910390f35b3480156101c457600080fd5b506101cd6106ce565b6040516101db9291906116f8565b60405180910390f35b3480156101f057600080fd5b506101f9610901565b6040516102069190611811565b60405180910390f35b34801561021b57600080fd5b50610224610907565b6040516102319190611811565b60405180910390f35b34801561024657600080fd5b50610261600480360381019061025c9190611414565b61090d565b005b34801561026f57600080fd5b50610278610b2b565b005b34801561028657600080fd5b5061028f610b3f565b60405161029c919061172f565b60405180910390f35b3480156102b157600080fd5b506102ba610bcd565b6040516102c791906116dd565b60405180910390f35b3480156102dc57600080fd5b506102f760048036038101906102f29190611414565b610bf6565b6040516103069392919061182c565b60405180910390f35b34801561031b57600080fd5b5061033660048036038101906103319190611414565b610c5d565b005b34801561034457600080fd5b5061035f600480360381019061035a91906113d8565b610f5c565b60405161036d929190611863565b60405180910390f35b34801561038257600080fd5b5061038b610f9d565b6040516103989190611811565b60405180910390f35b6103a9610fa3565b005b3480156103b757600080fd5b506103d260048036038101906103cd9190611386565b6110bf565b005b3480156103e057600080fd5b506103e9611143565b6040516103f6919061172f565b60405180910390f35b6000600160003373ffffffffffffffffffffffffffffffffffffffff1673ffffffffffffffffffffffffffffffffffffffff16815260200190815260200160002080549050905090565b6003805461045690611a11565b80601f016020809104026020016040519081016040528092919081815260200182805461048290611a11565b80156104cf5780601f106104a4576101008083540402835291602001916104cf565b820191906000526020600020905b8154815290600101906020018083116104b257829003601f168201915b505050505081565b670de0b6b3a76400006007541015610524576040517f08c379a000000000000000000000000000000000000000000000000000000000815260040161051b906117b1565b60405180910390fd5b60026040518060600160405280670de0b6b3a764000081526020018373ffffffffffffffffffffffffffffffffffffffff16815260200160006002811115610595577f4e487b7100000000000000000000000000000000000000000000000000000000600052602160045260246000fd5b81525090806001815401808255809150506001900390600052602060002090600202016000909190919091506000820151816000015560208201518160010160006101000a81548173ffffffffffffffffffffffffffffffffffffffff021916908373ffffffffffffffffffffffffffffffffffffffff16021790555060408201518160010160146101000a81548160ff02191690836002811115610663577f4e487b7100000000000000000000000000000000000000000000000000000000600052602160045260246000fd5b021790555050508073ffffffffffffffffffffffffffffffffffffffff1660016002805490506106939190611937565b7f233bb55fd57b21b8a3d15c9ad8fbbab435fe4cf2865cc654f6a57d9d4d8cda5460405160405180910390a350565b670de0b6b3a764000081565b60608060006106db6103ff565b90508067ffffffffffffffff81111561071d577f4e487b7100000000000000000000000000000000000000000000000000000000600052604160045260246000fd5b60405190808252806020026020018201604052801561074b5781602001602082028036833780820191505090505b5092508067ffffffffffffffff81111561078e577f4e487b7100000000000000000000000000000000000000000000000000000000600052604160045260246000fd5b6040519080825280602002602001820160405280156107bc5781602001602082028036833780820191505090505b50915060005b818110156108fb576000600160003373ffffffffffffffffffffffffffffffffffffffff1673ffffffffffffffffffffffffffffffffffffffff1681526020019081526020016000208281548110610843577f4e487b7100000000000000000000000000000000000000000000000000000000600052603260045260246000fd5b906000526020600020906002020190508060000154858381518110610891577f4e487b7100000000000000000000000000000000000000000000000000000000600052603260045260246000fd5b60200260200101818152505080600101548483815181106108db577f4e487b7100000000000000000000000000000000000000000000000000000000600052603260045260246000fd5b6020026020010181815250505080806108f390611a43565b9150506107c2565b50509091565b60085481565b60065481565b6109156111d1565b600280549050811061095c576040517f08c379a0000000000000000000000000000000000000000000000000000000008152600401610953906117f1565b60405180910390fd5b600060028281548110610998577f4e487b7100000000000000000000000000000000000000000000000000000000600052603260045260246000fd5b90600052602060002090600202019050600060028111156109e2577f4e487b7100000000000000000000000000000000000000000000000000000000600052602160045260246000fd5b8160010160149054906101000a900460ff166002811115610a2c577f4e487b7100000000000000000000000000000000000000000000000000000000600052602160045260246000fd5b14610a6c576040517f08c379a0000000000000000000000000000000000000000000000000000000008152600401610a6390611771565b60405180910390fd5b60028160010160146101000a81548160ff02191690836002811115610aba577f4e487b7100000000000000000000000000000000000000000000000000000000600052602160045260246000fd5b02179055508060010160009054906101000a900473ffffffffffffffffffffffffffffffffffffffff1673ffffffffffffffffffffffffffffffffffffffff16827f490ad67e4c8b3b9c1d11dfcd7f02e155190b8f6feff3a9d9e9df3721f0f74e5760405160405180910390a35050565b610b336111d1565b610b3d600061124f565b565b60058054610b4c90611a11565b80601f0160208091040260200160405190810160405280929190818152602001828054610b7890611a11565b8015610bc55780601f10610b9a57610100808354040283529160200191610bc5565b820191906000526020600020905b815481529060010190602001808311610ba857829003601f168201915b505050505081565b60008060009054906101000a900473ffffffffffffffffffffffffffffffffffffffff16905090565b60028181548110610c0657600080fd5b90600052602060002090600202016000915090508060000154908060010160009054906101000a900473ffffffffffffffffffffffffffffffffffffffff16908060010160149054906101000a900460ff16905083565b610c656111d1565b6002805490508110610cac576040517f08c379a0000000000000000000000000000000000000000000000000000000008152600401610ca3906117f1565b60405180910390fd5b600060028281548110610ce8577f4e487b7100000000000000000000000000000000000000000000000000000000600052603260045260246000fd5b9060005260206000209060020201905060006002811115610d32577f4e487b7100000000000000000000000000000000000000000000000000000000600052602160045260246000fd5b8160010160149054906101000a900460ff166002811115610d7c577f4e487b7100000000000000000000000000000000000000000000000000000000600052602160045260246000fd5b14610dbc576040517f08c379a0000000000000000000000000000000000000000000000000000000008152600401610db390611771565b60405180910390fd5b670de0b6b3a7640000471015610e07576040517f08c379a0000000000000000000000000000000000000000000000000000000008152600401610dfe906117d1565b60405180910390fd5b8060010160009054906101000a900473ffffffffffffffffffffffffffffffffffffffff1673ffffffffffffffffffffffffffffffffffffffff166108fc670de0b6b3a76400009081150290604051600060405180830381858888f19350505050158015610e79573d6000803e3d6000fd5b5060018160010160146101000a81548160ff02191690836002811115610ec8577f4e487b7100000000000000000000000000000000000000000000000000000000600052602160045260246000fd5b0217905550610eea670de0b6b3a764000060075461131390919063ffffffff16565b6007819055508060010160009054906101000a900473ffffffffffffffffffffffffffffffffffffffff1673ffffffffffffffffffffffffffffffffffffffff16827ff3dc904660a0ea05aba8dfa1e21fbc4fb2914be2a3029da7b0fdd3e5eee20ddb60405160405180910390a35050565b60016020528160005260406000208181548110610f7857600080fd5b9060005260206000209060020201600091509150508060000154908060010154905082565b60075481565b60006040518060400160405280348152602001428152509050600160003373ffffffffffffffffffffffffffffffffffffffff1673ffffffffffffffffffffffffffffffffffffffff168152602001908152602001600020819080600181540180825580915050600190039060005260206000209060020201600090919091909150600082015181600001556020820151816001015550506110503460075461132990919063ffffffff16565b6007819055506008600081548092919061106990611a43565b91905055503373ffffffffffffffffffffffffffffffffffffffff167f264f630d9efa0d07053a31163641d9fcc0adafc9d9e76f1c37c2ce3a558d2c52346040516110b49190611811565b60405180910390a250565b6110c76111d1565b600073ffffffffffffffffffffffffffffffffffffffff168173ffffffffffffffffffffffffffffffffffffffff161415611137576040517f08c379a000000000000000000000000000000000000000000000000000000000815260040161112e90611751565b60405180910390fd5b6111408161124f565b50565b6004805461115090611a11565b80601f016020809104026020016040519081016040528092919081815260200182805461117c90611a11565b80156111c95780601f1061119e576101008083540402835291602001916111c9565b820191906000526020600020905b8154815290600101906020018083116111ac57829003601f168201915b505050505081565b6111d961133f565b73ffffffffffffffffffffffffffffffffffffffff166111f7610bcd565b73ffffffffffffffffffffffffffffffffffffffff161461124d576040517f08c379a000000000000000000000000000000000000000000000000000000000815260040161124490611791565b60405180910390fd5b565b60008060009054906101000a900473ffffffffffffffffffffffffffffffffffffffff169050816000806101000a81548173ffffffffffffffffffffffffffffffffffffffff021916908373ffffffffffffffffffffffffffffffffffffffff1602179055508173ffffffffffffffffffffffffffffffffffffffff168173ffffffffffffffffffffffffffffffffffffffff167f8be0079c531659141344cd1fd0a4f28419497f9722a3daafe3b4186f6b6457e060405160405180910390a35050565b600081836113219190611937565b905092915050565b6000818361133791906118e1565b905092915050565b600033905090565b60008135905061135681611b3e565b92915050565b60008135905061136b81611b55565b92915050565b60008135905061138081611b6c565b92915050565b60006020828403121561139857600080fd5b60006113a684828501611347565b91505092915050565b6000602082840312156113c157600080fd5b60006113cf8482850161135c565b91505092915050565b600080604083850312156113eb57600080fd5b60006113f985828601611347565b925050602061140a85828601611371565b9150509250929050565b60006020828403121561142657600080fd5b600061143484828501611371565b91505092915050565b600061144983836116bf565b60208301905092915050565b61145e8161197d565b82525050565b61146d8161196b565b82525050565b600061147e8261189c565b61148881856118bf565b93506114938361188c565b8060005b838110156114c45781516114ab888261143d565b97506114b6836118b2565b925050600181019050611497565b5085935050505092915050565b6114da816119cc565b82525050565b60006114eb826118a7565b6114f581856118d0565b93506115058185602086016119de565b61150e81611b19565b840191505092915050565b60006115266026836118d0565b91507f4f776e61626c653a206e6577206f776e657220697320746865207a65726f206160008301527f64647265737300000000000000000000000000000000000000000000000000006020830152604082019050919050565b600061158c6016836118d0565b91507f52657175657374206973206e6f742070656e64696e67000000000000000000006000830152602082019050919050565b60006115cc6020836118d0565b91507f4f776e61626c653a2063616c6c6572206973206e6f7420746865206f776e65726000830152602082019050919050565b600061160c601e836118d0565b91507f496e73756666696369656e742066756e647320666f72207265717565737400006000830152602082019050919050565b600061164c601d836118d0565b91507f496e73756666696369656e7420636f6e74726163742062616c616e63650000006000830152602082019050919050565b600061168c6012836118d0565b91507f496e76616c6964207265717565737420494400000000000000000000000000006000830152602082019050919050565b6116c8816119c2565b82525050565b6116d7816119c2565b82525050565b60006020820190506116f26000830184611464565b92915050565b600060408201905081810360008301526117128185611473565b905081810360208301526117268184611473565b90509392505050565b6000602082019050818103600083015261174981846114e0565b905092915050565b6000602082019050818103600083015261176a81611519565b9050919050565b6000602082019050818103600083015261178a8161157f565b9050919050565b600060208201905081810360008301526117aa816115bf565b9050919050565b600060208201905081810360008301526117ca816115ff565b9050919050565b600060208201905081810360008301526117ea8161163f565b9050919050565b6000602082019050818103600083015261180a8161167f565b9050919050565b600060208201905061182660008301846116ce565b92915050565b600060608201905061184160008301866116ce565b61184e6020830185611455565b61185b60408301846114d1565b949350505050565b600060408201905061187860008301856116ce565b61188560208301846116ce565b9392505050565b6000819050602082019050919050565b600081519050919050565b600081519050919050565b6000602082019050919050565b600082825260208201905092915050565b600082825260208201905092915050565b60006118ec826119c2565b91506118f7836119c2565b9250827fffffffffffffffffffffffffffffffffffffffffffffffffffffffffffffffff0382111561192c5761192b611a8c565b5b828201905092915050565b6000611942826119c2565b915061194d836119c2565b9250828210156119605761195f611a8c565b5b828203905092915050565b6000611976826119a2565b9050919050565b6000611988826119a2565b9050919050565b600081905061199d82611b2a565b919050565b600073ffffffffffffffffffffffffffffffffffffffff82169050919050565b6000819050919050565b60006119d78261198f565b9050919050565b60005b838110156119fc5780820151818401526020810190506119e1565b83811115611a0b576000848401525b50505050565b60006002820490506001821680611a2957607f821691505b60208210811415611a3d57611a3c611aea565b5b50919050565b6000611a4e826119c2565b91507fffffffffffffffffffffffffffffffffffffffffffffffffffffffffffffffff821415611a8157611a80611a8c565b5b600182019050919050565b7f4e487b7100000000000000000000000000000000000000000000000000000000600052601160045260246000fd5b7f4e487b7100000000000000000000000000000000000000000000000000000000600052602160045260246000fd5b7f4e487b7100000000000000000000000000000000000000000000000000000000600052602260045260246000fd5b6000601f19601f8301169050919050565b60038110611b3b57611b3a611abb565b5b50565b611b478161196b565b8114611b5257600080fd5b50565b611b5e8161197d565b8114611b6957600080fd5b50565b611b75816119c2565b8114611b8057600080fd5b5056fea26469706673582212209ec4ae2c61f5bcd334f2aae139b8896a7e0e01e66153f2e3aae5b437354f9e4a64736f6c63430008000033a264697066735822122054dfd0a96c27e495714f1b931a02040d94101fccc70daec42528c7498b1c8d8b64736f6c63430008000033",
  "immutableReferences": {},
  "source": "// SPDX-License-Identifier: MIT\npragma solidity ^0.8.0;\n\nimport \"./Fundraiser.sol\";\n\ncontract FundraiserFactory {\n    uint256 constant maxLimit = 50;\n    Fundraiser[] public _fundraisers;\n\n    event FundraiserCreated(\n        Fundraiser indexed fundraiser,\n        address indexed owner\n    );\n\n    // Correcting createFundraiser function to match the Fundraiser constructor argument count\n    function createFundraiser(\n        string memory name,\n        string memory image,\n        string memory description,\n        uint256 goalAmount\n    ) public {\n        Fundraiser fundraiser = new Fundraiser(\n            name,\n            image,\n            description,\n            goalAmount,\n            msg.sender // Passing msg.sender as the custodian\n        );\n        _fundraisers.push(fundraiser);\n        emit FundraiserCreated(fundraiser, msg.sender);\n    }\n\n    function fundraisersCount() public view returns (uint256) {\n        return _fundraisers.length;\n    }\n\n    // Function to return a list of fundraisers with pagination\n    function fundraisers(\n        uint256 limit,\n        uint256 offset\n    ) public view returns (Fundraiser[] memory coll) {\n        require(offset <= fundraisersCount(), \"offset out of bounds\");\n\n        uint256 size = fundraisersCount() - offset;\n        size = size < limit ? size : limit;\n        size = size < maxLimit ? size : maxLimit;\n        coll = new Fundraiser[](size);\n\n        for (uint256 i = 0; i < size; i++) {\n            coll[i] = _fundraisers[offset + i];\n        }\n\n        return coll;\n    }\n}\n",
  "sourcePath": "/Users/erickchandra/Documents/code/DApp/contracts/FundraiserFactory.sol",
  "compiler": {
    "name": "solc",
    "version": "0.8.0+commit.c7dfd78e.Emscripten.clang"
  },
  "schemaVersion": "3.4.16",
  "updatedAt": "2023-11-25T09:06:25.717Z",
  "networkType": "ethereum",
  "devdoc": {
    "kind": "dev",
    "methods": {},
    "version": 1
  },
  "userdoc": {
    "kind": "user",
    "methods": {},
    "version": 1
  }
}