{
  "contractName": "Fundraiser",
  "abi": [
    {
      "inputs": [
        {
          "internalType": "string",
          "name": "_name",
          "type": "string"
        },
        {
          "internalType": "string",
          "name": "_image",
          "type": "string"
        },
        {
          "internalType": "string",
          "name": "_description",
          "type": "string"
        },
        {
          "internalType": "uint256",
          "name": "_goalAmount",
          "type": "uint256"
        },
        {
          "internalType": "address",
          "name": "_custodian",
          "type": "address"
        }
      ],
      "stateMutability": "nonpayable",
      "type": "constructor"
    },
    {
      "anonymous": false,
      "inputs": [
        {
          "indexed": true,
          "internalType": "address",
          "name": "donor",
          "type": "address"
        },
        {
          "indexed": false,
          "internalType": "uint256",
          "name": "value",
          "type": "uint256"
        }
      ],
      "name": "DonationReceived",
      "type": "event"
    },
    {
      "anonymous": false,
      "inputs": [
        {
          "indexed": true,
          "internalType": "address",
          "name": "previousOwner",
          "type": "address"
        },
        {
          "indexed": true,
          "internalType": "address",
          "name": "newOwner",
          "type": "address"
        }
      ],
      "name": "OwnershipTransferred",
      "type": "event"
    },
    {
      "anonymous": false,
      "inputs": [
        {
          "indexed": true,
          "internalType": "uint256",
          "name": "requestId",
          "type": "uint256"
        },
        {
          "indexed": true,
          "internalType": "address",
          "name": "beneficiary",
          "type": "address"
        }
      ],
      "name": "RequestApproved",
      "type": "event"
    },
    {
      "anonymous": false,
      "inputs": [
        {
          "indexed": true,
          "internalType": "uint256",
          "name": "requestId",
          "type": "uint256"
        },
        {
          "indexed": true,
          "internalType": "address",
          "name": "beneficiary",
          "type": "address"
        }
      ],
      "name": "RequestCreated",
      "type": "event"
    },
    {
      "anonymous": false,
      "inputs": [
        {
          "indexed": true,
          "internalType": "uint256",
          "name": "requestId",
          "type": "uint256"
        },
        {
          "indexed": true,
          "internalType": "address",
          "name": "beneficiary",
          "type": "address"
        }
      ],
      "name": "RequestRejected",
      "type": "event"
    },
    {
      "inputs": [],
      "name": "NGOAddress",
      "outputs": [
        {
          "internalType": "address",
          "name": "",
          "type": "address"
        }
      ],
      "stateMutability": "view",
      "type": "function"
    },
    {
      "inputs": [],
      "name": "REQUEST_AMOUNT",
      "outputs": [
        {
          "internalType": "uint256",
          "name": "",
          "type": "uint256"
        }
      ],
      "stateMutability": "view",
      "type": "function"
    },
    {
      "inputs": [
        {
          "internalType": "address",
          "name": "",
          "type": "address"
        },
        {
          "internalType": "uint256",
          "name": "",
          "type": "uint256"
        }
      ],
      "name": "_donations",
      "outputs": [
        {
          "internalType": "uint256",
          "name": "value",
          "type": "uint256"
        },
        {
          "internalType": "uint256",
          "name": "date",
          "type": "uint256"
        },
        {
          "internalType": "address",
          "name": "donor",
          "type": "address"
        },
        {
          "internalType": "string",
          "name": "fundName",
          "type": "string"
        }
      ],
      "stateMutability": "view",
      "type": "function"
    },
    {
      "inputs": [
        {
          "internalType": "uint256",
          "name": "",
          "type": "uint256"
        }
      ],
      "name": "_requests",
      "outputs": [
        {
          "internalType": "uint256",
          "name": "amount",
          "type": "uint256"
        },
        {
          "internalType": "address payable",
          "name": "beneficiary",
          "type": "address"
        },
        {
          "internalType": "address",
          "name": "NGO",
          "type": "address"
        },
        {
          "internalType": "enum Fundraiser.RequestStatus",
          "name": "status",
          "type": "uint8"
        }
      ],
      "stateMutability": "view",
      "type": "function"
    },
    {
      "inputs": [],
      "name": "description",
      "outputs": [
        {
          "internalType": "string",
          "name": "",
          "type": "string"
        }
      ],
      "stateMutability": "view",
      "type": "function"
    },
    {
      "inputs": [],
      "name": "donationsCount",
      "outputs": [
        {
          "internalType": "uint256",
          "name": "",
          "type": "uint256"
        }
      ],
      "stateMutability": "view",
      "type": "function"
    },
    {
      "inputs": [],
      "name": "fundName",
      "outputs": [
        {
          "internalType": "string",
          "name": "",
          "type": "string"
        }
      ],
      "stateMutability": "view",
      "type": "function"
    },
    {
      "inputs": [],
      "name": "goalAmount",
      "outputs": [
        {
          "internalType": "uint256",
          "name": "",
          "type": "uint256"
        }
      ],
      "stateMutability": "view",
      "type": "function"
    },
    {
      "inputs": [],
      "name": "image",
      "outputs": [
        {
          "internalType": "string",
          "name": "",
          "type": "string"
        }
      ],
      "stateMutability": "view",
      "type": "function"
    },
    {
      "inputs": [],
      "name": "owner",
      "outputs": [
        {
          "internalType": "address",
          "name": "",
          "type": "address"
        }
      ],
      "stateMutability": "view",
      "type": "function"
    },
    {
      "inputs": [],
      "name": "renounceOwnership",
      "outputs": [],
      "stateMutability": "nonpayable",
      "type": "function"
    },
    {
      "inputs": [],
      "name": "totalDonations",
      "outputs": [
        {
          "internalType": "uint256",
          "name": "",
          "type": "uint256"
        }
      ],
      "stateMutability": "view",
      "type": "function"
    },
    {
      "inputs": [
        {
          "internalType": "address",
          "name": "newOwner",
          "type": "address"
        }
      ],
      "name": "transferOwnership",
      "outputs": [],
      "stateMutability": "nonpayable",
      "type": "function"
    },
    {
      "inputs": [],
      "name": "myDonationsCount",
      "outputs": [
        {
          "internalType": "uint256",
          "name": "",
          "type": "uint256"
        }
      ],
      "stateMutability": "view",
      "type": "function"
    },
    {
      "inputs": [],
      "name": "donate",
      "outputs": [],
      "stateMutability": "payable",
      "type": "function"
    },
    {
      "inputs": [],
      "name": "myDonations",
      "outputs": [
        {
          "internalType": "uint256[]",
          "name": "values",
          "type": "uint256[]"
        },
        {
          "internalType": "uint256[]",
          "name": "dates",
          "type": "uint256[]"
        },
        {
          "internalType": "string[]",
          "name": "fundNames",
          "type": "string[]"
        }
      ],
      "stateMutability": "view",
      "type": "function"
    },
    {
      "inputs": [
        {
          "internalType": "address payable",
          "name": "_beneficiary",
          "type": "address"
        },
        {
          "internalType": "uint256",
          "name": "_requestAmount",
          "type": "uint256"
        }
      ],
      "name": "createRequest",
      "outputs": [],
      "stateMutability": "nonpayable",
      "type": "function"
    },
    {
      "inputs": [
        {
          "internalType": "uint256",
          "name": "requestId",
          "type": "uint256"
        }
      ],
      "name": "approveRequest",
      "outputs": [],
      "stateMutability": "nonpayable",
      "type": "function"
    },
    {
      "inputs": [
        {
          "internalType": "uint256",
          "name": "requestId",
          "type": "uint256"
        }
      ],
      "name": "rejectRequest",
      "outputs": [],
      "stateMutability": "nonpayable",
      "type": "function"
    }
  ],
  "bytecode": "0x60806040523480156200001157600080fd5b506040516200276d3803806200276d833981810160405281019062000037919062000322565b620000576200004b6200010660201b60201c565b6200010e60201b60201c565b84600390805190602001906200006f929190620001d2565b50836004908051906020019062000088929190620001d2565b508260059080519060200190620000a1929190620001d2565b5080600860006101000a81548173ffffffffffffffffffffffffffffffffffffffff021916908373ffffffffffffffffffffffffffffffffffffffff16021790555081600681905550620000fb816200010e60201b60201c565b505050505062000592565b600033905090565b60008060009054906101000a900473ffffffffffffffffffffffffffffffffffffffff169050816000806101000a81548173ffffffffffffffffffffffffffffffffffffffff021916908373ffffffffffffffffffffffffffffffffffffffff1602179055508173ffffffffffffffffffffffffffffffffffffffff168173ffffffffffffffffffffffffffffffffffffffff167f8be0079c531659141344cd1fd0a4f28419497f9722a3daafe3b4186f6b6457e060405160405180910390a35050565b828054620001e090620004ca565b90600052602060002090601f01602090048101928262000204576000855562000250565b82601f106200021f57805160ff191683800117855562000250565b8280016001018555821562000250579182015b828111156200024f57825182559160200191906001019062000232565b5b5090506200025f919062000263565b5090565b5b808211156200027e57600081600090555060010162000264565b5090565b600062000299620002938462000423565b620003ef565b905082815260208101848484011115620002b257600080fd5b620002bf84828562000494565b509392505050565b600081519050620002d8816200055e565b92915050565b600082601f830112620002f057600080fd5b81516200030284826020860162000282565b91505092915050565b6000815190506200031c8162000578565b92915050565b600080600080600060a086880312156200033b57600080fd5b600086015167ffffffffffffffff8111156200035657600080fd5b6200036488828901620002de565b955050602086015167ffffffffffffffff8111156200038257600080fd5b6200039088828901620002de565b945050604086015167ffffffffffffffff811115620003ae57600080fd5b620003bc88828901620002de565b9350506060620003cf888289016200030b565b9250506080620003e288828901620002c7565b9150509295509295909350565b6000604051905081810181811067ffffffffffffffff821117156200041957620004186200052f565b5b8060405250919050565b600067ffffffffffffffff8211156200044157620004406200052f565b5b601f19601f8301169050602081019050919050565b600062000463826200046a565b9050919050565b600073ffffffffffffffffffffffffffffffffffffffff82169050919050565b6000819050919050565b60005b83811015620004b457808201518184015260208101905062000497565b83811115620004c4576000848401525b50505050565b60006002820490506001821680620004e357607f821691505b60208210811415620004fa57620004f962000500565b5b50919050565b7f4e487b7100000000000000000000000000000000000000000000000000000000600052602260045260246000fd5b7f4e487b7100000000000000000000000000000000000000000000000000000000600052604160045260246000fd5b620005698162000456565b81146200057557600080fd5b50565b62000583816200048a565b81146200058f57600080fd5b50565b6121cb80620005a26000396000f3fe6080604052600436106101145760003560e01c80639ce1413b116100a0578063de2ed89311610064578063de2ed89314610387578063ed88c68e146103b2578063edc08925146103bc578063f2fde38b146103e5578063f3ccaac01461040e57610114565b80639ce1413b14610288578063acc03d1c146102b3578063bff60c0f146102de578063d7d1bbdb1461031e578063dc0661be1461034757610114565b80632636b945116100e75780632636b945146101c75780632d7788db146101f2578063715018a61461021b5780637284e416146102325780638da5cb5b1461025d57610114565b80630180b97c1461011957806316d26e3a146101445780631a57f7b41461016f5780631f5225951461019c575b600080fd5b34801561012557600080fd5b5061012e610439565b60405161013b9190611da8565b60405180910390f35b34801561015057600080fd5b50610159610483565b6040516101669190611da8565b60405180910390f35b34801561017b57600080fd5b5061018461048f565b60405161019393929190611c7a565b60405180910390f35b3480156101a857600080fd5b506101b161080c565b6040516101be9190611da8565b60405180910390f35b3480156101d357600080fd5b506101dc610812565b6040516101e99190611da8565b60405180910390f35b3480156101fe57600080fd5b50610219600480360381019061021491906118d4565b610818565b005b34801561022757600080fd5b50610230610a36565b005b34801561023e57600080fd5b50610247610a4a565b6040516102549190611cc6565b60405180910390f35b34801561026957600080fd5b50610272610ad8565b60405161027f9190611c5f565b60405180910390f35b34801561029457600080fd5b5061029d610b01565b6040516102aa9190611cc6565b60405180910390f35b3480156102bf57600080fd5b506102c8610b8f565b6040516102d59190611c5f565b60405180910390f35b3480156102ea57600080fd5b50610305600480360381019061030091906118d4565b610bb5565b6040516103159493929190611dc3565b60405180910390f35b34801561032a57600080fd5b50610345600480360381019061034091906118d4565b610c42565b005b34801561035357600080fd5b5061036e60048036038101906103699190611898565b610f41565b60405161037e9493929190611e08565b60405180910390f35b34801561039357600080fd5b5061039c611036565b6040516103a99190611da8565b60405180910390f35b6103ba61103c565b005b3480156103c857600080fd5b506103e360048036038101906103de919061185c565b611268565b005b3480156103f157600080fd5b5061040c60048036038101906104079190611833565b6114c9565b005b34801561041a57600080fd5b5061042361154d565b6040516104309190611cc6565b60405180910390f35b6000600160003373ffffffffffffffffffffffffffffffffffffffff1673ffffffffffffffffffffffffffffffffffffffff16815260200190815260200160002080549050905090565b670de0b6b3a764000081565b6060806060600061049e610439565b90508067ffffffffffffffff8111156104e0577f4e487b7100000000000000000000000000000000000000000000000000000000600052604160045260246000fd5b60405190808252806020026020018201604052801561050e5781602001602082028036833780820191505090505b5093508067ffffffffffffffff811115610551577f4e487b7100000000000000000000000000000000000000000000000000000000600052604160045260246000fd5b60405190808252806020026020018201604052801561057f5781602001602082028036833780820191505090505b5092508067ffffffffffffffff8111156105c2577f4e487b7100000000000000000000000000000000000000000000000000000000600052604160045260246000fd5b6040519080825280602002602001820160405280156105f557816020015b60608152602001906001900390816105e05790505b50915060005b81811015610805576000600160003373ffffffffffffffffffffffffffffffffffffffff1673ffffffffffffffffffffffffffffffffffffffff168152602001908152602001600020828154811061067c577f4e487b7100000000000000000000000000000000000000000000000000000000600052603260045260246000fd5b9060005260206000209060040201905080600001548683815181106106ca577f4e487b7100000000000000000000000000000000000000000000000000000000600052603260045260246000fd5b6020026020010181815250508060010154858381518110610714577f4e487b7100000000000000000000000000000000000000000000000000000000600052603260045260246000fd5b60200260200101818152505080600301805461072f90612023565b80601f016020809104026020016040519081016040528092919081815260200182805461075b90612023565b80156107a85780601f1061077d576101008083540402835291602001916107a8565b820191906000526020600020905b81548152906001019060200180831161078b57829003601f168201915b50505050508483815181106107e6577f4e487b7100000000000000000000000000000000000000000000000000000000600052603260045260246000fd5b60200260200101819052505080806107fd90612055565b9150506105fb565b5050909192565b60095481565b60065481565b6108206115db565b6002805490508110610867576040517f08c379a000000000000000000000000000000000000000000000000000000000815260040161085e90611d88565b60405180910390fd5b6000600282815481106108a3577f4e487b7100000000000000000000000000000000000000000000000000000000600052603260045260246000fd5b90600052602060002090600302019050600060028111156108ed577f4e487b7100000000000000000000000000000000000000000000000000000000600052602160045260246000fd5b8160020160149054906101000a900460ff166002811115610937577f4e487b7100000000000000000000000000000000000000000000000000000000600052602160045260246000fd5b14610977576040517f08c379a000000000000000000000000000000000000000000000000000000000815260040161096e90611d08565b60405180910390fd5b60028160020160146101000a81548160ff021916908360028111156109c5577f4e487b7100000000000000000000000000000000000000000000000000000000600052602160045260246000fd5b02179055508060010160009054906101000a900473ffffffffffffffffffffffffffffffffffffffff1673ffffffffffffffffffffffffffffffffffffffff16827f490ad67e4c8b3b9c1d11dfcd7f02e155190b8f6feff3a9d9e9df3721f0f74e5760405160405180910390a35050565b610a3e6115db565b610a486000611659565b565b60058054610a5790612023565b80601f0160208091040260200160405190810160405280929190818152602001828054610a8390612023565b8015610ad05780601f10610aa557610100808354040283529160200191610ad0565b820191906000526020600020905b815481529060010190602001808311610ab357829003601f168201915b505050505081565b60008060009054906101000a900473ffffffffffffffffffffffffffffffffffffffff16905090565b60038054610b0e90612023565b80601f0160208091040260200160405190810160405280929190818152602001828054610b3a90612023565b8015610b875780601f10610b5c57610100808354040283529160200191610b87565b820191906000526020600020905b815481529060010190602001808311610b6a57829003601f168201915b505050505081565b600860009054906101000a900473ffffffffffffffffffffffffffffffffffffffff1681565b60028181548110610bc557600080fd5b90600052602060002090600302016000915090508060000154908060010160009054906101000a900473ffffffffffffffffffffffffffffffffffffffff16908060020160009054906101000a900473ffffffffffffffffffffffffffffffffffffffff16908060020160149054906101000a900460ff16905084565b610c4a6115db565b6002805490508110610c91576040517f08c379a0000000000000000000000000000000000000000000000000000000008152600401610c8890611d88565b60405180910390fd5b600060028281548110610ccd577f4e487b7100000000000000000000000000000000000000000000000000000000600052603260045260246000fd5b9060005260206000209060030201905060006002811115610d17577f4e487b7100000000000000000000000000000000000000000000000000000000600052602160045260246000fd5b8160020160149054906101000a900460ff166002811115610d61577f4e487b7100000000000000000000000000000000000000000000000000000000600052602160045260246000fd5b14610da1576040517f08c379a0000000000000000000000000000000000000000000000000000000008152600401610d9890611d08565b60405180910390fd5b670de0b6b3a7640000471015610dec576040517f08c379a0000000000000000000000000000000000000000000000000000000008152600401610de390611d68565b60405180910390fd5b8060010160009054906101000a900473ffffffffffffffffffffffffffffffffffffffff1673ffffffffffffffffffffffffffffffffffffffff166108fc670de0b6b3a76400009081150290604051600060405180830381858888f19350505050158015610e5e573d6000803e3d6000fd5b5060018160020160146101000a81548160ff02191690836002811115610ead577f4e487b7100000000000000000000000000000000000000000000000000000000600052602160045260246000fd5b0217905550610ecf670de0b6b3a764000060075461171d90919063ffffffff16565b6007819055508060010160009054906101000a900473ffffffffffffffffffffffffffffffffffffffff1673ffffffffffffffffffffffffffffffffffffffff16827ff3dc904660a0ea05aba8dfa1e21fbc4fb2914be2a3029da7b0fdd3e5eee20ddb60405160405180910390a35050565b60016020528160005260406000208181548110610f5d57600080fd5b9060005260206000209060040201600091509150508060000154908060010154908060020160009054906101000a900473ffffffffffffffffffffffffffffffffffffffff1690806003018054610fb390612023565b80601f0160208091040260200160405190810160405280929190818152602001828054610fdf90612023565b801561102c5780601f106110015761010080835404028352916020019161102c565b820191906000526020600020905b81548152906001019060200180831161100f57829003601f168201915b5050505050905084565b60075481565b600060405180608001604052803481526020014281526020013373ffffffffffffffffffffffffffffffffffffffff1681526020016003805461107e90612023565b80601f01602080910402602001604051908101604052809291908181526020018280546110aa90612023565b80156110f75780601f106110cc576101008083540402835291602001916110f7565b820191906000526020600020905b8154815290600101906020018083116110da57829003601f168201915b50505050508152509050600160003373ffffffffffffffffffffffffffffffffffffffff1673ffffffffffffffffffffffffffffffffffffffff168152602001908152602001600020819080600181540180825580915050600190039060005260206000209060040201600090919091909150600082015181600001556020820151816001015560408201518160020160006101000a81548173ffffffffffffffffffffffffffffffffffffffff021916908373ffffffffffffffffffffffffffffffffffffffff16021790555060608201518160030190805190602001906111e1929190611751565b5050506111f93460075461173390919063ffffffff16565b6007819055506009600081548092919061121290612055565b91905055503373ffffffffffffffffffffffffffffffffffffffff167f264f630d9efa0d07053a31163641d9fcc0adafc9d9e76f1c37c2ce3a558d2c523460405161125d9190611da8565b60405180910390a250565b8060075410156112ad576040517f08c379a00000000000000000000000000000000000000000000000000000000081526004016112a490611d48565b60405180910390fd5b600260405180608001604052808381526020018473ffffffffffffffffffffffffffffffffffffffff168152602001600860009054906101000a900473ffffffffffffffffffffffffffffffffffffffff1673ffffffffffffffffffffffffffffffffffffffff16815260200160006002811115611354577f4e487b7100000000000000000000000000000000000000000000000000000000600052602160045260246000fd5b81525090806001815401808255809150506001900390600052602060002090600302016000909190919091506000820151816000015560208201518160010160006101000a81548173ffffffffffffffffffffffffffffffffffffffff021916908373ffffffffffffffffffffffffffffffffffffffff16021790555060408201518160020160006101000a81548173ffffffffffffffffffffffffffffffffffffffff021916908373ffffffffffffffffffffffffffffffffffffffff16021790555060608201518160020160146101000a81548160ff02191690836002811115611469577f4e487b7100000000000000000000000000000000000000000000000000000000600052602160045260246000fd5b021790555050508173ffffffffffffffffffffffffffffffffffffffff1660016002805490506114999190611f49565b7f233bb55fd57b21b8a3d15c9ad8fbbab435fe4cf2865cc654f6a57d9d4d8cda5460405160405180910390a35050565b6114d16115db565b600073ffffffffffffffffffffffffffffffffffffffff168173ffffffffffffffffffffffffffffffffffffffff161415611541576040517f08c379a000000000000000000000000000000000000000000000000000000000815260040161153890611ce8565b60405180910390fd5b61154a81611659565b50565b6004805461155a90612023565b80601f016020809104026020016040519081016040528092919081815260200182805461158690612023565b80156115d35780601f106115a8576101008083540402835291602001916115d3565b820191906000526020600020905b8154815290600101906020018083116115b657829003601f168201915b505050505081565b6115e3611749565b73ffffffffffffffffffffffffffffffffffffffff16611601610ad8565b73ffffffffffffffffffffffffffffffffffffffff1614611657576040517f08c379a000000000000000000000000000000000000000000000000000000000815260040161164e90611d28565b60405180910390fd5b565b60008060009054906101000a900473ffffffffffffffffffffffffffffffffffffffff169050816000806101000a81548173ffffffffffffffffffffffffffffffffffffffff021916908373ffffffffffffffffffffffffffffffffffffffff1602179055508173ffffffffffffffffffffffffffffffffffffffff168173ffffffffffffffffffffffffffffffffffffffff167f8be0079c531659141344cd1fd0a4f28419497f9722a3daafe3b4186f6b6457e060405160405180910390a35050565b6000818361172b9190611f49565b905092915050565b600081836117419190611ef3565b905092915050565b600033905090565b82805461175d90612023565b90600052602060002090601f01602090048101928261177f57600085556117c6565b82601f1061179857805160ff19168380011785556117c6565b828001600101855582156117c6579182015b828111156117c55782518255916020019190600101906117aa565b5b5090506117d391906117d7565b5090565b5b808211156117f05760008160009055506001016117d8565b5090565b60008135905061180381612150565b92915050565b60008135905061181881612167565b92915050565b60008135905061182d8161217e565b92915050565b60006020828403121561184557600080fd5b6000611853848285016117f4565b91505092915050565b6000806040838503121561186f57600080fd5b600061187d85828601611809565b925050602061188e8582860161181e565b9150509250929050565b600080604083850312156118ab57600080fd5b60006118b9858286016117f4565b92505060206118ca8582860161181e565b9150509250929050565b6000602082840312156118e657600080fd5b60006118f48482850161181e565b91505092915050565b60006119098383611a29565b905092915050565b600061191d8383611c41565b60208301905092915050565b61193281611f8f565b82525050565b61194181611f7d565b82525050565b600061195282611e74565b61195c8185611eaf565b93508360208202850161196e85611e54565b8060005b858110156119aa578484038952815161198b85826118fd565b945061199683611e95565b925060208a01995050600181019050611972565b50829750879550505050505092915050565b60006119c782611e7f565b6119d18185611ec0565b93506119dc83611e64565b8060005b83811015611a0d5781516119f48882611911565b97506119ff83611ea2565b9250506001810190506119e0565b5085935050505092915050565b611a2381611fde565b82525050565b6000611a3482611e8a565b611a3e8185611ed1565b9350611a4e818560208601611ff0565b611a578161212b565b840191505092915050565b6000611a6d82611e8a565b611a778185611ee2565b9350611a87818560208601611ff0565b611a908161212b565b840191505092915050565b6000611aa8602683611ee2565b91507f4f776e61626c653a206e6577206f776e657220697320746865207a65726f206160008301527f64647265737300000000000000000000000000000000000000000000000000006020830152604082019050919050565b6000611b0e601683611ee2565b91507f52657175657374206973206e6f742070656e64696e67000000000000000000006000830152602082019050919050565b6000611b4e602083611ee2565b91507f4f776e61626c653a2063616c6c6572206973206e6f7420746865206f776e65726000830152602082019050919050565b6000611b8e601e83611ee2565b91507f496e73756666696369656e742066756e647320666f72207265717565737400006000830152602082019050919050565b6000611bce601d83611ee2565b91507f496e73756666696369656e7420636f6e74726163742062616c616e63650000006000830152602082019050919050565b6000611c0e601283611ee2565b91507f496e76616c6964207265717565737420494400000000000000000000000000006000830152602082019050919050565b611c4a81611fd4565b82525050565b611c5981611fd4565b82525050565b6000602082019050611c746000830184611938565b92915050565b60006060820190508181036000830152611c9481866119bc565b90508181036020830152611ca881856119bc565b90508181036040830152611cbc8184611947565b9050949350505050565b60006020820190508181036000830152611ce08184611a62565b905092915050565b60006020820190508181036000830152611d0181611a9b565b9050919050565b60006020820190508181036000830152611d2181611b01565b9050919050565b60006020820190508181036000830152611d4181611b41565b9050919050565b60006020820190508181036000830152611d6181611b81565b9050919050565b60006020820190508181036000830152611d8181611bc1565b9050919050565b60006020820190508181036000830152611da181611c01565b9050919050565b6000602082019050611dbd6000830184611c50565b92915050565b6000608082019050611dd86000830187611c50565b611de56020830186611929565b611df26040830185611938565b611dff6060830184611a1a565b95945050505050565b6000608082019050611e1d6000830187611c50565b611e2a6020830186611c50565b611e376040830185611938565b8181036060830152611e498184611a62565b905095945050505050565b6000819050602082019050919050565b6000819050602082019050919050565b600081519050919050565b600081519050919050565b600081519050919050565b6000602082019050919050565b6000602082019050919050565b600082825260208201905092915050565b600082825260208201905092915050565b600082825260208201905092915050565b600082825260208201905092915050565b6000611efe82611fd4565b9150611f0983611fd4565b9250827fffffffffffffffffffffffffffffffffffffffffffffffffffffffffffffffff03821115611f3e57611f3d61209e565b5b828201905092915050565b6000611f5482611fd4565b9150611f5f83611fd4565b925082821015611f7257611f7161209e565b5b828203905092915050565b6000611f8882611fb4565b9050919050565b6000611f9a82611fb4565b9050919050565b6000819050611faf8261213c565b919050565b600073ffffffffffffffffffffffffffffffffffffffff82169050919050565b6000819050919050565b6000611fe982611fa1565b9050919050565b60005b8381101561200e578082015181840152602081019050611ff3565b8381111561201d576000848401525b50505050565b6000600282049050600182168061203b57607f821691505b6020821081141561204f5761204e6120fc565b5b50919050565b600061206082611fd4565b91507fffffffffffffffffffffffffffffffffffffffffffffffffffffffffffffffff8214156120935761209261209e565b5b600182019050919050565b7f4e487b7100000000000000000000000000000000000000000000000000000000600052601160045260246000fd5b7f4e487b7100000000000000000000000000000000000000000000000000000000600052602160045260246000fd5b7f4e487b7100000000000000000000000000000000000000000000000000000000600052602260045260246000fd5b6000601f19601f8301169050919050565b6003811061214d5761214c6120cd565b5b50565b61215981611f7d565b811461216457600080fd5b50565b61217081611f8f565b811461217b57600080fd5b50565b61218781611fd4565b811461219257600080fd5b5056fea26469706673582212205efbabee844bc01158a2a4d3b9d4ba15bbd4d2b73bc0465286c6f48cca62017364736f6c63430008000033",
  "immutableReferences": {},
  "source": "// SPDX-License-Identifier: MIT\npragma solidity ^0.8.0;\n\nimport '@openzeppelin/contracts/access/Ownable.sol';\nimport '@openzeppelin/contracts/utils/math/SafeMath.sol';\n\ncontract Fundraiser is Ownable {\n  using SafeMath for uint256;\n\n  struct Donation {\n    uint256 value;\n    uint256 date;\n    address donor;\n    string fundName;\n  }\n\n  struct FundsRequest {\n    uint256 amount;\n    address payable beneficiary;\n    address NGO;\n    RequestStatus status;\n  }\n\n  enum RequestStatus {\n    Pending,\n    Approved,\n    Rejected\n  }\n\n  mapping(address => Donation[]) public _donations;\n  FundsRequest[] public _requests;\n\n  event DonationReceived(address indexed donor, uint256 value);\n  event RequestCreated(uint256 indexed requestId, address indexed beneficiary);\n  event RequestApproved(uint256 indexed requestId, address indexed beneficiary);\n  event RequestRejected(uint256 indexed requestId, address indexed beneficiary);\n\n  string public fundName;\n  string public image; // This is the fundname\n  string public description;\n  uint256 public goalAmount;\n  uint256 public totalDonations;\n  address public NGOAddress;\n  uint256 public donationsCount;\n  uint256 public constant REQUEST_AMOUNT = 1 ether; // Hardcoded request amount\n\n  constructor(\n    string memory _name,\n    string memory _image,\n    string memory _description,\n    uint256 _goalAmount,\n    address _custodian // This is the address of the owner/custodian\n  ) public {\n    fundName = _name;\n    image = _image;\n    description = _description;\n    NGOAddress = _custodian;\n    goalAmount = _goalAmount;\n    _transferOwnership(_custodian); // This is the address of the\n  }\n\n  function myDonationsCount() public view returns (uint256) {\n    return _donations[msg.sender].length;\n  }\n\n  function donate() public payable {\n    Donation memory donation = Donation({\n      value: msg.value,\n      date: block.timestamp,\n      donor: msg.sender,\n      fundName: fundName\n    });\n    _donations[msg.sender].push(donation);\n    totalDonations = totalDonations.add(msg.value);\n    donationsCount++;\n    emit DonationReceived(msg.sender, msg.value);\n  }\n\n  function myDonations()\n    public\n    view\n    returns (\n      uint256[] memory values,\n      uint256[] memory dates,\n      string[] memory fundNames\n    )\n  {\n    uint256 count = myDonationsCount();\n    values = new uint256[](count);\n    dates = new uint256[](count);\n    fundNames = new string[](count);\n\n    for (uint256 i = 0; i < count; i++) {\n      Donation storage donation = _donations[msg.sender][i];\n      values[i] = donation.value;\n      dates[i] = donation.date;\n      fundNames[i] = donation.fundName;\n    }\n  }\n\n  function createRequest(\n    address payable _beneficiary,\n    uint256 _requestAmount\n  ) public {\n    require(totalDonations >= _requestAmount, 'Insufficient funds for request');\n\n    _requests.push(\n      FundsRequest({\n        amount: _requestAmount,\n        beneficiary: _beneficiary,\n        NGO: NGOAddress, // Storing the NGO's address\n        status: RequestStatus.Pending\n      })\n    );\n\n    emit RequestCreated(_requests.length - 1, _beneficiary);\n  }\n\n  function approveRequest(uint256 requestId) public onlyOwner {\n    require(requestId < _requests.length, 'Invalid request ID');\n    FundsRequest storage request = _requests[requestId];\n    require(request.status == RequestStatus.Pending, 'Request is not pending');\n    require(\n      address(this).balance >= REQUEST_AMOUNT,\n      'Insufficient contract balance'\n    );\n\n    request.beneficiary.transfer(REQUEST_AMOUNT);\n    request.status = RequestStatus.Approved;\n    totalDonations = totalDonations.sub(REQUEST_AMOUNT);\n\n    emit RequestApproved(requestId, request.beneficiary);\n  }\n\n  function rejectRequest(uint256 requestId) public onlyOwner {\n    require(requestId < _requests.length, 'Invalid request ID');\n    FundsRequest storage request = _requests[requestId];\n    require(request.status == RequestStatus.Pending, 'Request is not pending');\n\n    request.status = RequestStatus.Rejected;\n\n    emit RequestRejected(requestId, request.beneficiary);\n  }\n}\n",
  "sourcePath": "/Users/visshal/Blockchain/Crypto-Charity/contracts/Fundraiser.sol",
  "compiler": {
    "name": "solc",
    "version": "0.8.0+commit.c7dfd78e.Emscripten.clang"
  },
  "schemaVersion": "3.4.16",
  "updatedAt": "2023-11-25T14:04:06.884Z",
  "devdoc": {
    "kind": "dev",
    "methods": {
      "owner()": {
        "details": "Returns the address of the current owner."
      },
      "renounceOwnership()": {
        "details": "Leaves the contract without owner. It will not be possible to call `onlyOwner` functions anymore. Can only be called by the current owner. NOTE: Renouncing ownership will leave the contract without an owner, thereby removing any functionality that is only available to the owner."
      },
      "transferOwnership(address)": {
        "details": "Transfers ownership of the contract to a new account (`newOwner`). Can only be called by the current owner."
      }
    },
    "version": 1
  },
  "userdoc": {
    "kind": "user",
    "methods": {},
    "version": 1
  }
}