{
  "contractName": "UserRegistration",
  "abi": [
    {
      "anonymous": false,
      "inputs": [
        {
          "indexed": false,
          "internalType": "address",
          "name": "user",
          "type": "address"
        },
        {
          "indexed": false,
          "internalType": "enum UserRegistration.UserRole",
          "name": "role",
          "type": "uint8"
        }
      ],
      "name": "UserRegistered",
      "type": "event"
    },
    {
      "inputs": [
        {
          "internalType": "address",
          "name": "",
          "type": "address"
        }
      ],
      "name": "users",
      "outputs": [
        {
          "internalType": "enum UserRegistration.UserRole",
          "name": "role",
          "type": "uint8"
        },
        {
          "internalType": "bool",
          "name": "isRegistered",
          "type": "bool"
        }
      ],
      "stateMutability": "view",
      "type": "function"
    }
  ],
  "bytecode": "0x608060405234801561001057600080fd5b50610217806100206000396000f3fe608060405234801561001057600080fd5b506004361061002b5760003560e01c8063a87430ba14610030575b600080fd5b61004a600480360381019061004591906100b4565b610061565b6040516100589291906100fb565b60405180910390f35b60006020528060005260406000206000915090508060000160009054906101000a900460ff16908060000160019054906101000a900460ff16905082565b6000813590506100ae816101ca565b92915050565b6000602082840312156100c657600080fd5b60006100d48482850161009f565b91505092915050565b6100e681610136565b82525050565b6100f581610175565b82525050565b600060408201905061011060008301856100ec565b61011d60208301846100dd565b9392505050565b600061012f82610155565b9050919050565b60008115159050919050565b6000819050610150826101b6565b919050565b600073ffffffffffffffffffffffffffffffffffffffff82169050919050565b600061018082610142565b9050919050565b7f4e487b7100000000000000000000000000000000000000000000000000000000600052602160045260246000fd5b600381106101c7576101c6610187565b5b50565b6101d381610124565b81146101de57600080fd5b5056fea26469706673582212200e0b107c9493f50071811a8161bebb238985203d9c7bf558bb1ef4315ccf556764736f6c63430008000033",
  "immutableReferences": {},
  "source": "// SPDX-License-Identifier: MIT\npragma solidity ^0.8.0;\n\ncontract UserRegistration {\n    enum UserRole {\n        Admin,\n        User,\n        Guest\n    }\n\n    struct User {\n        UserRole role;\n        bool isRegistered;\n    }\n\n    // 将用户地址映射到用户数据\n    mapping(address => User) public users;\n\n    // 事件，用于在用户注册时发出\n    event UserRegistered(address user, UserRole role);\n\n    // 注册用户函数\n}\n",
  "sourcePath": "/Users/visshal/Final_Blockchain_Project/DAPP/DApp/contracts/UserRegistration.sol",
  "compiler": {
    "name": "solc",
    "version": "0.8.0+commit.c7dfd78e.Emscripten.clang"
  },
  "schemaVersion": "3.4.16",
  "updatedAt": "2023-12-02T10:27:29.930Z",
  "devdoc": {
    "kind": "dev",
    "methods": {},
    "version": 1
  },
  "userdoc": {
    "kind": "user",
    "methods": {},
    "version": 1
  }
}