{
  "contractName": "Allocation",
  "abi": [
    {
      "anonymous": false,
      "inputs": [
        {
          "indexed": true,
          "internalType": "address",
          "name": "previousOwner",
          "type": "address"
        },
        {
          "indexed": true,
          "internalType": "address",
          "name": "newOwner",
          "type": "address"
        }
      ],
      "name": "OwnershipTransferred",
      "type": "event"
    },
    {
      "inputs": [],
      "name": "NGO",
      "outputs": [
        {
          "internalType": "address payable",
          "name": "",
          "type": "address"
        }
      ],
      "stateMutability": "view",
      "type": "function"
    },
    {
      "inputs": [],
      "name": "beneficiary",
      "outputs": [
        {
          "internalType": "address payable",
          "name": "",
          "type": "address"
        }
      ],
      "stateMutability": "view",
      "type": "function"
    },
    {
      "inputs": [],
      "name": "description",
      "outputs": [
        {
          "internalType": "string",
          "name": "",
          "type": "string"
        }
      ],
      "stateMutability": "view",
      "type": "function"
    },
    {
      "inputs": [],
      "name": "donationsCount",
      "outputs": [
        {
          "internalType": "uint256",
          "name": "",
          "type": "uint256"
        }
      ],
      "stateMutability": "view",
      "type": "function"
    },
    {
      "inputs": [],
      "name": "goalAmount",
      "outputs": [
        {
          "internalType": "uint256",
          "name": "",
          "type": "uint256"
        }
      ],
      "stateMutability": "view",
      "type": "function"
    },
    {
      "inputs": [],
      "name": "image",
      "outputs": [
        {
          "internalType": "string",
          "name": "",
          "type": "string"
        }
      ],
      "stateMutability": "view",
      "type": "function"
    },
    {
      "inputs": [],
      "name": "name",
      "outputs": [
        {
          "internalType": "string",
          "name": "",
          "type": "string"
        }
      ],
      "stateMutability": "view",
      "type": "function"
    },
    {
      "inputs": [],
      "name": "owner",
      "outputs": [
        {
          "internalType": "address",
          "name": "",
          "type": "address"
        }
      ],
      "stateMutability": "view",
      "type": "function"
    },
    {
      "inputs": [],
      "name": "renounceOwnership",
      "outputs": [],
      "stateMutability": "nonpayable",
      "type": "function"
    },
    {
      "inputs": [
        {
          "internalType": "uint256",
          "name": "",
          "type": "uint256"
        }
      ],
      "name": "requests",
      "outputs": [
        {
          "internalType": "uint256",
          "name": "projectId",
          "type": "uint256"
        },
        {
          "internalType": "address",
          "name": "beneficiary",
          "type": "address"
        },
        {
          "internalType": "uint256",
          "name": "amountRequested",
          "type": "uint256"
        },
        {
          "internalType": "bool",
          "name": "isApproved",
          "type": "bool"
        }
      ],
      "stateMutability": "view",
      "type": "function"
    },
    {
      "inputs": [],
      "name": "totalDonations",
      "outputs": [
        {
          "internalType": "uint256",
          "name": "",
          "type": "uint256"
        }
      ],
      "stateMutability": "view",
      "type": "function"
    },
    {
      "inputs": [
        {
          "internalType": "address",
          "name": "newOwner",
          "type": "address"
        }
      ],
      "name": "transferOwnership",
      "outputs": [],
      "stateMutability": "nonpayable",
      "type": "function"
    }
  ],
  "bytecode": "0x608060405234801561001057600080fd5b5061002d61002261003260201b60201c565b61003a60201b60201c565b6100fe565b600033905090565b60008060009054906101000a900473ffffffffffffffffffffffffffffffffffffffff169050816000806101000a81548173ffffffffffffffffffffffffffffffffffffffff021916908373ffffffffffffffffffffffffffffffffffffffff1602179055508173ffffffffffffffffffffffffffffffffffffffff168173ffffffffffffffffffffffffffffffffffffffff167f8be0079c531659141344cd1fd0a4f28419497f9722a3daafe3b4186f6b6457e060405160405180910390a35050565b610aae8061010d6000396000f3fe608060405234801561001057600080fd5b50600436106100b45760003560e01c806381d12c581161007157806381d12c58146101595780638da5cb5b1461018c578063937d7f11146101aa578063de2ed893146101c8578063f2fde38b146101e6578063f3ccaac014610202576100b4565b806306fdde03146100b95780631f522595146100d75780632636b945146100f557806338af3eed14610113578063715018a6146101315780637284e4161461013b575b600080fd5b6100c1610220565b6040516100ce919061086d565b60405180910390f35b6100df6102ae565b6040516100ec91906108cf565b60405180910390f35b6100fd6102b4565b60405161010a91906108cf565b60405180910390f35b61011b6102ba565b6040516101289190610852565b60405180910390f35b6101396102e0565b005b6101436102f4565b604051610150919061086d565b60405180910390f35b610173600480360381019061016e91906106f3565b610382565b60405161018394939291906108ea565b60405180910390f35b6101946103ef565b6040516101a19190610837565b60405180910390f35b6101b2610418565b6040516101bf9190610852565b60405180910390f35b6101d061043e565b6040516101dd91906108cf565b60405180910390f35b61020060048036038101906101fb91906106ca565b610444565b005b61020a6104c8565b604051610217919061086d565b60405180910390f35b6001805461022d906109d8565b80601f0160208091040260200160405190810160405280929190818152602001828054610259906109d8565b80156102a65780601f1061027b576101008083540402835291602001916102a6565b820191906000526020600020905b81548152906001019060200180831161028957829003601f168201915b505050505081565b60085481565b60065481565b600560009054906101000a900473ffffffffffffffffffffffffffffffffffffffff1681565b6102e8610556565b6102f260006105d4565b565b60038054610301906109d8565b80601f016020809104026020016040519081016040528092919081815260200182805461032d906109d8565b801561037a5780601f1061034f5761010080835404028352916020019161037a565b820191906000526020600020905b81548152906001019060200180831161035d57829003601f168201915b505050505081565b600a818154811061039257600080fd5b90600052602060002090600402016000915090508060000154908060010160009054906101000a900473ffffffffffffffffffffffffffffffffffffffff16908060020154908060030160009054906101000a900460ff16905084565b60008060009054906101000a900473ffffffffffffffffffffffffffffffffffffffff16905090565b600460009054906101000a900473ffffffffffffffffffffffffffffffffffffffff1681565b60075481565b61044c610556565b600073ffffffffffffffffffffffffffffffffffffffff168173ffffffffffffffffffffffffffffffffffffffff1614156104bc576040517f08c379a00000000000000000000000000000000000000000000000000000000081526004016104b39061088f565b60405180910390fd5b6104c5816105d4565b50565b600280546104d5906109d8565b80601f0160208091040260200160405190810160405280929190818152602001828054610501906109d8565b801561054e5780601f106105235761010080835404028352916020019161054e565b820191906000526020600020905b81548152906001019060200180831161053157829003601f168201915b505050505081565b61055e610698565b73ffffffffffffffffffffffffffffffffffffffff1661057c6103ef565b73ffffffffffffffffffffffffffffffffffffffff16146105d2576040517f08c379a00000000000000000000000000000000000000000000000000000000081526004016105c9906108af565b60405180910390fd5b565b60008060009054906101000a900473ffffffffffffffffffffffffffffffffffffffff169050816000806101000a81548173ffffffffffffffffffffffffffffffffffffffff021916908373ffffffffffffffffffffffffffffffffffffffff1602179055508173ffffffffffffffffffffffffffffffffffffffff168173ffffffffffffffffffffffffffffffffffffffff167f8be0079c531659141344cd1fd0a4f28419497f9722a3daafe3b4186f6b6457e060405160405180910390a35050565b600033905090565b6000813590506106af81610a4a565b92915050565b6000813590506106c481610a61565b92915050565b6000602082840312156106dc57600080fd5b60006106ea848285016106a0565b91505092915050565b60006020828403121561070557600080fd5b6000610713848285016106b5565b91505092915050565b6107258161095d565b82525050565b6107348161094b565b82525050565b6107438161096f565b82525050565b60006107548261092f565b61075e818561093a565b935061076e8185602086016109a5565b61077781610a39565b840191505092915050565b600061078f60268361093a565b91507f4f776e61626c653a206e6577206f776e657220697320746865207a65726f206160008301527f64647265737300000000000000000000000000000000000000000000000000006020830152604082019050919050565b60006107f560208361093a565b91507f4f776e61626c653a2063616c6c6572206973206e6f7420746865206f776e65726000830152602082019050919050565b6108318161099b565b82525050565b600060208201905061084c600083018461072b565b92915050565b6000602082019050610867600083018461071c565b92915050565b600060208201905081810360008301526108878184610749565b905092915050565b600060208201905081810360008301526108a881610782565b9050919050565b600060208201905081810360008301526108c8816107e8565b9050919050565b60006020820190506108e46000830184610828565b92915050565b60006080820190506108ff6000830187610828565b61090c602083018661072b565b6109196040830185610828565b610926606083018461073a565b95945050505050565b600081519050919050565b600082825260208201905092915050565b60006109568261097b565b9050919050565b60006109688261097b565b9050919050565b60008115159050919050565b600073ffffffffffffffffffffffffffffffffffffffff82169050919050565b6000819050919050565b60005b838110156109c35780820151818401526020810190506109a8565b838111156109d2576000848401525b50505050565b600060028204905060018216806109f057607f821691505b60208210811415610a0457610a03610a0a565b5b50919050565b7f4e487b7100000000000000000000000000000000000000000000000000000000600052602260045260246000fd5b6000601f19601f8301169050919050565b610a538161094b565b8114610a5e57600080fd5b50565b610a6a8161099b565b8114610a7557600080fd5b5056fea264697066735822122064e62b3bd7fec3830ea63f88382f91d5726b7134311322e1e5a78c1933fec32764736f6c63430008000033",
  "immutableReferences": {},
  "source": "// SPDX-License-Identifier: MIT\npragma solidity ^0.8.0;\n\nimport '@openzeppelin/contracts/access/Ownable.sol';\nimport '@openzeppelin/contracts/utils/math/SafeMath.sol';\n\n// import \"./AccountRegistration.sol\";\nimport \"./Fundraiser.sol\";\nimport \"./CampaignManagement.sol\";\n\n\n\ncontract Allocation is Ownable {\n    \n    \n    string public name;\n    string public image;\n    string public description;\n    address payable public NGO;  \n    address payable public beneficiary;\n    uint256 public goalAmount;\n    uint256 public totalDonations;\n    uint256 public donationsCount;\n\n   Fundraiser private project;\n    using SafeMath for uint256;\n\n     struct Request {\n        uint256 projectId;\n        address beneficiary;\n        uint256 amountRequested;\n        bool isApproved;\n    }\n\n    Request[] public requests;\n\n    // constructor(address _accountRegistry, address _projectManagement) {\n    //     // accountRegistry = AccountRegistration(_accountRegistry);\n    //     project = Fundraiser\n    // }\n\n\n\n    \n}",
  "sourcePath": "/Users/erickchandra/Documents/code/DApp/contracts/Allocation.sol",
  "compiler": {
    "name": "solc",
    "version": "0.8.0+commit.c7dfd78e.Emscripten.clang"
  },
  "schemaVersion": "3.4.16",
  "updatedAt": "2023-11-19T13:29:25.063Z",
  "devdoc": {
    "kind": "dev",
    "methods": {
      "owner()": {
        "details": "Returns the address of the current owner."
      },
      "renounceOwnership()": {
        "details": "Leaves the contract without owner. It will not be possible to call `onlyOwner` functions anymore. Can only be called by the current owner. NOTE: Renouncing ownership will leave the contract without an owner, thereby removing any functionality that is only available to the owner."
      },
      "transferOwnership(address)": {
        "details": "Transfers ownership of the contract to a new account (`newOwner`). Can only be called by the current owner."
      }
    },
    "version": 1
  },
  "userdoc": {
    "kind": "user",
    "methods": {},
    "version": 1
  }
}