{
  "contractName": "Allocation",
  "abi": [
    {
      "inputs": [
        {
          "internalType": "string",
          "name": "_projectName",
          "type": "string"
        },
        {
          "internalType": "address",
          "name": "_projectHashId",
          "type": "address"
        },
        {
          "internalType": "address payable",
          "name": "_beneficiary",
          "type": "address"
        },
        {
          "internalType": "address payable",
          "name": "_NGO",
          "type": "address"
        },
        {
          "internalType": "uint256",
          "name": "_amountNeeded",
          "type": "uint256"
        },
        {
          "internalType": "string",
          "name": "_explanation",
          "type": "string"
        }
      ],
      "stateMutability": "nonpayable",
      "type": "constructor"
    },
    {
      "anonymous": false,
      "inputs": [
        {
          "indexed": true,
          "internalType": "address",
          "name": "previousOwner",
          "type": "address"
        },
        {
          "indexed": true,
          "internalType": "address",
          "name": "newOwner",
          "type": "address"
        }
      ],
      "name": "OwnershipTransferred",
      "type": "event"
    },
    {
      "anonymous": false,
      "inputs": [
        {
          "indexed": false,
          "internalType": "address",
          "name": "beneficiary",
          "type": "address"
        },
        {
          "indexed": false,
          "internalType": "address",
          "name": "NGO",
          "type": "address"
        },
        {
          "indexed": false,
          "internalType": "uint256",
          "name": "value",
          "type": "uint256"
        }
      ],
      "name": "RequestAllocated",
      "type": "event"
    },
    {
      "anonymous": false,
      "inputs": [
        {
          "indexed": false,
          "internalType": "address",
          "name": "beneficiary",
          "type": "address"
        },
        {
          "indexed": false,
          "internalType": "address",
          "name": "NGO",
          "type": "address"
        },
        {
          "indexed": false,
          "internalType": "uint256",
          "name": "value",
          "type": "uint256"
        }
      ],
      "name": "RequestInitiated",
      "type": "event"
    },
    {
      "inputs": [],
      "name": "NGO",
      "outputs": [
        {
          "internalType": "address payable",
          "name": "",
          "type": "address"
        }
      ],
      "stateMutability": "view",
      "type": "function"
    },
    {
      "inputs": [
        {
          "internalType": "uint256",
          "name": "",
          "type": "uint256"
        }
      ],
      "name": "_requests",
      "outputs": [
        {
          "internalType": "string",
          "name": "projectName",
          "type": "string"
        },
        {
          "internalType": "address",
          "name": "projectHashId",
          "type": "address"
        },
        {
          "internalType": "address payable",
          "name": "NGO",
          "type": "address"
        },
        {
          "internalType": "address payable",
          "name": "beneficiary",
          "type": "address"
        },
        {
          "internalType": "uint256",
          "name": "amountNeeded",
          "type": "uint256"
        },
        {
          "internalType": "string",
          "name": "explanation",
          "type": "string"
        },
        {
          "internalType": "bool",
          "name": "isApproved",
          "type": "bool"
        },
        {
          "internalType": "bool",
          "name": "isTransferred",
          "type": "bool"
        }
      ],
      "stateMutability": "view",
      "type": "function"
    },
    {
      "inputs": [],
      "name": "beneficiary",
      "outputs": [
        {
          "internalType": "address payable",
          "name": "",
          "type": "address"
        }
      ],
      "stateMutability": "view",
      "type": "function"
    },
    {
      "inputs": [],
      "name": "goalAmount",
      "outputs": [
        {
          "internalType": "uint256",
          "name": "",
          "type": "uint256"
        }
      ],
      "stateMutability": "view",
      "type": "function"
    },
    {
      "inputs": [],
      "name": "owner",
      "outputs": [
        {
          "internalType": "address",
          "name": "",
          "type": "address"
        }
      ],
      "stateMutability": "view",
      "type": "function"
    },
    {
      "inputs": [],
      "name": "renounceOwnership",
      "outputs": [],
      "stateMutability": "nonpayable",
      "type": "function"
    },
    {
      "inputs": [
        {
          "internalType": "address",
          "name": "newOwner",
          "type": "address"
        }
      ],
      "name": "transferOwnership",
      "outputs": [],
      "stateMutability": "nonpayable",
      "type": "function"
    },
    {
      "stateMutability": "payable",
      "type": "receive"
    },
    {
      "inputs": [
        {
          "internalType": "address payable",
          "name": "_beneficiary",
          "type": "address"
        }
      ],
      "name": "setBeneficiary",
      "outputs": [],
      "stateMutability": "nonpayable",
      "type": "function"
    },
    {
      "inputs": [],
      "name": "myRequestsCount",
      "outputs": [
        {
          "internalType": "uint256",
          "name": "",
          "type": "uint256"
        }
      ],
      "stateMutability": "view",
      "type": "function"
    },
    {
      "inputs": [
        {
          "internalType": "string",
          "name": "_projectName",
          "type": "string"
        },
        {
          "internalType": "address",
          "name": "_projectHashId",
          "type": "address"
        },
        {
          "internalType": "address payable",
          "name": "_beneficiary",
          "type": "address"
        },
        {
          "internalType": "address payable",
          "name": "_NGO",
          "type": "address"
        },
        {
          "internalType": "uint256",
          "name": "_amountNeeded",
          "type": "uint256"
        },
        {
          "internalType": "string",
          "name": "_explanation",
          "type": "string"
        }
      ],
      "name": "createRequest",
      "outputs": [],
      "stateMutability": "nonpayable",
      "type": "function"
    },
    {
      "inputs": [
        {
          "internalType": "uint256",
          "name": "requestIndex",
          "type": "uint256"
        }
      ],
      "name": "transferAllocation",
      "outputs": [],
      "stateMutability": "payable",
      "type": "function"
    },
    {
      "inputs": [],
      "name": "getAllRequests",
      "outputs": [
        {
          "components": [
            {
              "internalType": "string",
              "name": "projectName",
              "type": "string"
            },
            {
              "internalType": "address",
              "name": "projectHashId",
              "type": "address"
            },
            {
              "internalType": "address payable",
              "name": "NGO",
              "type": "address"
            },
            {
              "internalType": "address payable",
              "name": "beneficiary",
              "type": "address"
            },
            {
              "internalType": "uint256",
              "name": "amountNeeded",
              "type": "uint256"
            },
            {
              "internalType": "string",
              "name": "explanation",
              "type": "string"
            },
            {
              "internalType": "bool",
              "name": "isApproved",
              "type": "bool"
            },
            {
              "internalType": "bool",
              "name": "isTransferred",
              "type": "bool"
            }
          ],
          "internalType": "struct Allocation.Request[]",
          "name": "",
          "type": "tuple[]"
        }
      ],
      "stateMutability": "view",
      "type": "function"
    }
  ],
  "bytecode": "0x60806040523480156200001157600080fd5b506040516200212638038062002126833981810160405281019062000037919062000392565b620000576200004b6200015f60201b60201c565b6200016760201b60201c565b85600290805190602001906200006f9291906200022b565b5084600360006101000a81548173ffffffffffffffffffffffffffffffffffffffff021916908373ffffffffffffffffffffffffffffffffffffffff16021790555083600460006101000a81548173ffffffffffffffffffffffffffffffffffffffff021916908373ffffffffffffffffffffffffffffffffffffffff16021790555082600560006101000a81548173ffffffffffffffffffffffffffffffffffffffff021916908373ffffffffffffffffffffffffffffffffffffffff160217905550816007819055508060089080519060200190620001529291906200022b565b505050505050506200062b565b600033905090565b60008060009054906101000a900473ffffffffffffffffffffffffffffffffffffffff169050816000806101000a81548173ffffffffffffffffffffffffffffffffffffffff021916908373ffffffffffffffffffffffffffffffffffffffff1602179055508173ffffffffffffffffffffffffffffffffffffffff168173ffffffffffffffffffffffffffffffffffffffff167f8be0079c531659141344cd1fd0a4f28419497f9722a3daafe3b4186f6b6457e060405160405180910390a35050565b828054620002399062000549565b90600052602060002090601f0160209004810192826200025d5760008555620002a9565b82601f106200027857805160ff1916838001178555620002a9565b82800160010185558215620002a9579182015b82811115620002a85782518255916020019190600101906200028b565b5b509050620002b89190620002bc565b5090565b5b80821115620002d7576000816000905550600101620002bd565b5090565b6000620002f2620002ec846200048e565b6200045a565b9050828152602081018484840111156200030b57600080fd5b6200031884828562000513565b509392505050565b6000815190506200033181620005dd565b92915050565b6000815190506200034881620005f7565b92915050565b600082601f8301126200036057600080fd5b815162000372848260208601620002db565b91505092915050565b6000815190506200038c8162000611565b92915050565b60008060008060008060c08789031215620003ac57600080fd5b600087015167ffffffffffffffff811115620003c757600080fd5b620003d589828a016200034e565b9650506020620003e889828a0162000320565b9550506040620003fb89828a0162000337565b94505060606200040e89828a0162000337565b93505060806200042189828a016200037b565b92505060a087015167ffffffffffffffff8111156200043f57600080fd5b6200044d89828a016200034e565b9150509295509295509295565b6000604051905081810181811067ffffffffffffffff82111715620004845762000483620005ae565b5b8060405250919050565b600067ffffffffffffffff821115620004ac57620004ab620005ae565b5b601f19601f8301169050602081019050919050565b6000620004ce82620004e9565b9050919050565b6000620004e282620004e9565b9050919050565b600073ffffffffffffffffffffffffffffffffffffffff82169050919050565b6000819050919050565b60005b838110156200053357808201518184015260208101905062000516565b8381111562000543576000848401525b50505050565b600060028204905060018216806200056257607f821691505b602082108114156200057957620005786200057f565b5b50919050565b7f4e487b7100000000000000000000000000000000000000000000000000000000600052602260045260246000fd5b7f4e487b7100000000000000000000000000000000000000000000000000000000600052604160045260246000fd5b620005e881620004c1565b8114620005f457600080fd5b50565b6200060281620004d5565b81146200060e57600080fd5b50565b6200061c8162000509565b81146200062857600080fd5b50565b611aeb806200063b6000396000f3fe6080604052600436106100ab5760003560e01c80638da5cb5b116100645780638da5cb5b14610192578063937d7f11146101bd578063bff60c0f146101e8578063e92934b81461022c578063f2fde38b14610257578063fb1a002a14610280576100b2565b80631c31f710146100b75780632636b945146100e057806338af3eed1461010b5780635cf1495b146101365780636cae018f14610152578063715018a61461017b576100b2565b366100b257005b600080fd5b3480156100c357600080fd5b506100de60048036038101906100d99190611130565b6102ab565b005b3480156100ec57600080fd5b506100f56102f7565b604051610102919061181b565b60405180910390f35b34801561011757600080fd5b506101206102fd565b60405161012d919061165b565b60405180910390f35b610150600480360381019061014b9190611212565b610323565b005b34801561015e57600080fd5b5061017960048036038101906101749190611159565b610686565b005b34801561018757600080fd5b506101906108d7565b005b34801561019e57600080fd5b506101a76108eb565b6040516101b49190611640565b60405180910390f35b3480156101c957600080fd5b506101d2610914565b6040516101df919061165b565b60405180910390f35b3480156101f457600080fd5b5061020f600480360381019061020a9190611212565b61093a565b6040516102239897969594939291906116cf565b60405180910390f35b34801561023857600080fd5b50610241610b1c565b60405161024e919061181b565b60405180910390f35b34801561026357600080fd5b5061027e60048036038101906102799190611107565b610b29565b005b34801561028c57600080fd5b50610295610bad565b6040516102a291906116ad565b60405180910390f35b6102b3610e73565b80600460006101000a81548173ffffffffffffffffffffffffffffffffffffffff021916908373ffffffffffffffffffffffffffffffffffffffff16021790555050565b60065481565b600460009054906101000a900473ffffffffffffffffffffffffffffffffffffffff1681565b600180549050811061036a576040517f08c379a0000000000000000000000000000000000000000000000000000000008152600401610361906117db565b60405180910390fd5b600181815481106103a4577f4e487b7100000000000000000000000000000000000000000000000000000000600052603260045260246000fd5b906000526020600020906007020160060160019054906101000a900460ff1615610403576040517f08c379a00000000000000000000000000000000000000000000000000000000081526004016103fa9061177b565b60405180910390fd5b6001818154811061043d577f4e487b7100000000000000000000000000000000000000000000000000000000600052603260045260246000fd5b906000526020600020906007020160020160009054906101000a900473ffffffffffffffffffffffffffffffffffffffff1673ffffffffffffffffffffffffffffffffffffffff163373ffffffffffffffffffffffffffffffffffffffff16146104dc576040517f08c379a00000000000000000000000000000000000000000000000000000000081526004016104d39061179b565b60405180910390fd5b600060018281548110610518577f4e487b7100000000000000000000000000000000000000000000000000000000600052603260045260246000fd5b90600052602060002090600702019050806004015447101561056f576040517f08c379a00000000000000000000000000000000000000000000000000000000081526004016105669061175b565b60405180910390fd5b8060030160009054906101000a900473ffffffffffffffffffffffffffffffffffffffff1673ffffffffffffffffffffffffffffffffffffffff166108fc82600401549081150290604051600060405180830381858888f193505050501580156105dd573d6000803e3d6000fd5b5060018160060160016101000a81548160ff0219169083151502179055507fa4fba2597f136d02a9df7b6c5f55e4276a9f4571bc145308a2e36eeed8c4f5468160030160009054906101000a900473ffffffffffffffffffffffffffffffffffffffff168260020160009054906101000a900473ffffffffffffffffffffffffffffffffffffffff16836004015460405161067a93929190611676565b60405180910390a15050565b60006040518061010001604052808881526020018773ffffffffffffffffffffffffffffffffffffffff1681526020018573ffffffffffffffffffffffffffffffffffffffff1681526020018673ffffffffffffffffffffffffffffffffffffffff16815260200184815260200183815260200160001515815260200160001515815250905060018190806001815401808255809150506001900390600052602060002090600702016000909190919091506000820151816000019080519060200190610754929190610fbd565b5060208201518160010160006101000a81548173ffffffffffffffffffffffffffffffffffffffff021916908373ffffffffffffffffffffffffffffffffffffffff16021790555060408201518160020160006101000a81548173ffffffffffffffffffffffffffffffffffffffff021916908373ffffffffffffffffffffffffffffffffffffffff16021790555060608201518160030160006101000a81548173ffffffffffffffffffffffffffffffffffffffff021916908373ffffffffffffffffffffffffffffffffffffffff1602179055506080820151816004015560a0820151816005019080519060200190610850929190610fbd565b5060c08201518160060160006101000a81548160ff02191690831515021790555060e08201518160060160016101000a81548160ff02191690831515021790555050507ff0351302f15ff3cbb7a96579ce47a592299be818efd60d9cb9323aeeb5d473a48585856040516108c693929190611676565b60405180910390a150505050505050565b6108df610e73565b6108e96000610ef1565b565b60008060009054906101000a900473ffffffffffffffffffffffffffffffffffffffff16905090565b600560009054906101000a900473ffffffffffffffffffffffffffffffffffffffff1681565b6001818154811061094a57600080fd5b906000526020600020906007020160009150905080600001805461096d906119cf565b80601f0160208091040260200160405190810160405280929190818152602001828054610999906119cf565b80156109e65780601f106109bb576101008083540402835291602001916109e6565b820191906000526020600020905b8154815290600101906020018083116109c957829003601f168201915b5050505050908060010160009054906101000a900473ffffffffffffffffffffffffffffffffffffffff16908060020160009054906101000a900473ffffffffffffffffffffffffffffffffffffffff16908060030160009054906101000a900473ffffffffffffffffffffffffffffffffffffffff1690806004015490806005018054610a73906119cf565b80601f0160208091040260200160405190810160405280929190818152602001828054610a9f906119cf565b8015610aec5780601f10610ac157610100808354040283529160200191610aec565b820191906000526020600020905b815481529060010190602001808311610acf57829003601f168201915b5050505050908060060160009054906101000a900460ff16908060060160019054906101000a900460ff16905088565b6000600180549050905090565b610b31610e73565b600073ffffffffffffffffffffffffffffffffffffffff168173ffffffffffffffffffffffffffffffffffffffff161415610ba1576040517f08c379a0000000000000000000000000000000000000000000000000000000008152600401610b98906117bb565b60405180910390fd5b610baa81610ef1565b50565b60606001805480602002602001604051908101604052809291908181526020016000905b82821015610e6a578382906000526020600020906007020160405180610100016040529081600082018054610c05906119cf565b80601f0160208091040260200160405190810160405280929190818152602001828054610c31906119cf565b8015610c7e5780601f10610c5357610100808354040283529160200191610c7e565b820191906000526020600020905b815481529060010190602001808311610c6157829003601f168201915b505050505081526020016001820160009054906101000a900473ffffffffffffffffffffffffffffffffffffffff1673ffffffffffffffffffffffffffffffffffffffff1673ffffffffffffffffffffffffffffffffffffffff1681526020016002820160009054906101000a900473ffffffffffffffffffffffffffffffffffffffff1673ffffffffffffffffffffffffffffffffffffffff1673ffffffffffffffffffffffffffffffffffffffff1681526020016003820160009054906101000a900473ffffffffffffffffffffffffffffffffffffffff1673ffffffffffffffffffffffffffffffffffffffff1673ffffffffffffffffffffffffffffffffffffffff16815260200160048201548152602001600582018054610da3906119cf565b80601f0160208091040260200160405190810160405280929190818152602001828054610dcf906119cf565b8015610e1c5780601f10610df157610100808354040283529160200191610e1c565b820191906000526020600020905b815481529060010190602001808311610dff57829003601f168201915b505050505081526020016006820160009054906101000a900460ff161515151581526020016006820160019054906101000a900460ff16151515158152505081526020019060010190610bd1565b50505050905090565b610e7b610fb5565b73ffffffffffffffffffffffffffffffffffffffff16610e996108eb565b73ffffffffffffffffffffffffffffffffffffffff1614610eef576040517f08c379a0000000000000000000000000000000000000000000000000000000008152600401610ee6906117fb565b60405180910390fd5b565b60008060009054906101000a900473ffffffffffffffffffffffffffffffffffffffff169050816000806101000a81548173ffffffffffffffffffffffffffffffffffffffff021916908373ffffffffffffffffffffffffffffffffffffffff1602179055508173ffffffffffffffffffffffffffffffffffffffff168173ffffffffffffffffffffffffffffffffffffffff167f8be0079c531659141344cd1fd0a4f28419497f9722a3daafe3b4186f6b6457e060405160405180910390a35050565b600033905090565b828054610fc9906119cf565b90600052602060002090601f016020900481019282610feb5760008555611032565b82601f1061100457805160ff1916838001178555611032565b82800160010185558215611032579182015b82811115611031578251825591602001919060010190611016565b5b50905061103f9190611043565b5090565b5b8082111561105c576000816000905550600101611044565b5090565b600061107361106e84611867565b611836565b90508281526020810184848401111561108b57600080fd5b61109684828561198d565b509392505050565b6000813590506110ad81611a70565b92915050565b6000813590506110c281611a87565b92915050565b600082601f8301126110d957600080fd5b81356110e9848260208601611060565b91505092915050565b60008135905061110181611a9e565b92915050565b60006020828403121561111957600080fd5b60006111278482850161109e565b91505092915050565b60006020828403121561114257600080fd5b6000611150848285016110b3565b91505092915050565b60008060008060008060c0878903121561117257600080fd5b600087013567ffffffffffffffff81111561118c57600080fd5b61119889828a016110c8565b96505060206111a989828a0161109e565b95505060406111ba89828a016110b3565b94505060606111cb89828a016110b3565b93505060806111dc89828a016110f2565b92505060a087013567ffffffffffffffff8111156111f957600080fd5b61120589828a016110c8565b9150509295509295509295565b60006020828403121561122457600080fd5b6000611232848285016110f2565b91505092915050565b6000611247838361156b565b905092915050565b61125881611957565b82525050565b6112678161190f565b82525050565b6112768161190f565b82525050565b611285816118fd565b82525050565b611294816118fd565b82525050565b60006112a5826118a7565b6112af81856118ca565b9350836020820285016112c185611897565b8060005b858110156112fd57848403895281516112de858261123b565b94506112e9836118bd565b925060208a019950506001810190506112c5565b50829750879550505050505092915050565b61131881611921565b82525050565b61132781611921565b82525050565b6000611338826118b2565b61134281856118db565b935061135281856020860161199c565b61135b81611a5f565b840191505092915050565b6000611371826118b2565b61137b81856118ec565b935061138b81856020860161199c565b61139481611a5f565b840191505092915050565b60006113ac601f836118ec565b91507f496e73756666696369656e742066756e647320696e20636f6e74726163742e006000830152602082019050919050565b60006113ec601a836118ec565b91507f46756e647320616c7265616479207472616e736665727265642e0000000000006000830152602082019050919050565b600061142c6031836118ec565b91507f4f6e6c7920746865204e474f2063616e20616c6c6f636174652066756e64732060008301527f666f72207468697320726571756573742e0000000000000000000000000000006020830152604082019050919050565b60006114926026836118ec565b91507f4f776e61626c653a206e6577206f776e657220697320746865207a65726f206160008301527f64647265737300000000000000000000000000000000000000000000000000006020830152604082019050919050565b60006114f86017836118ec565b91507f5265717565737420646f6573206e6f742065786973742e0000000000000000006000830152602082019050919050565b60006115386020836118ec565b91507f4f776e61626c653a2063616c6c6572206973206e6f7420746865206f776e65726000830152602082019050919050565b6000610100830160008301518482036000860152611589828261132d565b915050602083015161159e602086018261127c565b5060408301516115b1604086018261125e565b5060608301516115c4606086018261125e565b5060808301516115d76080860182611622565b5060a083015184820360a08601526115ef828261132d565b91505060c083015161160460c086018261130f565b5060e083015161161760e086018261130f565b508091505092915050565b61162b8161194d565b82525050565b61163a8161194d565b82525050565b6000602082019050611655600083018461128b565b92915050565b6000602082019050611670600083018461126d565b92915050565b600060608201905061168b600083018661124f565b611698602083018561124f565b6116a56040830184611631565b949350505050565b600060208201905081810360008301526116c7818461129a565b905092915050565b60006101008201905081810360008301526116ea818b611366565b90506116f9602083018a61128b565b611706604083018961126d565b611713606083018861126d565b6117206080830187611631565b81810360a08301526117328186611366565b905061174160c083018561131e565b61174e60e083018461131e565b9998505050505050505050565b600060208201905081810360008301526117748161139f565b9050919050565b60006020820190508181036000830152611794816113df565b9050919050565b600060208201905081810360008301526117b48161141f565b9050919050565b600060208201905081810360008301526117d481611485565b9050919050565b600060208201905081810360008301526117f4816114eb565b9050919050565b600060208201905081810360008301526118148161152b565b9050919050565b60006020820190506118306000830184611631565b92915050565b6000604051905081810181811067ffffffffffffffff8211171561185d5761185c611a30565b5b8060405250919050565b600067ffffffffffffffff82111561188257611881611a30565b5b601f19601f8301169050602081019050919050565b6000819050602082019050919050565b600081519050919050565b600081519050919050565b6000602082019050919050565b600082825260208201905092915050565b600082825260208201905092915050565b600082825260208201905092915050565b60006119088261192d565b9050919050565b600061191a8261192d565b9050919050565b60008115159050919050565b600073ffffffffffffffffffffffffffffffffffffffff82169050919050565b6000819050919050565b600061196282611969565b9050919050565b60006119748261197b565b9050919050565b60006119868261192d565b9050919050565b82818337600083830152505050565b60005b838110156119ba57808201518184015260208101905061199f565b838111156119c9576000848401525b50505050565b600060028204905060018216806119e757607f821691505b602082108114156119fb576119fa611a01565b5b50919050565b7f4e487b7100000000000000000000000000000000000000000000000000000000600052602260045260246000fd5b7f4e487b7100000000000000000000000000000000000000000000000000000000600052604160045260246000fd5b6000601f19601f8301169050919050565b611a79816118fd565b8114611a8457600080fd5b50565b611a908161190f565b8114611a9b57600080fd5b50565b611aa78161194d565b8114611ab257600080fd5b5056fea2646970667358221220296ffb740d08e0b71e1cf85a5ba1dae97f8fc9cf5a2942c2a5aac00384a539ab64736f6c63430008000033",
  "immutableReferences": {},
  "source": "// SPDX-License-Identifier: MIT\npragma solidity ^0.8.0;\n\nimport '@openzeppelin/contracts/access/Ownable.sol';\nimport '@openzeppelin/contracts/utils/math/SafeMath.sol';\n// import './CampaignManager.sol';\n\ncontract Allocation is Ownable {\n  using SafeMath for uint256;\n\n  struct Request {\n        string projectName;\n        address projectHashId;\n        address payable NGO;\n        address payable beneficiary;\n        uint256 amountNeeded;\n        string explanation;\n        bool isApproved;\n        bool isTransferred;\n    }\n  Request[] public _requests;\n  \n\n//   event DonationReceived(address indexed donor, uint256 value);\n  event RequestInitiated(address beneficiary,address NGO, uint256 value);\n  event RequestAllocated(address beneficiary,address NGO, uint256 value);\n\n  string projectName;\n  address projectHashId;\n  address payable public beneficiary;\n  address payable public NGO;\n  uint256 public goalAmount;\n  uint256 amountNeeded;\n  string explanation;\n  bool isApproved;\n  bool isTransferred;\n\n\n constructor(\n    string memory _projectName,\n    address _projectHashId,\n    address payable  _beneficiary,\n    address payable  _NGO,\n    uint256 _amountNeeded,\n    string memory _explanation\n    // {info} see if i need custodian thing\n    // address _custodian\n  ) \n  public {\n    projectName= _projectName;\n    projectHashId= _projectHashId;\n    beneficiary=  _beneficiary;\n    NGO=  _NGO;\n    amountNeeded =  _amountNeeded;\n    explanation = _explanation;\n    // _transferOwnership(_custodian);\n  }\n\n  function setBeneficiary(address payable _beneficiary) public onlyOwner {\n    beneficiary = _beneficiary;\n  }\n   function myRequestsCount() public view returns (uint256) {\n    return _requests.length;\n  }\n  function createRequest(\n        string memory _projectName,\n        address _projectHashId,\n        address payable _beneficiary,\n        address payable _NGO,\n        uint256 _amountNeeded,\n        string memory _explanation\n    ) public {\n        Request memory newRequest = Request({\n            projectName: _projectName,\n            projectHashId: _projectHashId,\n            NGO: _NGO,\n            beneficiary: _beneficiary,\n            amountNeeded: _amountNeeded,\n            explanation: _explanation,\n            isApproved: false,  // assuming default is not approved\n            isTransferred: false  // assuming default is not transferred\n        });\n\n        _requests.push(newRequest);\n        // wtf myRequestsCount++;\n        emit RequestInitiated(_beneficiary,_NGO, _amountNeeded);\n  \n    }\n\n\nfunction transferAllocation(uint256 requestIndex) public payable {\n        // Ensure the request exists and the transfer has not already occurred\n        require(requestIndex < _requests.length, \"Request does not exist.\");\n        require(!_requests[requestIndex].isTransferred, \"Funds already transferred.\");\n\n        // Ensure the caller is the NGO associated with the request\n        require(msg.sender == _requests[requestIndex].NGO, \"Only the NGO can allocate funds for this request.\");\n\n        // Ensure there are enough funds in the contract\n        Request storage curRequest = _requests[requestIndex];\n        require(address(this).balance >= curRequest.amountNeeded, \"Insufficient funds in contract.\");\n\n        // Transfer funds to the beneficiary this is their account\n        curRequest.beneficiary.transfer(curRequest.amountNeeded);\n\n        // Update the request as transferred\n        curRequest.isTransferred = true;\n        emit RequestAllocated(curRequest.beneficiary,curRequest.NGO, curRequest.amountNeeded);\n  \n    }\n\n function getAllRequests() public view returns (Request[] memory) {\n        return _requests;\n    }\n\n\n//   function withdraw() public onlyOwner {\n//       uint256 balance = address(this).balance;\n//       beneficiary.transfer(balance);\n//       emit Withdraw(balance);\n//   }\n\n   receive() external payable {}\n\n}",
  "sourcePath": "/Users/erickchandra/Documents/code/DApp/contracts/Allocation.sol",
  "compiler": {
    "name": "solc",
    "version": "0.8.0+commit.c7dfd78e.Emscripten.clang"
  },
  "schemaVersion": "3.4.16",
  "updatedAt": "2023-11-21T12:38:21.441Z",
  "devdoc": {
    "kind": "dev",
    "methods": {
      "owner()": {
        "details": "Returns the address of the current owner."
      },
      "renounceOwnership()": {
        "details": "Leaves the contract without owner. It will not be possible to call `onlyOwner` functions anymore. Can only be called by the current owner. NOTE: Renouncing ownership will leave the contract without an owner, thereby removing any functionality that is only available to the owner."
      },
      "transferOwnership(address)": {
        "details": "Transfers ownership of the contract to a new account (`newOwner`). Can only be called by the current owner."
      }
    },
    "version": 1
  },
  "userdoc": {
    "kind": "user",
    "methods": {},
    "version": 1
  }
}