{
  "contractName": "Allocation",
  "abi": [
    {
      "inputs": [
        {
          "internalType": "string",
          "name": "_projectName",
          "type": "string"
        },
        {
          "internalType": "string",
          "name": "_projectHashId",
          "type": "string"
        },
        {
          "internalType": "address payable",
          "name": "_beneficiary",
          "type": "address"
        },
        {
          "internalType": "address payable",
          "name": "_NGO",
          "type": "address"
        },
        {
          "internalType": "uint256",
          "name": "_amountNeeded",
          "type": "uint256"
        },
        {
          "internalType": "string",
          "name": "_explanation",
          "type": "string"
        }
      ],
      "stateMutability": "nonpayable",
      "type": "constructor"
    },
    {
      "anonymous": false,
      "inputs": [
        {
          "indexed": true,
          "internalType": "address",
          "name": "previousOwner",
          "type": "address"
        },
        {
          "indexed": true,
          "internalType": "address",
          "name": "newOwner",
          "type": "address"
        }
      ],
      "name": "OwnershipTransferred",
      "type": "event"
    },
    {
      "anonymous": false,
      "inputs": [
        {
          "indexed": false,
          "internalType": "address",
          "name": "beneficiary",
          "type": "address"
        },
        {
          "indexed": false,
          "internalType": "address",
          "name": "NGO",
          "type": "address"
        },
        {
          "indexed": false,
          "internalType": "uint256",
          "name": "value",
          "type": "uint256"
        }
      ],
      "name": "RequestAllocated",
      "type": "event"
    },
    {
      "anonymous": false,
      "inputs": [
        {
          "indexed": false,
          "internalType": "address",
          "name": "beneficiary",
          "type": "address"
        },
        {
          "indexed": false,
          "internalType": "address",
          "name": "NGO",
          "type": "address"
        },
        {
          "indexed": false,
          "internalType": "uint256",
          "name": "value",
          "type": "uint256"
        }
      ],
      "name": "RequestInitiated",
      "type": "event"
    },
    {
      "inputs": [],
      "name": "NGO",
      "outputs": [
        {
          "internalType": "address payable",
          "name": "",
          "type": "address"
        }
      ],
      "stateMutability": "view",
      "type": "function"
    },
    {
      "inputs": [
        {
          "internalType": "uint256",
          "name": "",
          "type": "uint256"
        }
      ],
      "name": "_requests",
      "outputs": [
        {
          "internalType": "string",
          "name": "projectName",
          "type": "string"
        },
        {
          "internalType": "string",
          "name": "projectHashId",
          "type": "string"
        },
        {
          "internalType": "address payable",
          "name": "NGO",
          "type": "address"
        },
        {
          "internalType": "address payable",
          "name": "beneficiary",
          "type": "address"
        },
        {
          "internalType": "uint256",
          "name": "amountNeeded",
          "type": "uint256"
        },
        {
          "internalType": "string",
          "name": "explanation",
          "type": "string"
        },
        {
          "internalType": "bool",
          "name": "isApproved",
          "type": "bool"
        },
        {
          "internalType": "bool",
          "name": "isTransferred",
          "type": "bool"
        }
      ],
      "stateMutability": "view",
      "type": "function"
    },
    {
      "inputs": [],
      "name": "beneficiary",
      "outputs": [
        {
          "internalType": "address payable",
          "name": "",
          "type": "address"
        }
      ],
      "stateMutability": "view",
      "type": "function"
    },
    {
      "inputs": [],
      "name": "goalAmount",
      "outputs": [
        {
          "internalType": "uint256",
          "name": "",
          "type": "uint256"
        }
      ],
      "stateMutability": "view",
      "type": "function"
    },
    {
      "inputs": [],
      "name": "owner",
      "outputs": [
        {
          "internalType": "address",
          "name": "",
          "type": "address"
        }
      ],
      "stateMutability": "view",
      "type": "function"
    },
    {
      "inputs": [],
      "name": "renounceOwnership",
      "outputs": [],
      "stateMutability": "nonpayable",
      "type": "function"
    },
    {
      "inputs": [
        {
          "internalType": "address",
          "name": "newOwner",
          "type": "address"
        }
      ],
      "name": "transferOwnership",
      "outputs": [],
      "stateMutability": "nonpayable",
      "type": "function"
    },
    {
      "stateMutability": "payable",
      "type": "receive"
    },
    {
      "inputs": [
        {
          "internalType": "address payable",
          "name": "_beneficiary",
          "type": "address"
        }
      ],
      "name": "setBeneficiary",
      "outputs": [],
      "stateMutability": "nonpayable",
      "type": "function"
    },
    {
      "inputs": [],
      "name": "myRequestsCount",
      "outputs": [
        {
          "internalType": "uint256",
          "name": "",
          "type": "uint256"
        }
      ],
      "stateMutability": "view",
      "type": "function"
    },
    {
      "inputs": [
        {
          "internalType": "string",
          "name": "_projectName",
          "type": "string"
        },
        {
          "internalType": "string",
          "name": "_projectHashId",
          "type": "string"
        },
        {
          "internalType": "address payable",
          "name": "_beneficiary",
          "type": "address"
        },
        {
          "internalType": "address payable",
          "name": "_NGO",
          "type": "address"
        },
        {
          "internalType": "uint256",
          "name": "_amountNeeded",
          "type": "uint256"
        },
        {
          "internalType": "string",
          "name": "_explanation",
          "type": "string"
        }
      ],
      "name": "createRequest",
      "outputs": [],
      "stateMutability": "nonpayable",
      "type": "function"
    },
    {
      "inputs": [
        {
          "internalType": "uint256",
          "name": "requestIndex",
          "type": "uint256"
        }
      ],
      "name": "transferAllocation",
      "outputs": [],
      "stateMutability": "payable",
      "type": "function"
    },
    {
      "inputs": [],
      "name": "getAllRequests",
      "outputs": [
        {
          "components": [
            {
              "internalType": "string",
              "name": "projectName",
              "type": "string"
            },
            {
              "internalType": "string",
              "name": "projectHashId",
              "type": "string"
            },
            {
              "internalType": "address payable",
              "name": "NGO",
              "type": "address"
            },
            {
              "internalType": "address payable",
              "name": "beneficiary",
              "type": "address"
            },
            {
              "internalType": "uint256",
              "name": "amountNeeded",
              "type": "uint256"
            },
            {
              "internalType": "string",
              "name": "explanation",
              "type": "string"
            },
            {
              "internalType": "bool",
              "name": "isApproved",
              "type": "bool"
            },
            {
              "internalType": "bool",
              "name": "isTransferred",
              "type": "bool"
            }
          ],
          "internalType": "struct Allocation.Request[]",
          "name": "",
          "type": "tuple[]"
        }
      ],
      "stateMutability": "view",
      "type": "function"
    }
  ],
  "bytecode": "0x60806040523480156200001157600080fd5b506040516200214d3803806200214d833981810160405281019062000037919062000353565b620000576200004b6200013760201b60201c565b6200013f60201b60201c565b85600290805190602001906200006f92919062000203565b5084600390805190602001906200008892919062000203565b5083600460006101000a81548173ffffffffffffffffffffffffffffffffffffffff021916908373ffffffffffffffffffffffffffffffffffffffff16021790555082600560006101000a81548173ffffffffffffffffffffffffffffffffffffffff021916908373ffffffffffffffffffffffffffffffffffffffff1602179055508160078190555080600890805190602001906200012a92919062000203565b50505050505050620005d7565b600033905090565b60008060009054906101000a900473ffffffffffffffffffffffffffffffffffffffff169050816000806101000a81548173ffffffffffffffffffffffffffffffffffffffff021916908373ffffffffffffffffffffffffffffffffffffffff1602179055508173ffffffffffffffffffffffffffffffffffffffff168173ffffffffffffffffffffffffffffffffffffffff167f8be0079c531659141344cd1fd0a4f28419497f9722a3daafe3b4186f6b6457e060405160405180910390a35050565b82805462000211906200050f565b90600052602060002090601f01602090048101928262000235576000855562000281565b82601f106200025057805160ff191683800117855562000281565b8280016001018555821562000281579182015b828111156200028057825182559160200191906001019062000263565b5b50905062000290919062000294565b5090565b5b80821115620002af57600081600090555060010162000295565b5090565b6000620002ca620002c48462000468565b62000434565b905082815260208101848484011115620002e357600080fd5b620002f0848285620004d9565b509392505050565b6000815190506200030981620005a3565b92915050565b600082601f8301126200032157600080fd5b815162000333848260208601620002b3565b91505092915050565b6000815190506200034d81620005bd565b92915050565b60008060008060008060c087890312156200036d57600080fd5b600087015167ffffffffffffffff8111156200038857600080fd5b6200039689828a016200030f565b965050602087015167ffffffffffffffff811115620003b457600080fd5b620003c289828a016200030f565b9550506040620003d589828a01620002f8565b9450506060620003e889828a01620002f8565b9350506080620003fb89828a016200033c565b92505060a087015167ffffffffffffffff8111156200041957600080fd5b6200042789828a016200030f565b9150509295509295509295565b6000604051905081810181811067ffffffffffffffff821117156200045e576200045d62000574565b5b8060405250919050565b600067ffffffffffffffff82111562000486576200048562000574565b5b601f19601f8301169050602081019050919050565b6000620004a882620004af565b9050919050565b600073ffffffffffffffffffffffffffffffffffffffff82169050919050565b6000819050919050565b60005b83811015620004f9578082015181840152602081019050620004dc565b8381111562000509576000848401525b50505050565b600060028204905060018216806200052857607f821691505b602082108114156200053f576200053e62000545565b5b50919050565b7f4e487b7100000000000000000000000000000000000000000000000000000000600052602260045260246000fd5b7f4e487b7100000000000000000000000000000000000000000000000000000000600052604160045260246000fd5b620005ae816200049b565b8114620005ba57600080fd5b50565b620005c881620004cf565b8114620005d457600080fd5b50565b611b6680620005e76000396000f3fe6080604052600436106100ab5760003560e01c8063937d7f1111610064578063937d7f11146101945780639fe0203e146101bf578063bff60c0f146101e8578063e92934b81461022c578063f2fde38b14610257578063fb1a002a14610280576100b2565b80631c31f710146100b75780632636b945146100e057806338af3eed1461010b5780635cf1495b14610136578063715018a6146101525780638da5cb5b14610169576100b2565b366100b257005b600080fd5b3480156100c357600080fd5b506100de60048036038101906100d99190611194565b6102ab565b005b3480156100ec57600080fd5b506100f56102f7565b6040516101029190611896565b60405180910390f35b34801561011757600080fd5b506101206102fd565b60405161012d91906116cf565b60405180910390f35b610150600480360381019061014b919061128e565b610323565b005b34801561015e57600080fd5b50610167610686565b005b34801561017557600080fd5b5061017e61069a565b60405161018b91906116b4565b60405180910390f35b3480156101a057600080fd5b506101a96106c3565b6040516101b691906116cf565b60405180910390f35b3480156101cb57600080fd5b506101e660048036038101906101e191906111bd565b6106e9565b005b3480156101f457600080fd5b5061020f600480360381019061020a919061128e565b6108fa565b604051610223989796959493929190611743565b60405180910390f35b34801561023857600080fd5b50610241610b44565b60405161024e9190611896565b60405180910390f35b34801561026357600080fd5b5061027e6004803603810190610279919061116b565b610b51565b005b34801561028c57600080fd5b50610295610bd5565b6040516102a29190611721565b60405180910390f35b6102b3610ed7565b80600460006101000a81548173ffffffffffffffffffffffffffffffffffffffff021916908373ffffffffffffffffffffffffffffffffffffffff16021790555050565b60065481565b600460009054906101000a900473ffffffffffffffffffffffffffffffffffffffff1681565b600180549050811061036a576040517f08c379a000000000000000000000000000000000000000000000000000000000815260040161036190611856565b60405180910390fd5b600181815481106103a4577f4e487b7100000000000000000000000000000000000000000000000000000000600052603260045260246000fd5b906000526020600020906007020160060160019054906101000a900460ff1615610403576040517f08c379a00000000000000000000000000000000000000000000000000000000081526004016103fa906117f6565b60405180910390fd5b6001818154811061043d577f4e487b7100000000000000000000000000000000000000000000000000000000600052603260045260246000fd5b906000526020600020906007020160020160009054906101000a900473ffffffffffffffffffffffffffffffffffffffff1673ffffffffffffffffffffffffffffffffffffffff163373ffffffffffffffffffffffffffffffffffffffff16146104dc576040517f08c379a00000000000000000000000000000000000000000000000000000000081526004016104d390611816565b60405180910390fd5b600060018281548110610518577f4e487b7100000000000000000000000000000000000000000000000000000000600052603260045260246000fd5b90600052602060002090600702019050806004015447101561056f576040517f08c379a0000000000000000000000000000000000000000000000000000000008152600401610566906117d6565b60405180910390fd5b8060030160009054906101000a900473ffffffffffffffffffffffffffffffffffffffff1673ffffffffffffffffffffffffffffffffffffffff166108fc82600401549081150290604051600060405180830381858888f193505050501580156105dd573d6000803e3d6000fd5b5060018160060160016101000a81548160ff0219169083151502179055507fa4fba2597f136d02a9df7b6c5f55e4276a9f4571bc145308a2e36eeed8c4f5468160030160009054906101000a900473ffffffffffffffffffffffffffffffffffffffff168260020160009054906101000a900473ffffffffffffffffffffffffffffffffffffffff16836004015460405161067a939291906116ea565b60405180910390a15050565b61068e610ed7565b6106986000610f55565b565b60008060009054906101000a900473ffffffffffffffffffffffffffffffffffffffff16905090565b600560009054906101000a900473ffffffffffffffffffffffffffffffffffffffff1681565b60006040518061010001604052808881526020018781526020018573ffffffffffffffffffffffffffffffffffffffff1681526020018673ffffffffffffffffffffffffffffffffffffffff168152602001848152602001838152602001600015158152602001600015158152509050600181908060018154018082558091505060019003906000526020600020906007020160009091909190915060008201518160000190805190602001906107a1929190611021565b5060208201518160010190805190602001906107be929190611021565b5060408201518160020160006101000a81548173ffffffffffffffffffffffffffffffffffffffff021916908373ffffffffffffffffffffffffffffffffffffffff16021790555060608201518160030160006101000a81548173ffffffffffffffffffffffffffffffffffffffff021916908373ffffffffffffffffffffffffffffffffffffffff1602179055506080820151816004015560a0820151816005019080519060200190610873929190611021565b5060c08201518160060160006101000a81548160ff02191690831515021790555060e08201518160060160016101000a81548160ff02191690831515021790555050507ff0351302f15ff3cbb7a96579ce47a592299be818efd60d9cb9323aeeb5d473a48585856040516108e9939291906116ea565b60405180910390a150505050505050565b6001818154811061090a57600080fd5b906000526020600020906007020160009150905080600001805461092d90611a4a565b80601f016020809104026020016040519081016040528092919081815260200182805461095990611a4a565b80156109a65780601f1061097b576101008083540402835291602001916109a6565b820191906000526020600020905b81548152906001019060200180831161098957829003601f168201915b5050505050908060010180546109bb90611a4a565b80601f01602080910402602001604051908101604052809291908181526020018280546109e790611a4a565b8015610a345780601f10610a0957610100808354040283529160200191610a34565b820191906000526020600020905b815481529060010190602001808311610a1757829003601f168201915b5050505050908060020160009054906101000a900473ffffffffffffffffffffffffffffffffffffffff16908060030160009054906101000a900473ffffffffffffffffffffffffffffffffffffffff1690806004015490806005018054610a9b90611a4a565b80601f0160208091040260200160405190810160405280929190818152602001828054610ac790611a4a565b8015610b145780601f10610ae957610100808354040283529160200191610b14565b820191906000526020600020905b815481529060010190602001808311610af757829003601f168201915b5050505050908060060160009054906101000a900460ff16908060060160019054906101000a900460ff16905088565b6000600180549050905090565b610b59610ed7565b600073ffffffffffffffffffffffffffffffffffffffff168173ffffffffffffffffffffffffffffffffffffffff161415610bc9576040517f08c379a0000000000000000000000000000000000000000000000000000000008152600401610bc090611836565b60405180910390fd5b610bd281610f55565b50565b60606001805480602002602001604051908101604052809291908181526020016000905b82821015610ece578382906000526020600020906007020160405180610100016040529081600082018054610c2d90611a4a565b80601f0160208091040260200160405190810160405280929190818152602001828054610c5990611a4a565b8015610ca65780601f10610c7b57610100808354040283529160200191610ca6565b820191906000526020600020905b815481529060010190602001808311610c8957829003601f168201915b50505050508152602001600182018054610cbf90611a4a565b80601f0160208091040260200160405190810160405280929190818152602001828054610ceb90611a4a565b8015610d385780601f10610d0d57610100808354040283529160200191610d38565b820191906000526020600020905b815481529060010190602001808311610d1b57829003601f168201915b505050505081526020016002820160009054906101000a900473ffffffffffffffffffffffffffffffffffffffff1673ffffffffffffffffffffffffffffffffffffffff1673ffffffffffffffffffffffffffffffffffffffff1681526020016003820160009054906101000a900473ffffffffffffffffffffffffffffffffffffffff1673ffffffffffffffffffffffffffffffffffffffff1673ffffffffffffffffffffffffffffffffffffffff16815260200160048201548152602001600582018054610e0790611a4a565b80601f0160208091040260200160405190810160405280929190818152602001828054610e3390611a4a565b8015610e805780601f10610e5557610100808354040283529160200191610e80565b820191906000526020600020905b815481529060010190602001808311610e6357829003601f168201915b505050505081526020016006820160009054906101000a900460ff161515151581526020016006820160019054906101000a900460ff16151515158152505081526020019060010190610bf9565b50505050905090565b610edf611019565b73ffffffffffffffffffffffffffffffffffffffff16610efd61069a565b73ffffffffffffffffffffffffffffffffffffffff1614610f53576040517f08c379a0000000000000000000000000000000000000000000000000000000008152600401610f4a90611876565b60405180910390fd5b565b60008060009054906101000a900473ffffffffffffffffffffffffffffffffffffffff169050816000806101000a81548173ffffffffffffffffffffffffffffffffffffffff021916908373ffffffffffffffffffffffffffffffffffffffff1602179055508173ffffffffffffffffffffffffffffffffffffffff168173ffffffffffffffffffffffffffffffffffffffff167f8be0079c531659141344cd1fd0a4f28419497f9722a3daafe3b4186f6b6457e060405160405180910390a35050565b600033905090565b82805461102d90611a4a565b90600052602060002090601f01602090048101928261104f5760008555611096565b82601f1061106857805160ff1916838001178555611096565b82800160010185558215611096579182015b8281111561109557825182559160200191906001019061107a565b5b5090506110a391906110a7565b5090565b5b808211156110c05760008160009055506001016110a8565b5090565b60006110d76110d2846118e2565b6118b1565b9050828152602081018484840111156110ef57600080fd5b6110fa848285611a08565b509392505050565b60008135905061111181611aeb565b92915050565b60008135905061112681611b02565b92915050565b600082601f83011261113d57600080fd5b813561114d8482602086016110c4565b91505092915050565b60008135905061116581611b19565b92915050565b60006020828403121561117d57600080fd5b600061118b84828501611102565b91505092915050565b6000602082840312156111a657600080fd5b60006111b484828501611117565b91505092915050565b60008060008060008060c087890312156111d657600080fd5b600087013567ffffffffffffffff8111156111f057600080fd5b6111fc89828a0161112c565b965050602087013567ffffffffffffffff81111561121957600080fd5b61122589828a0161112c565b955050604061123689828a01611117565b945050606061124789828a01611117565b935050608061125889828a01611156565b92505060a087013567ffffffffffffffff81111561127557600080fd5b61128189828a0161112c565b9150509295509295509295565b6000602082840312156112a057600080fd5b60006112ae84828501611156565b91505092915050565b60006112c383836115d8565b905092915050565b6112d4816119d2565b82525050565b6112e38161198a565b82525050565b6112f28161198a565b82525050565b61130181611978565b82525050565b600061131282611922565b61131c8185611945565b93508360208202850161132e85611912565b8060005b8581101561136a578484038952815161134b85826112b7565b945061135683611938565b925060208a01995050600181019050611332565b50829750879550505050505092915050565b6113858161199c565b82525050565b6113948161199c565b82525050565b60006113a58261192d565b6113af8185611956565b93506113bf818560208601611a17565b6113c881611ada565b840191505092915050565b60006113de8261192d565b6113e88185611967565b93506113f8818560208601611a17565b61140181611ada565b840191505092915050565b6000611419601f83611967565b91507f496e73756666696369656e742066756e647320696e20636f6e74726163742e006000830152602082019050919050565b6000611459601a83611967565b91507f46756e647320616c7265616479207472616e736665727265642e0000000000006000830152602082019050919050565b6000611499603183611967565b91507f4f6e6c7920746865204e474f2063616e20616c6c6f636174652066756e64732060008301527f666f72207468697320726571756573742e0000000000000000000000000000006020830152604082019050919050565b60006114ff602683611967565b91507f4f776e61626c653a206e6577206f776e657220697320746865207a65726f206160008301527f64647265737300000000000000000000000000000000000000000000000000006020830152604082019050919050565b6000611565601783611967565b91507f5265717565737420646f6573206e6f742065786973742e0000000000000000006000830152602082019050919050565b60006115a5602083611967565b91507f4f776e61626c653a2063616c6c6572206973206e6f7420746865206f776e65726000830152602082019050919050565b60006101008301600083015184820360008601526115f6828261139a565b91505060208301518482036020860152611610828261139a565b915050604083015161162560408601826112da565b50606083015161163860608601826112da565b50608083015161164b6080860182611696565b5060a083015184820360a0860152611663828261139a565b91505060c083015161167860c086018261137c565b5060e083015161168b60e086018261137c565b508091505092915050565b61169f816119c8565b82525050565b6116ae816119c8565b82525050565b60006020820190506116c960008301846112f8565b92915050565b60006020820190506116e460008301846112e9565b92915050565b60006060820190506116ff60008301866112cb565b61170c60208301856112cb565b61171960408301846116a5565b949350505050565b6000602082019050818103600083015261173b8184611307565b905092915050565b600061010082019050818103600083015261175e818b6113d3565b90508181036020830152611772818a6113d3565b905061178160408301896112e9565b61178e60608301886112e9565b61179b60808301876116a5565b81810360a08301526117ad81866113d3565b90506117bc60c083018561138b565b6117c960e083018461138b565b9998505050505050505050565b600060208201905081810360008301526117ef8161140c565b9050919050565b6000602082019050818103600083015261180f8161144c565b9050919050565b6000602082019050818103600083015261182f8161148c565b9050919050565b6000602082019050818103600083015261184f816114f2565b9050919050565b6000602082019050818103600083015261186f81611558565b9050919050565b6000602082019050818103600083015261188f81611598565b9050919050565b60006020820190506118ab60008301846116a5565b92915050565b6000604051905081810181811067ffffffffffffffff821117156118d8576118d7611aab565b5b8060405250919050565b600067ffffffffffffffff8211156118fd576118fc611aab565b5b601f19601f8301169050602081019050919050565b6000819050602082019050919050565b600081519050919050565b600081519050919050565b6000602082019050919050565b600082825260208201905092915050565b600082825260208201905092915050565b600082825260208201905092915050565b6000611983826119a8565b9050919050565b6000611995826119a8565b9050919050565b60008115159050919050565b600073ffffffffffffffffffffffffffffffffffffffff82169050919050565b6000819050919050565b60006119dd826119e4565b9050919050565b60006119ef826119f6565b9050919050565b6000611a01826119a8565b9050919050565b82818337600083830152505050565b60005b83811015611a35578082015181840152602081019050611a1a565b83811115611a44576000848401525b50505050565b60006002820490506001821680611a6257607f821691505b60208210811415611a7657611a75611a7c565b5b50919050565b7f4e487b7100000000000000000000000000000000000000000000000000000000600052602260045260246000fd5b7f4e487b7100000000000000000000000000000000000000000000000000000000600052604160045260246000fd5b6000601f19601f8301169050919050565b611af481611978565b8114611aff57600080fd5b50565b611b0b8161198a565b8114611b1657600080fd5b50565b611b22816119c8565b8114611b2d57600080fd5b5056fea26469706673582212205cde9e694aaa50df10d00706194e5ea2d0dd7134e1af16c64ff8f36692b6c6fb64736f6c63430008000033",
  "immutableReferences": {},
  "source": "// SPDX-License-Identifier: MIT\npragma solidity ^0.8.0;\n\nimport '@openzeppelin/contracts/access/Ownable.sol';\nimport '@openzeppelin/contracts/utils/math/SafeMath.sol';\n// import './CampaignManager.sol';\n\ncontract Allocation is Ownable {\n  using SafeMath for uint256;\n\n  struct Request {\n        string projectName;\n        string projectHashId;\n        address payable NGO;\n        address payable beneficiary;\n        uint256 amountNeeded;\n        string explanation;\n        bool isApproved;\n        bool isTransferred;\n    }\n  Request[] public _requests;\n  \n\n//   event DonationReceived(address indexed donor, uint256 value);\n  event RequestInitiated(address beneficiary,address NGO, uint256 value);\n  event RequestAllocated(address beneficiary,address NGO, uint256 value);\n\n  string projectName;\n  string projectHashId;\n  address payable public beneficiary;\n  address payable public NGO;\n  uint256 public goalAmount;\n  uint256 amountNeeded;\n  string explanation;\n  bool isApproved;\n  bool isTransferred;\n\n\n constructor(\n    string memory _projectName,\n    string memory _projectHashId,\n    address payable  _beneficiary,\n    address payable  _NGO,\n    uint256 _amountNeeded,\n    string memory _explanation\n    // {info} see if i need custodian thing\n    // address _custodian\n  ) \n  public {\n    projectName= _projectName;\n    projectHashId= _projectHashId;\n    beneficiary=  _beneficiary;\n    NGO=  _NGO;\n    amountNeeded =  _amountNeeded;\n    explanation = _explanation;\n    // _transferOwnership(_custodian);\n  }\n\n  function setBeneficiary(address payable _beneficiary) public onlyOwner {\n    beneficiary = _beneficiary;\n  }\n   function myRequestsCount() public view returns (uint256) {\n    return _requests.length;\n  }\n  function createRequest(\n        string memory _projectName,\n        string memory _projectHashId,\n        address payable _beneficiary,\n        address payable _NGO,\n        uint256 _amountNeeded,\n        string memory _explanation\n    ) public {\n        Request memory newRequest = Request({\n            projectName: _projectName,\n            projectHashId: _projectHashId,\n            NGO: _NGO,\n            beneficiary: _beneficiary,\n            amountNeeded: _amountNeeded,\n            explanation: _explanation,\n            isApproved: false,  // assuming default is not approved\n            isTransferred: false  // assuming default is not transferred\n        });\n\n        _requests.push(newRequest);\n        // wtf myRequestsCount++;\n        emit RequestInitiated(_beneficiary,_NGO, _amountNeeded);\n  \n    }\n\n\nfunction transferAllocation(uint256 requestIndex) public payable {\n        // Ensure the request exists and the transfer has not already occurred\n        require(requestIndex < _requests.length, \"Request does not exist.\");\n        require(!_requests[requestIndex].isTransferred, \"Funds already transferred.\");\n\n        // Ensure the caller is the NGO associated with the request\n        require(msg.sender == _requests[requestIndex].NGO, \"Only the NGO can allocate funds for this request.\");\n\n        // Ensure there are enough funds in the contract\n        Request storage curRequest = _requests[requestIndex];\n        require(address(this).balance >= curRequest.amountNeeded, \"Insufficient funds in contract.\");\n\n        // Transfer funds to the beneficiary this is their account\n        curRequest.beneficiary.transfer(curRequest.amountNeeded);\n\n        // Update the request as transferred\n        curRequest.isTransferred = true;\n        emit RequestAllocated(curRequest.beneficiary,curRequest.NGO, curRequest.amountNeeded);\n  \n    }\n\n function getAllRequests() public view returns (Request[] memory) {\n        return _requests;\n    }\n\n\n//   function withdraw() public onlyOwner {\n//       uint256 balance = address(this).balance;\n//       beneficiary.transfer(balance);\n//       emit Withdraw(balance);\n//   }\n\n   receive() external payable {}\n\n}",
  "sourcePath": "/Users/erickchandra/Documents/code/DApp/contracts/Allocation.sol",
  "compiler": {
    "name": "solc",
    "version": "0.8.0+commit.c7dfd78e.Emscripten.clang"
  },
  "schemaVersion": "3.4.16",
  "updatedAt": "2023-11-24T14:21:03.415Z",
  "devdoc": {
    "kind": "dev",
    "methods": {
      "owner()": {
        "details": "Returns the address of the current owner."
      },
      "renounceOwnership()": {
        "details": "Leaves the contract without owner. It will not be possible to call `onlyOwner` functions anymore. Can only be called by the current owner. NOTE: Renouncing ownership will leave the contract without an owner, thereby removing any functionality that is only available to the owner."
      },
      "transferOwnership(address)": {
        "details": "Transfers ownership of the contract to a new account (`newOwner`). Can only be called by the current owner."
      }
    },
    "version": 1
  },
  "userdoc": {
    "kind": "user",
    "methods": {},
    "version": 1
  }
}