{
  "contractName": "FundraiserFactory",
  "abi": [
    {
      "anonymous": false,
      "inputs": [
        {
          "indexed": true,
          "internalType": "contract Fundraiser",
          "name": "fundraiser",
          "type": "address"
        },
        {
          "indexed": true,
          "internalType": "address",
          "name": "owner",
          "type": "address"
        }
      ],
      "name": "FundraiserCreated",
      "type": "event"
    },
    {
      "inputs": [
        {
          "internalType": "uint256",
          "name": "",
          "type": "uint256"
        }
      ],
      "name": "_fundraisers",
      "outputs": [
        {
          "internalType": "contract Fundraiser",
          "name": "",
          "type": "address"
        }
      ],
      "stateMutability": "view",
      "type": "function",
      "constant": true
    },
    {
      "inputs": [
        {
          "internalType": "string",
          "name": "name",
          "type": "string"
        },
        {
          "internalType": "string",
          "name": "image",
          "type": "string"
        },
        {
          "internalType": "string",
          "name": "description",
          "type": "string"
        },
        {
          "internalType": "uint256",
          "name": "goalAmount",
          "type": "uint256"
        },
        {
          "internalType": "address payable",
          "name": "beneficiary",
          "type": "address"
        }
      ],
      "name": "createFundraiser",
      "outputs": [],
      "stateMutability": "nonpayable",
      "type": "function"
    },
    {
      "inputs": [],
      "name": "fundraisersCount",
      "outputs": [
        {
          "internalType": "uint256",
          "name": "",
          "type": "uint256"
        }
      ],
      "stateMutability": "view",
      "type": "function",
      "constant": true
    },
    {
      "inputs": [
        {
          "internalType": "uint256",
          "name": "limit",
          "type": "uint256"
        },
        {
          "internalType": "uint256",
          "name": "offset",
          "type": "uint256"
        }
      ],
      "name": "fundraisers",
      "outputs": [
        {
          "internalType": "contract Fundraiser[]",
          "name": "coll",
          "type": "address[]"
        }
      ],
      "stateMutability": "view",
      "type": "function",
      "constant": true
    }
  ],
  "bytecode": "0x608060405234801561001057600080fd5b50612470806100206000396000f3fe60806040523480156200001157600080fd5b5060043610620000525760003560e01c8063704914f8146200005757806375c13994146200008d5780639d3b435514620000ad578063a13af7bd14620000cf575b600080fd5b6200007560048036038101906200006f91906200061c565b62000105565b604051620000849190620007b9565b60405180910390f35b620000ab6004803603810190620000a5919062000523565b6200031d565b005b620000b762000429565b604051620000c691906200089e565b60405180910390f35b620000ed6004803603810190620000e79190620005f0565b62000435565b604051620000fc9190620007dd565b60405180910390f35b60606200011162000429565b82111562000156576040517f08c379a00000000000000000000000000000000000000000000000000000000081526004016200014d906200087c565b60405180910390fd5b6000826200016362000429565b6200016f9190620009d4565b905083811062000180578362000182565b805b9050603281106200019557603262000197565b805b90508067ffffffffffffffff811115620001da577f4e487b7100000000000000000000000000000000000000000000000000000000600052604160045260246000fd5b604051908082528060200260200182016040528015620002095781602001602082028036833780820191505090505b50915060005b8181101562000315576000818562000228919062000977565b8154811062000260577f4e487b7100000000000000000000000000000000000000000000000000000000600052603260045260246000fd5b9060005260206000200160009054906101000a900473ffffffffffffffffffffffffffffffffffffffff16838281518110620002c5577f4e487b7100000000000000000000000000000000000000000000000000000000600052603260045260246000fd5b602002602001019073ffffffffffffffffffffffffffffffffffffffff16908173ffffffffffffffffffffffffffffffffffffffff168152505080806200030c9062000ace565b9150506200020f565b505092915050565b6000858585858533604051620003339062000475565b6200034496959493929190620007fa565b604051809103906000f08015801562000361573d6000803e3d6000fd5b5090506000819080600181540180825580915050600190039060005260206000200160009091909190916101000a81548173ffffffffffffffffffffffffffffffffffffffff021916908373ffffffffffffffffffffffffffffffffffffffff1602179055503373ffffffffffffffffffffffffffffffffffffffff168173ffffffffffffffffffffffffffffffffffffffff167fa2398daac0c8053a1e3c0280916c2ec6bc884f0959c27e639a4db829b7eabfb160405160405180910390a3505050505050565b60008080549050905090565b600081815481106200044657600080fd5b906000526020600020016000915054906101000a900473ffffffffffffffffffffffffffffffffffffffff1681565b61187b8062000bc083390190565b60006200049a6200049484620008ef565b620008bb565b905082815260208101848484011115620004b357600080fd5b620004c084828562000a89565b509392505050565b600081359050620004d98162000b8b565b92915050565b600082601f830112620004f157600080fd5b81356200050384826020860162000483565b91505092915050565b6000813590506200051d8162000ba5565b92915050565b600080600080600060a086880312156200053c57600080fd5b600086013567ffffffffffffffff8111156200055757600080fd5b6200056588828901620004df565b955050602086013567ffffffffffffffff8111156200058357600080fd5b6200059188828901620004df565b945050604086013567ffffffffffffffff811115620005af57600080fd5b620005bd88828901620004df565b9350506060620005d0888289016200050c565b9250506080620005e388828901620004c8565b9150509295509295909350565b6000602082840312156200060357600080fd5b600062000613848285016200050c565b91505092915050565b600080604083850312156200063057600080fd5b600062000640858286016200050c565b925050602062000653858286016200050c565b9150509250929050565b60006200066b838362000703565b60208301905092915050565b620006828162000a23565b82525050565b620006938162000a0f565b82525050565b6000620006a68262000932565b620006b2818562000955565b9350620006bf8362000922565b8060005b83811015620006f6578151620006da88826200065d565b9750620006e78362000948565b925050600181019050620006c3565b5085935050505092915050565b6200070e8162000a61565b82525050565b6200071f8162000a61565b82525050565b600062000732826200093d565b6200073e818562000966565b93506200075081856020860162000a98565b6200075b8162000b7a565b840191505092915050565b60006200077560148362000966565b91507f6f6666736574206f7574206f6620626f756e64730000000000000000000000006000830152602082019050919050565b620007b38162000a57565b82525050565b60006020820190508181036000830152620007d5818462000699565b905092915050565b6000602082019050620007f4600083018462000714565b92915050565b600060c082019050818103600083015262000816818962000725565b905081810360208301526200082c818862000725565b9050818103604083015262000842818762000725565b9050620008536060830186620007a8565b62000862608083018562000677565b6200087160a083018462000688565b979650505050505050565b60006020820190508181036000830152620008978162000766565b9050919050565b6000602082019050620008b56000830184620007a8565b92915050565b6000604051905081810181811067ffffffffffffffff82111715620008e557620008e462000b4b565b5b8060405250919050565b600067ffffffffffffffff8211156200090d576200090c62000b4b565b5b601f19601f8301169050602081019050919050565b6000819050602082019050919050565b600081519050919050565b600081519050919050565b6000602082019050919050565b600082825260208201905092915050565b600082825260208201905092915050565b6000620009848262000a57565b9150620009918362000a57565b9250827fffffffffffffffffffffffffffffffffffffffffffffffffffffffffffffffff03821115620009c957620009c862000b1c565b5b828201905092915050565b6000620009e18262000a57565b9150620009ee8362000a57565b92508282101562000a045762000a0362000b1c565b5b828203905092915050565b600062000a1c8262000a37565b9050919050565b600062000a308262000a37565b9050919050565b600073ffffffffffffffffffffffffffffffffffffffff82169050919050565b6000819050919050565b600062000a6e8262000a75565b9050919050565b600062000a828262000a37565b9050919050565b82818337600083830152505050565b60005b8381101562000ab857808201518184015260208101905062000a9b565b8381111562000ac8576000848401525b50505050565b600062000adb8262000a57565b91507fffffffffffffffffffffffffffffffffffffffffffffffffffffffffffffffff82141562000b115762000b1062000b1c565b5b600182019050919050565b7f4e487b7100000000000000000000000000000000000000000000000000000000600052601160045260246000fd5b7f4e487b7100000000000000000000000000000000000000000000000000000000600052604160045260246000fd5b6000601f19601f8301169050919050565b62000b968162000a23565b811462000ba257600080fd5b50565b62000bb08162000a57565b811462000bbc57600080fd5b5056fe60806040523480156200001157600080fd5b506040516200187b3803806200187b83398181016040528101906200003791906200033a565b620000576200004b6200010760201b60201c565b6200010f60201b60201c565b85600290805190602001906200006f929190620001d3565b50846003908051906020019062000088929190620001d3565b508360049080519060200190620000a1929190620001d3565b508260068190555081600560006101000a81548173ffffffffffffffffffffffffffffffffffffffff021916908373ffffffffffffffffffffffffffffffffffffffff160217905550620000fb816200010f60201b60201c565b505050505050620005ec565b600033905090565b60008060009054906101000a900473ffffffffffffffffffffffffffffffffffffffff169050816000806101000a81548173ffffffffffffffffffffffffffffffffffffffff021916908373ffffffffffffffffffffffffffffffffffffffff1602179055508173ffffffffffffffffffffffffffffffffffffffff168173ffffffffffffffffffffffffffffffffffffffff167f8be0079c531659141344cd1fd0a4f28419497f9722a3daafe3b4186f6b6457e060405160405180910390a35050565b828054620001e1906200050a565b90600052602060002090601f01602090048101928262000205576000855562000251565b82601f106200022057805160ff191683800117855562000251565b8280016001018555821562000251579182015b828111156200025057825182559160200191906001019062000233565b5b50905062000260919062000264565b5090565b5b808211156200027f57600081600090555060010162000265565b5090565b60006200029a62000294846200044f565b6200041b565b905082815260208101848484011115620002b357600080fd5b620002c0848285620004d4565b509392505050565b600081519050620002d9816200059e565b92915050565b600081519050620002f081620005b8565b92915050565b600082601f8301126200030857600080fd5b81516200031a84826020860162000283565b91505092915050565b6000815190506200033481620005d2565b92915050565b60008060008060008060c087890312156200035457600080fd5b600087015167ffffffffffffffff8111156200036f57600080fd5b6200037d89828a01620002f6565b965050602087015167ffffffffffffffff8111156200039b57600080fd5b620003a989828a01620002f6565b955050604087015167ffffffffffffffff811115620003c757600080fd5b620003d589828a01620002f6565b9450506060620003e889828a0162000323565b9350506080620003fb89828a01620002df565b92505060a06200040e89828a01620002c8565b9150509295509295509295565b6000604051905081810181811067ffffffffffffffff821117156200044557620004446200056f565b5b8060405250919050565b600067ffffffffffffffff8211156200046d576200046c6200056f565b5b601f19601f8301169050602081019050919050565b60006200048f82620004aa565b9050919050565b6000620004a382620004aa565b9050919050565b600073ffffffffffffffffffffffffffffffffffffffff82169050919050565b6000819050919050565b60005b83811015620004f4578082015181840152602081019050620004d7565b8381111562000504576000848401525b50505050565b600060028204905060018216806200052357607f821691505b602082108114156200053a576200053962000540565b5b50919050565b7f4e487b7100000000000000000000000000000000000000000000000000000000600052602260045260246000fd5b7f4e487b7100000000000000000000000000000000000000000000000000000000600052604160045260246000fd5b620005a98162000482565b8114620005b557600080fd5b50565b620005c38162000496565b8114620005cf57600080fd5b50565b620005dd81620004ca565b8114620005e957600080fd5b50565b61127f80620005fc6000396000f3fe6080604052600436106100f75760003560e01c8063715018a61161008a578063de2ed89311610059578063de2ed8931461031b578063ed88c68e14610346578063f2fde38b14610350578063f3ccaac014610379576100f8565b8063715018a6146102705780637284e416146102875780638da5cb5b146102b2578063dc0661be146102dd576100f8565b80631f522595116100c65780631f522595146101d85780632636b9451461020357806338af3eed1461022e5780633ccfd60b14610259576100f8565b80630180b97c1461012d57806306fdde03146101585780631a57f7b4146101835780631c31f710146101af576100f8565b5b61010d346007546103a490919063ffffffff16565b600781905550600860008154809291906101269061114c565b9190505550005b34801561013957600080fd5b506101426103ba565b60405161014f9190610faa565b60405180910390f35b34801561016457600080fd5b5061016d610404565b60405161017a9190610f48565b60405180910390f35b34801561018f57600080fd5b50610198610492565b6040516101a6929190610f11565b60405180910390f35b3480156101bb57600080fd5b506101d660048036038101906101d19190610ce5565b6106c5565b005b3480156101e457600080fd5b506101ed610711565b6040516101fa9190610faa565b60405180910390f35b34801561020f57600080fd5b50610218610717565b6040516102259190610faa565b60405180910390f35b34801561023a57600080fd5b5061024361071d565b6040516102509190610ef6565b60405180910390f35b34801561026557600080fd5b5061026e610743565b005b34801561027c57600080fd5b506102856107f3565b005b34801561029357600080fd5b5061029c610807565b6040516102a99190610f48565b60405180910390f35b3480156102be57600080fd5b506102c7610895565b6040516102d49190610edb565b60405180910390f35b3480156102e957600080fd5b5061030460048036038101906102ff9190610d0e565b6108be565b604051610312929190610fc5565b60405180910390f35b34801561032757600080fd5b506103306108ff565b60405161033d9190610faa565b60405180910390f35b61034e610905565b005b34801561035c57600080fd5b5061037760048036038101906103729190610cbc565b610a21565b005b34801561038557600080fd5b5061038e610aa5565b60405161039b9190610f48565b60405180910390f35b600081836103b29190611043565b905092915050565b6000600160003373ffffffffffffffffffffffffffffffffffffffff1673ffffffffffffffffffffffffffffffffffffffff16815260200190815260200160002080549050905090565b600280546104119061111a565b80601f016020809104026020016040519081016040528092919081815260200182805461043d9061111a565b801561048a5780601f1061045f5761010080835404028352916020019161048a565b820191906000526020600020905b81548152906001019060200180831161046d57829003601f168201915b505050505081565b606080600061049f6103ba565b90508067ffffffffffffffff8111156104e1577f4e487b7100000000000000000000000000000000000000000000000000000000600052604160045260246000fd5b60405190808252806020026020018201604052801561050f5781602001602082028036833780820191505090505b5092508067ffffffffffffffff811115610552577f4e487b7100000000000000000000000000000000000000000000000000000000600052604160045260246000fd5b6040519080825280602002602001820160405280156105805781602001602082028036833780820191505090505b50915060005b818110156106bf576000600160003373ffffffffffffffffffffffffffffffffffffffff1673ffffffffffffffffffffffffffffffffffffffff1681526020019081526020016000208281548110610607577f4e487b7100000000000000000000000000000000000000000000000000000000600052603260045260246000fd5b906000526020600020906002020190508060000154858381518110610655577f4e487b7100000000000000000000000000000000000000000000000000000000600052603260045260246000fd5b602002602001018181525050806001015484838151811061069f577f4e487b7100000000000000000000000000000000000000000000000000000000600052603260045260246000fd5b6020026020010181815250505080806106b79061114c565b915050610586565b50509091565b6106cd610b33565b80600560006101000a81548173ffffffffffffffffffffffffffffffffffffffff021916908373ffffffffffffffffffffffffffffffffffffffff16021790555050565b60085481565b60065481565b600560009054906101000a900473ffffffffffffffffffffffffffffffffffffffff1681565b61074b610b33565b6000479050600560009054906101000a900473ffffffffffffffffffffffffffffffffffffffff1673ffffffffffffffffffffffffffffffffffffffff166108fc829081150290604051600060405180830381858888f193505050501580156107b8573d6000803e3d6000fd5b507f5b6b431d4476a211bb7d41c20d1aab9ae2321deee0d20be3d9fc9b1093fa6e3d816040516107e89190610faa565b60405180910390a150565b6107fb610b33565b6108056000610bb1565b565b600480546108149061111a565b80601f01602080910402602001604051908101604052809291908181526020018280546108409061111a565b801561088d5780601f106108625761010080835404028352916020019161088d565b820191906000526020600020905b81548152906001019060200180831161087057829003601f168201915b505050505081565b60008060009054906101000a900473ffffffffffffffffffffffffffffffffffffffff16905090565b600160205281600052604060002081815481106108da57600080fd5b9060005260206000209060020201600091509150508060000154908060010154905082565b60075481565b60006040518060400160405280348152602001428152509050600160003373ffffffffffffffffffffffffffffffffffffffff1673ffffffffffffffffffffffffffffffffffffffff168152602001908152602001600020819080600181540180825580915050600190039060005260206000209060020201600090919091909150600082015181600001556020820151816001015550506109b2346007546103a490919063ffffffff16565b600781905550600860008154809291906109cb9061114c565b91905055503373ffffffffffffffffffffffffffffffffffffffff167f264f630d9efa0d07053a31163641d9fcc0adafc9d9e76f1c37c2ce3a558d2c5234604051610a169190610faa565b60405180910390a250565b610a29610b33565b600073ffffffffffffffffffffffffffffffffffffffff168173ffffffffffffffffffffffffffffffffffffffff161415610a99576040517f08c379a0000000000000000000000000000000000000000000000000000000008152600401610a9090610f6a565b60405180910390fd5b610aa281610bb1565b50565b60038054610ab29061111a565b80601f0160208091040260200160405190810160405280929190818152602001828054610ade9061111a565b8015610b2b5780601f10610b0057610100808354040283529160200191610b2b565b820191906000526020600020905b815481529060010190602001808311610b0e57829003601f168201915b505050505081565b610b3b610c75565b73ffffffffffffffffffffffffffffffffffffffff16610b59610895565b73ffffffffffffffffffffffffffffffffffffffff1614610baf576040517f08c379a0000000000000000000000000000000000000000000000000000000008152600401610ba690610f8a565b60405180910390fd5b565b60008060009054906101000a900473ffffffffffffffffffffffffffffffffffffffff169050816000806101000a81548173ffffffffffffffffffffffffffffffffffffffff021916908373ffffffffffffffffffffffffffffffffffffffff1602179055508173ffffffffffffffffffffffffffffffffffffffff168173ffffffffffffffffffffffffffffffffffffffff167f8be0079c531659141344cd1fd0a4f28419497f9722a3daafe3b4186f6b6457e060405160405180910390a35050565b600033905090565b600081359050610c8c81611204565b92915050565b600081359050610ca18161121b565b92915050565b600081359050610cb681611232565b92915050565b600060208284031215610cce57600080fd5b6000610cdc84828501610c7d565b91505092915050565b600060208284031215610cf757600080fd5b6000610d0584828501610c92565b91505092915050565b60008060408385031215610d2157600080fd5b6000610d2f85828601610c7d565b9250506020610d4085828601610ca7565b9150509250929050565b6000610d568383610ebd565b60208301905092915050565b610d6b816110ab565b82525050565b610d7a81611099565b82525050565b6000610d8b82610ffe565b610d958185611021565b9350610da083610fee565b8060005b83811015610dd1578151610db88882610d4a565b9750610dc383611014565b925050600181019050610da4565b5085935050505092915050565b6000610de982611009565b610df38185611032565b9350610e038185602086016110e7565b610e0c816111f3565b840191505092915050565b6000610e24602683611032565b91507f4f776e61626c653a206e6577206f776e657220697320746865207a65726f206160008301527f64647265737300000000000000000000000000000000000000000000000000006020830152604082019050919050565b6000610e8a602083611032565b91507f4f776e61626c653a2063616c6c6572206973206e6f7420746865206f776e65726000830152602082019050919050565b610ec6816110dd565b82525050565b610ed5816110dd565b82525050565b6000602082019050610ef06000830184610d71565b92915050565b6000602082019050610f0b6000830184610d62565b92915050565b60006040820190508181036000830152610f2b8185610d80565b90508181036020830152610f3f8184610d80565b90509392505050565b60006020820190508181036000830152610f628184610dde565b905092915050565b60006020820190508181036000830152610f8381610e17565b9050919050565b60006020820190508181036000830152610fa381610e7d565b9050919050565b6000602082019050610fbf6000830184610ecc565b92915050565b6000604082019050610fda6000830185610ecc565b610fe76020830184610ecc565b9392505050565b6000819050602082019050919050565b600081519050919050565b600081519050919050565b6000602082019050919050565b600082825260208201905092915050565b600082825260208201905092915050565b600061104e826110dd565b9150611059836110dd565b9250827fffffffffffffffffffffffffffffffffffffffffffffffffffffffffffffffff0382111561108e5761108d611195565b5b828201905092915050565b60006110a4826110bd565b9050919050565b60006110b6826110bd565b9050919050565b600073ffffffffffffffffffffffffffffffffffffffff82169050919050565b6000819050919050565b60005b838110156111055780820151818401526020810190506110ea565b83811115611114576000848401525b50505050565b6000600282049050600182168061113257607f821691505b60208210811415611146576111456111c4565b5b50919050565b6000611157826110dd565b91507fffffffffffffffffffffffffffffffffffffffffffffffffffffffffffffffff82141561118a57611189611195565b5b600182019050919050565b7f4e487b7100000000000000000000000000000000000000000000000000000000600052601160045260246000fd5b7f4e487b7100000000000000000000000000000000000000000000000000000000600052602260045260246000fd5b6000601f19601f8301169050919050565b61120d81611099565b811461121857600080fd5b50565b611224816110ab565b811461122f57600080fd5b50565b61123b816110dd565b811461124657600080fd5b5056fea264697066735822122069df7a70e4f1c284aae4b737acf438b400711890a5c02fba4c66b765984fda0464736f6c63430008000033a264697066735822122028dd8bcdea6dbde19466177a301f83419536e92b701092396f8ce23e0cd309aa64736f6c63430008000033",
  "immutableReferences": {},
  "source": "// SPDX-License-Identifier: MIT\npragma solidity ^0.8.0;\n\nimport './Fundraiser.sol';\n\ncontract FundraiserFactory {\n  uint256 constant maxLimit = 50;\n  Fundraiser[] public _fundraisers;\n\n  event FundraiserCreated(Fundraiser indexed fundraiser, address indexed owner);\n\n  function createFundraiser(\n    string memory name,\n    string memory image,\n    string memory description,\n    uint256 goalAmount,\n    address payable beneficiary\n  ) public {\n    \n    Fundraiser fundraiser = new Fundraiser(\n      name,\n      image,\n      description,\n      goalAmount,\n      beneficiary,\n      msg.sender\n    );\n    _fundraisers.push(fundraiser);\n    \n    emit FundraiserCreated(fundraiser, msg.sender);\n  }\n\n  function fundraisersCount() public view returns (uint256) {\n    return _fundraisers.length;\n  }\n\n  // {info} this should be showing the list of projects\n  function fundraisers(uint256 limit, uint256 offset)\n    public\n    view\n    returns (Fundraiser[] memory coll)\n  {\n    require(offset <= fundraisersCount(), 'offset out of bounds');\n\n    uint256 size = fundraisersCount() - offset;\n    size = size < limit ? size : limit;\n    size = size < maxLimit ? size : maxLimit;\n    coll = new Fundraiser[](size);\n\n    for (uint256 i = 0; i < size; i++) {\n      coll[i] = _fundraisers[offset + i];\n    }\n\n    return coll;\n  }\n}\n",
  "sourcePath": "/Users/erickchandra/Documents/code/DApp/contracts/FundraiserFactory.sol",
  "compiler": {
    "name": "solc",
    "version": "0.8.0+commit.c7dfd78e.Emscripten.clang"
  },
  "schemaVersion": "3.4.16",
  "updatedAt": "2023-11-21T12:38:50.002Z",
  "networkType": "ethereum",
  "devdoc": {
    "kind": "dev",
    "methods": {},
    "version": 1
  },
  "userdoc": {
    "kind": "user",
    "methods": {},
    "version": 1
  }
}