{
  "contractName": "Fundraiser",
  "abi": [
    {
      "inputs": [
        {
          "internalType": "string",
          "name": "_name",
          "type": "string"
        },
        {
          "internalType": "string",
          "name": "_image",
          "type": "string"
        },
        {
          "internalType": "string",
          "name": "_description",
          "type": "string"
        },
        {
          "internalType": "uint256",
          "name": "_goalAmount",
          "type": "uint256"
        },
        {
          "internalType": "address",
          "name": "_custodian",
          "type": "address"
        }
      ],
      "stateMutability": "nonpayable",
      "type": "constructor"
    },
    {
      "anonymous": false,
      "inputs": [
        {
          "indexed": true,
          "internalType": "address",
          "name": "donor",
          "type": "address"
        },
        {
          "indexed": false,
          "internalType": "uint256",
          "name": "value",
          "type": "uint256"
        },
        {
          "indexed": true,
          "internalType": "uint256",
          "name": "date",
          "type": "uint256"
        },
        {
          "indexed": false,
          "internalType": "string",
          "name": "fundName",
          "type": "string"
        },
        {
          "indexed": true,
          "internalType": "address",
          "name": "ngoAddress",
          "type": "address"
        }
      ],
      "name": "DonationReceived",
      "type": "event"
    },
    {
      "anonymous": false,
      "inputs": [
        {
          "indexed": true,
          "internalType": "address",
          "name": "previousOwner",
          "type": "address"
        },
        {
          "indexed": true,
          "internalType": "address",
          "name": "newOwner",
          "type": "address"
        }
      ],
      "name": "OwnershipTransferred",
      "type": "event"
    },
    {
      "anonymous": false,
      "inputs": [
        {
          "indexed": true,
          "internalType": "address",
          "name": "beneficiary",
          "type": "address"
        },
        {
          "indexed": false,
          "internalType": "uint256",
          "name": "value",
          "type": "uint256"
        },
        {
          "indexed": true,
          "internalType": "address",
          "name": "ngoAddress",
          "type": "address"
        },
        {
          "indexed": false,
          "internalType": "string",
          "name": "fundName",
          "type": "string"
        },
        {
          "indexed": true,
          "internalType": "uint256",
          "name": "date",
          "type": "uint256"
        }
      ],
      "name": "RequestApproved",
      "type": "event"
    },
    {
      "anonymous": false,
      "inputs": [
        {
          "indexed": true,
          "internalType": "address",
          "name": "beneficiary",
          "type": "address"
        },
        {
          "indexed": false,
          "internalType": "uint256",
          "name": "value",
          "type": "uint256"
        },
        {
          "indexed": true,
          "internalType": "address",
          "name": "ngoAddress",
          "type": "address"
        },
        {
          "indexed": false,
          "internalType": "string",
          "name": "fundName",
          "type": "string"
        },
        {
          "indexed": true,
          "internalType": "uint256",
          "name": "date",
          "type": "uint256"
        }
      ],
      "name": "RequestCreated",
      "type": "event"
    },
    {
      "anonymous": false,
      "inputs": [
        {
          "indexed": true,
          "internalType": "address",
          "name": "beneficiary",
          "type": "address"
        },
        {
          "indexed": false,
          "internalType": "uint256",
          "name": "value",
          "type": "uint256"
        },
        {
          "indexed": true,
          "internalType": "address",
          "name": "ngoAddress",
          "type": "address"
        },
        {
          "indexed": false,
          "internalType": "string",
          "name": "fundName",
          "type": "string"
        },
        {
          "indexed": true,
          "internalType": "uint256",
          "name": "date",
          "type": "uint256"
        }
      ],
      "name": "RequestRejected",
      "type": "event"
    },
    {
      "inputs": [
        {
          "internalType": "uint256",
          "name": "",
          "type": "uint256"
        }
      ],
      "name": "_requests",
      "outputs": [
        {
          "internalType": "uint256",
          "name": "amount",
          "type": "uint256"
        },
        {
          "internalType": "address payable",
          "name": "beneficiary",
          "type": "address"
        },
        {
          "internalType": "address",
          "name": "ngoAddress",
          "type": "address"
        },
        {
          "internalType": "enum Fundraiser.RequestStatus",
          "name": "status",
          "type": "uint8"
        },
        {
          "internalType": "string",
          "name": "fileAddress",
          "type": "string"
        }
      ],
      "stateMutability": "view",
      "type": "function"
    },
    {
      "inputs": [
        {
          "internalType": "address",
          "name": "",
          "type": "address"
        },
        {
          "internalType": "uint256",
          "name": "",
          "type": "uint256"
        }
      ],
      "name": "_userDonations",
      "outputs": [
        {
          "internalType": "uint256",
          "name": "value",
          "type": "uint256"
        },
        {
          "internalType": "uint256",
          "name": "date",
          "type": "uint256"
        },
        {
          "internalType": "address",
          "name": "donor",
          "type": "address"
        },
        {
          "internalType": "string",
          "name": "fundName",
          "type": "string"
        },
        {
          "internalType": "address",
          "name": "ngoAddress",
          "type": "address"
        }
      ],
      "stateMutability": "view",
      "type": "function"
    },
    {
      "inputs": [],
      "name": "description",
      "outputs": [
        {
          "internalType": "string",
          "name": "",
          "type": "string"
        }
      ],
      "stateMutability": "view",
      "type": "function"
    },
    {
      "inputs": [],
      "name": "donationsCount",
      "outputs": [
        {
          "internalType": "uint256",
          "name": "",
          "type": "uint256"
        }
      ],
      "stateMutability": "view",
      "type": "function"
    },
    {
      "inputs": [],
      "name": "fundName",
      "outputs": [
        {
          "internalType": "string",
          "name": "",
          "type": "string"
        }
      ],
      "stateMutability": "view",
      "type": "function"
    },
    {
      "inputs": [],
      "name": "goalAmount",
      "outputs": [
        {
          "internalType": "uint256",
          "name": "",
          "type": "uint256"
        }
      ],
      "stateMutability": "view",
      "type": "function"
    },
    {
      "inputs": [],
      "name": "image",
      "outputs": [
        {
          "internalType": "string",
          "name": "",
          "type": "string"
        }
      ],
      "stateMutability": "view",
      "type": "function"
    },
    {
      "inputs": [],
      "name": "ngoAddress",
      "outputs": [
        {
          "internalType": "address",
          "name": "",
          "type": "address"
        }
      ],
      "stateMutability": "view",
      "type": "function"
    },
    {
      "inputs": [],
      "name": "owner",
      "outputs": [
        {
          "internalType": "address",
          "name": "",
          "type": "address"
        }
      ],
      "stateMutability": "view",
      "type": "function"
    },
    {
      "inputs": [],
      "name": "renounceOwnership",
      "outputs": [],
      "stateMutability": "nonpayable",
      "type": "function"
    },
    {
      "inputs": [],
      "name": "totalDonations",
      "outputs": [
        {
          "internalType": "uint256",
          "name": "",
          "type": "uint256"
        }
      ],
      "stateMutability": "view",
      "type": "function"
    },
    {
      "inputs": [
        {
          "internalType": "address",
          "name": "newOwner",
          "type": "address"
        }
      ],
      "name": "transferOwnership",
      "outputs": [],
      "stateMutability": "nonpayable",
      "type": "function"
    },
    {
      "inputs": [],
      "name": "myDonationsCount",
      "outputs": [
        {
          "internalType": "uint256",
          "name": "",
          "type": "uint256"
        }
      ],
      "stateMutability": "view",
      "type": "function"
    },
    {
      "inputs": [],
      "name": "donate",
      "outputs": [],
      "stateMutability": "payable",
      "type": "function"
    },
    {
      "inputs": [],
      "name": "allRequests",
      "outputs": [
        {
          "internalType": "uint256[]",
          "name": "requestID",
          "type": "uint256[]"
        },
        {
          "internalType": "uint256[]",
          "name": "amounts",
          "type": "uint256[]"
        },
        {
          "internalType": "address[]",
          "name": "beneficiaries",
          "type": "address[]"
        },
        {
          "internalType": "address[]",
          "name": "ngoAddresses",
          "type": "address[]"
        },
        {
          "internalType": "enum Fundraiser.RequestStatus[]",
          "name": "statuses",
          "type": "uint8[]"
        },
        {
          "internalType": "string[]",
          "name": "fileAddresses",
          "type": "string[]"
        }
      ],
      "stateMutability": "view",
      "type": "function"
    },
    {
      "inputs": [],
      "name": "myDonations",
      "outputs": [
        {
          "internalType": "uint256[]",
          "name": "values",
          "type": "uint256[]"
        },
        {
          "internalType": "uint256[]",
          "name": "dates",
          "type": "uint256[]"
        },
        {
          "internalType": "string[]",
          "name": "fundNames",
          "type": "string[]"
        },
        {
          "internalType": "address[]",
          "name": "ngoAddresses",
          "type": "address[]"
        }
      ],
      "stateMutability": "view",
      "type": "function"
    },
    {
      "inputs": [
        {
          "internalType": "address payable",
          "name": "_beneficiary",
          "type": "address"
        },
        {
          "internalType": "uint256",
          "name": "_requestAmount",
          "type": "uint256"
        },
        {
          "internalType": "string",
          "name": "fileAddress",
          "type": "string"
        }
      ],
      "name": "createRequest",
      "outputs": [],
      "stateMutability": "nonpayable",
      "type": "function"
    },
    {
      "inputs": [
        {
          "internalType": "uint256",
          "name": "requestId",
          "type": "uint256"
        }
      ],
      "name": "approveRequest",
      "outputs": [],
      "stateMutability": "nonpayable",
      "type": "function"
    },
    {
      "inputs": [
        {
          "internalType": "uint256",
          "name": "requestId",
          "type": "uint256"
        }
      ],
      "name": "rejectRequest",
      "outputs": [],
      "stateMutability": "nonpayable",
      "type": "function"
    }
  ],
  "bytecode": "0x60806040523480156200001157600080fd5b50604051620035db380380620035db833981810160405281019062000037919062000329565b620000576200004b6200010d60201b60201c565b6200011560201b60201c565b60018081905550846004908051906020019062000076929190620001d9565b5083600590805190602001906200008f929190620001d9565b508260069080519060200190620000a8929190620001d9565b5080600960006101000a81548173ffffffffffffffffffffffffffffffffffffffff021916908373ffffffffffffffffffffffffffffffffffffffff1602179055508160078190555062000102816200011560201b60201c565b505050505062000599565b600033905090565b60008060009054906101000a900473ffffffffffffffffffffffffffffffffffffffff169050816000806101000a81548173ffffffffffffffffffffffffffffffffffffffff021916908373ffffffffffffffffffffffffffffffffffffffff1602179055508173ffffffffffffffffffffffffffffffffffffffff168173ffffffffffffffffffffffffffffffffffffffff167f8be0079c531659141344cd1fd0a4f28419497f9722a3daafe3b4186f6b6457e060405160405180910390a35050565b828054620001e790620004d1565b90600052602060002090601f0160209004810192826200020b576000855562000257565b82601f106200022657805160ff191683800117855562000257565b8280016001018555821562000257579182015b828111156200025657825182559160200191906001019062000239565b5b5090506200026691906200026a565b5090565b5b80821115620002855760008160009055506001016200026b565b5090565b6000620002a06200029a846200042a565b620003f6565b905082815260208101848484011115620002b957600080fd5b620002c68482856200049b565b509392505050565b600081519050620002df8162000565565b92915050565b600082601f830112620002f757600080fd5b81516200030984826020860162000289565b91505092915050565b60008151905062000323816200057f565b92915050565b600080600080600060a086880312156200034257600080fd5b600086015167ffffffffffffffff8111156200035d57600080fd5b6200036b88828901620002e5565b955050602086015167ffffffffffffffff8111156200038957600080fd5b6200039788828901620002e5565b945050604086015167ffffffffffffffff811115620003b557600080fd5b620003c388828901620002e5565b9350506060620003d68882890162000312565b9250506080620003e988828901620002ce565b9150509295509295909350565b6000604051905081810181811067ffffffffffffffff8211171562000420576200041f62000536565b5b8060405250919050565b600067ffffffffffffffff82111562000448576200044762000536565b5b601f19601f8301169050602081019050919050565b60006200046a8262000471565b9050919050565b600073ffffffffffffffffffffffffffffffffffffffff82169050919050565b6000819050919050565b60005b83811015620004bb5780820151818401526020810190506200049e565b83811115620004cb576000848401525b50505050565b60006002820490506001821680620004ea57607f821691505b6020821081141562000501576200050062000507565b5b50919050565b7f4e487b7100000000000000000000000000000000000000000000000000000000600052602260045260246000fd5b7f4e487b7100000000000000000000000000000000000000000000000000000000600052604160045260246000fd5b62000570816200045d565b81146200057c57600080fd5b50565b6200058a8162000491565b81146200059657600080fd5b50565b61303280620005a96000396000f3fe6080604052600436106101145760003560e01c80639ce1413b116100a0578063d7d1bbdb11610064578063d7d1bbdb1461038f578063de2ed893146103b8578063ed88c68e146103e3578063f2fde38b146103ed578063f3ccaac01461041657610114565b80639ce1413b1461028e578063ba9a7a9e146102b9578063bff60c0f146102e2578063ccf179b014610323578063d251e51d1461034e57610114565b80632d7788db116100e75780632d7788db146101c8578063715018a6146101f15780637284e416146102085780638a4473a9146102335780638da5cb5b1461026357610114565b80630180b97c146101195780631a57f7b4146101445780631f522595146101725780632636b9451461019d575b600080fd5b34801561012557600080fd5b5061012e610441565b60405161013b9190612a96565b60405180910390f35b34801561015057600080fd5b5061015961048b565b6040516101699493929190612933565b60405180910390f35b34801561017e57600080fd5b50610187610913565b6040516101949190612a96565b60405180910390f35b3480156101a957600080fd5b506101b2610919565b6040516101bf9190612a96565b60405180910390f35b3480156101d457600080fd5b506101ef60048036038101906101ea9190612338565b61091f565b005b3480156101fd57600080fd5b50610206610b8a565b005b34801561021457600080fd5b5061021d610b9e565b60405161022a9190612994565b60405180910390f35b34801561023f57600080fd5b50610248610c2c565b60405161025a969594939291906128a8565b60405180910390f35b34801561026f57600080fd5b50610278611243565b604051610285919061288d565b60405180910390f35b34801561029a57600080fd5b506102a361126c565b6040516102b09190612994565b60405180910390f35b3480156102c557600080fd5b506102e060048036038101906102db9190612295565b6112fa565b005b3480156102ee57600080fd5b5061030960048036038101906103049190612338565b6115b5565b60405161031a959493929190612ab1565b60405180910390f35b34801561032f57600080fd5b506103386116d0565b604051610345919061288d565b60405180910390f35b34801561035a57600080fd5b50610375600480360381019061037091906122fc565b6116f6565b604051610386959493929190612b3b565b60405180910390f35b34801561039b57600080fd5b506103b660048036038101906103b19190612338565b611811565b005b3480156103c457600080fd5b506103cd611ba6565b6040516103da9190612a96565b60405180910390f35b6103eb611bac565b005b3480156103f957600080fd5b50610414600480360381019061040f919061226c565b611e9a565b005b34801561042257600080fd5b5061042b611f1e565b6040516104389190612994565b60405180910390f35b6000600260003373ffffffffffffffffffffffffffffffffffffffff1673ffffffffffffffffffffffffffffffffffffffff16815260200190815260200160002080549050905090565b606080606080600061049b610441565b90508067ffffffffffffffff8111156104dd577f4e487b7100000000000000000000000000000000000000000000000000000000600052604160045260246000fd5b60405190808252806020026020018201604052801561050b5781602001602082028036833780820191505090505b5094508067ffffffffffffffff81111561054e577f4e487b7100000000000000000000000000000000000000000000000000000000600052604160045260246000fd5b60405190808252806020026020018201604052801561057c5781602001602082028036833780820191505090505b5093508067ffffffffffffffff8111156105bf577f4e487b7100000000000000000000000000000000000000000000000000000000600052604160045260246000fd5b6040519080825280602002602001820160405280156105f257816020015b60608152602001906001900390816105dd5790505b5092508067ffffffffffffffff811115610635577f4e487b7100000000000000000000000000000000000000000000000000000000600052604160045260246000fd5b6040519080825280602002602001820160405280156106635781602001602082028036833780820191505090505b50915060005b8181101561090b576000600260003373ffffffffffffffffffffffffffffffffffffffff1673ffffffffffffffffffffffffffffffffffffffff16815260200190815260200160002082815481106106ea577f4e487b7100000000000000000000000000000000000000000000000000000000600052603260045260246000fd5b906000526020600020906005020190508060000154878381518110610738577f4e487b7100000000000000000000000000000000000000000000000000000000600052603260045260246000fd5b6020026020010181815250508060010154868381518110610782577f4e487b7100000000000000000000000000000000000000000000000000000000600052603260045260246000fd5b60200260200101818152505080600301805461079d90612e5b565b80601f01602080910402602001604051908101604052809291908181526020018280546107c990612e5b565b80156108165780601f106107eb57610100808354040283529160200191610816565b820191906000526020600020905b8154815290600101906020018083116107f957829003601f168201915b5050505050858381518110610854577f4e487b7100000000000000000000000000000000000000000000000000000000600052603260045260246000fd5b60200260200101819052508060040160009054906101000a900473ffffffffffffffffffffffffffffffffffffffff168483815181106108bd577f4e487b7100000000000000000000000000000000000000000000000000000000600052603260045260246000fd5b602002602001019073ffffffffffffffffffffffffffffffffffffffff16908173ffffffffffffffffffffffffffffffffffffffff168152505050808061090390612e8d565b915050610669565b505090919293565b600a5481565b60075481565b610927611fac565b600380549050811061096e576040517f08c379a000000000000000000000000000000000000000000000000000000000815260040161096590612a76565b60405180910390fd5b6000600382815481106109aa577f4e487b7100000000000000000000000000000000000000000000000000000000600052603260045260246000fd5b90600052602060002090600402019050600060028111156109f4577f4e487b7100000000000000000000000000000000000000000000000000000000600052602160045260246000fd5b8160020160149054906101000a900460ff166002811115610a3e577f4e487b7100000000000000000000000000000000000000000000000000000000600052602160045260246000fd5b14610a7e576040517f08c379a0000000000000000000000000000000000000000000000000000000008152600401610a75906129d6565b60405180910390fd5b60028160020160146101000a81548160ff02191690836002811115610acc577f4e487b7100000000000000000000000000000000000000000000000000000000600052602160045260246000fd5b0217905550428160020160009054906101000a900473ffffffffffffffffffffffffffffffffffffffff1673ffffffffffffffffffffffffffffffffffffffff168260010160009054906101000a900473ffffffffffffffffffffffffffffffffffffffff1673ffffffffffffffffffffffffffffffffffffffff167f592da2f7c068823877ad9923447991ff1ee3158fbbd064f0fcc896847bc048e384600001546004604051610b7e929190612b0b565b60405180910390a45050565b610b92611fac565b610b9c600061202a565b565b60068054610bab90612e5b565b80601f0160208091040260200160405190810160405280929190818152602001828054610bd790612e5b565b8015610c245780601f10610bf957610100808354040283529160200191610c24565b820191906000526020600020905b815481529060010190602001808311610c0757829003601f168201915b505050505081565b606080606080606080600060038054905090508067ffffffffffffffff811115610c7f577f4e487b7100000000000000000000000000000000000000000000000000000000600052604160045260246000fd5b604051908082528060200260200182016040528015610cad5781602001602082028036833780820191505090505b5096508067ffffffffffffffff811115610cf0577f4e487b7100000000000000000000000000000000000000000000000000000000600052604160045260246000fd5b604051908082528060200260200182016040528015610d1e5781602001602082028036833780820191505090505b5095508067ffffffffffffffff811115610d61577f4e487b7100000000000000000000000000000000000000000000000000000000600052604160045260246000fd5b604051908082528060200260200182016040528015610d8f5781602001602082028036833780820191505090505b5094508067ffffffffffffffff811115610dd2577f4e487b7100000000000000000000000000000000000000000000000000000000600052604160045260246000fd5b604051908082528060200260200182016040528015610e005781602001602082028036833780820191505090505b5093508067ffffffffffffffff811115610e43577f4e487b7100000000000000000000000000000000000000000000000000000000600052604160045260246000fd5b604051908082528060200260200182016040528015610e715781602001602082028036833780820191505090505b50925060005b8181101561123957600060038281548110610ebb577f4e487b7100000000000000000000000000000000000000000000000000000000600052603260045260246000fd5b9060005260206000209060040201905081898381518110610f05577f4e487b7100000000000000000000000000000000000000000000000000000000600052603260045260246000fd5b6020026020010181815250508060000154888381518110610f4f577f4e487b7100000000000000000000000000000000000000000000000000000000600052603260045260246000fd5b6020026020010181815250508060010160009054906101000a900473ffffffffffffffffffffffffffffffffffffffff16878381518110610fb9577f4e487b7100000000000000000000000000000000000000000000000000000000600052603260045260246000fd5b602002602001019073ffffffffffffffffffffffffffffffffffffffff16908173ffffffffffffffffffffffffffffffffffffffff16815250508060020160009054906101000a900473ffffffffffffffffffffffffffffffffffffffff16868381518110611051577f4e487b7100000000000000000000000000000000000000000000000000000000600052603260045260246000fd5b602002602001019073ffffffffffffffffffffffffffffffffffffffff16908173ffffffffffffffffffffffffffffffffffffffff16815250508060020160149054906101000a900460ff168583815181106110d6577f4e487b7100000000000000000000000000000000000000000000000000000000600052603260045260246000fd5b60200260200101906002811115611116577f4e487b7100000000000000000000000000000000000000000000000000000000600052602160045260246000fd5b90816002811115611150577f4e487b7100000000000000000000000000000000000000000000000000000000600052602160045260246000fd5b8152505080600301805461116390612e5b565b80601f016020809104026020016040519081016040528092919081815260200182805461118f90612e5b565b80156111dc5780601f106111b1576101008083540402835291602001916111dc565b820191906000526020600020905b8154815290600101906020018083116111bf57829003601f168201915b505050505084838151811061121a577f4e487b7100000000000000000000000000000000000000000000000000000000600052603260045260246000fd5b602002602001018190525050808061123190612e8d565b915050610e77565b5050909192939495565b60008060009054906101000a900473ffffffffffffffffffffffffffffffffffffffff16905090565b6004805461127990612e5b565b80601f01602080910402602001604051908101604052809291908181526020018280546112a590612e5b565b80156112f25780601f106112c7576101008083540402835291602001916112f2565b820191906000526020600020905b8154815290600101906020018083116112d557829003601f168201915b505050505081565b81600854101561133f576040517f08c379a000000000000000000000000000000000000000000000000000000000815260040161133690612a16565b60405180910390fd5b60036040518060a001604052808481526020018573ffffffffffffffffffffffffffffffffffffffff168152602001600960009054906101000a900473ffffffffffffffffffffffffffffffffffffffff1673ffffffffffffffffffffffffffffffffffffffff168152602001600060028111156113e6577f4e487b7100000000000000000000000000000000000000000000000000000000600052602160045260246000fd5b81526020018381525090806001815401808255809150506001900390600052602060002090600402016000909190919091506000820151816000015560208201518160010160006101000a81548173ffffffffffffffffffffffffffffffffffffffff021916908373ffffffffffffffffffffffffffffffffffffffff16021790555060408201518160020160006101000a81548173ffffffffffffffffffffffffffffffffffffffff021916908373ffffffffffffffffffffffffffffffffffffffff16021790555060608201518160020160146101000a81548160ff02191690836002811115611501577f4e487b7100000000000000000000000000000000000000000000000000000000600052602160045260246000fd5b02179055506080820151816003019080519060200190611522929190612122565b50505042600960009054906101000a900473ffffffffffffffffffffffffffffffffffffffff1673ffffffffffffffffffffffffffffffffffffffff168473ffffffffffffffffffffffffffffffffffffffff167f54a9c83be540f00741b15590dcfdbbd18807cc3c832b6e77c01f8fbc6d3166058560046040516115a8929190612b0b565b60405180910390a4505050565b600381815481106115c557600080fd5b90600052602060002090600402016000915090508060000154908060010160009054906101000a900473ffffffffffffffffffffffffffffffffffffffff16908060020160009054906101000a900473ffffffffffffffffffffffffffffffffffffffff16908060020160149054906101000a900460ff169080600301805461164d90612e5b565b80601f016020809104026020016040519081016040528092919081815260200182805461167990612e5b565b80156116c65780601f1061169b576101008083540402835291602001916116c6565b820191906000526020600020905b8154815290600101906020018083116116a957829003601f168201915b5050505050905085565b600960009054906101000a900473ffffffffffffffffffffffffffffffffffffffff1681565b6002602052816000526040600020818154811061171257600080fd5b9060005260206000209060050201600091509150508060000154908060010154908060020160009054906101000a900473ffffffffffffffffffffffffffffffffffffffff169080600301805461176890612e5b565b80601f016020809104026020016040519081016040528092919081815260200182805461179490612e5b565b80156117e15780601f106117b6576101008083540402835291602001916117e1565b820191906000526020600020905b8154815290600101906020018083116117c457829003601f168201915b5050505050908060040160009054906101000a900473ffffffffffffffffffffffffffffffffffffffff16905085565b611819611fac565b6002600154141561185f576040517f08c379a000000000000000000000000000000000000000000000000000000000815260040161185690612a36565b60405180910390fd5b600260018190555060038054905081106118ae576040517f08c379a00000000000000000000000000000000000000000000000000000000081526004016118a590612a76565b60405180910390fd5b6000600382815481106118ea577f4e487b7100000000000000000000000000000000000000000000000000000000600052603260045260246000fd5b9060005260206000209060040201905060006002811115611934577f4e487b7100000000000000000000000000000000000000000000000000000000600052602160045260246000fd5b8160020160149054906101000a900460ff16600281111561197e577f4e487b7100000000000000000000000000000000000000000000000000000000600052602160045260246000fd5b146119be576040517f08c379a00000000000000000000000000000000000000000000000000000000081526004016119b5906129d6565b60405180910390fd5b8060000154471015611a05576040517f08c379a00000000000000000000000000000000000000000000000000000000081526004016119fc90612a56565b60405180910390fd5b611a1e81600001546008546120ee90919063ffffffff16565b60088190555060018160020160146101000a81548160ff02191690836002811115611a72577f4e487b7100000000000000000000000000000000000000000000000000000000600052602160045260246000fd5b02179055508060010160009054906101000a900473ffffffffffffffffffffffffffffffffffffffff1673ffffffffffffffffffffffffffffffffffffffff166108fc82600001549081150290604051600060405180830381858888f19350505050158015611ae5573d6000803e3d6000fd5b50428160020160009054906101000a900473ffffffffffffffffffffffffffffffffffffffff1673ffffffffffffffffffffffffffffffffffffffff168260010160009054906101000a900473ffffffffffffffffffffffffffffffffffffffff1673ffffffffffffffffffffffffffffffffffffffff167f533ca94f7a1d6423d4b59b9a7bd0225c6e15af6eedcb566408c3f6942bdfe58284600001546004604051611b93929190612b0b565b60405180910390a4506001808190555050565b60085481565b60006040518060a001604052803481526020014281526020013373ffffffffffffffffffffffffffffffffffffffff16815260200160048054611bee90612e5b565b80601f0160208091040260200160405190810160405280929190818152602001828054611c1a90612e5b565b8015611c675780601f10611c3c57610100808354040283529160200191611c67565b820191906000526020600020905b815481529060010190602001808311611c4a57829003601f168201915b50505050508152602001600960009054906101000a900473ffffffffffffffffffffffffffffffffffffffff1673ffffffffffffffffffffffffffffffffffffffff168152509050600260003373ffffffffffffffffffffffffffffffffffffffff1673ffffffffffffffffffffffffffffffffffffffff168152602001908152602001600020819080600181540180825580915050600190039060005260206000209060050201600090919091909150600082015181600001556020820151816001015560408201518160020160006101000a81548173ffffffffffffffffffffffffffffffffffffffff021916908373ffffffffffffffffffffffffffffffffffffffff1602179055506060820151816003019080519060200190611d8f929190612122565b5060808201518160040160006101000a81548173ffffffffffffffffffffffffffffffffffffffff021916908373ffffffffffffffffffffffffffffffffffffffff1602179055505050600a6000815480929190611dec90612e8d565b9190505550611e063460085461210490919063ffffffff16565b600881905550600960009054906101000a900473ffffffffffffffffffffffffffffffffffffffff1673ffffffffffffffffffffffffffffffffffffffff16423373ffffffffffffffffffffffffffffffffffffffff167f385b33bb5da3a6a3451f9ff1a8da6d5a24660f02a2d129d92093b3fc76df707f346004604051611e8f929190612b0b565b60405180910390a450565b611ea2611fac565b600073ffffffffffffffffffffffffffffffffffffffff168173ffffffffffffffffffffffffffffffffffffffff161415611f12576040517f08c379a0000000000000000000000000000000000000000000000000000000008152600401611f09906129b6565b60405180910390fd5b611f1b8161202a565b50565b60058054611f2b90612e5b565b80601f0160208091040260200160405190810160405280929190818152602001828054611f5790612e5b565b8015611fa45780601f10611f7957610100808354040283529160200191611fa4565b820191906000526020600020905b815481529060010190602001808311611f8757829003601f168201915b505050505081565b611fb461211a565b73ffffffffffffffffffffffffffffffffffffffff16611fd2611243565b73ffffffffffffffffffffffffffffffffffffffff1614612028576040517f08c379a000000000000000000000000000000000000000000000000000000000815260040161201f906129f6565b60405180910390fd5b565b60008060009054906101000a900473ffffffffffffffffffffffffffffffffffffffff169050816000806101000a81548173ffffffffffffffffffffffffffffffffffffffff021916908373ffffffffffffffffffffffffffffffffffffffff1602179055508173ffffffffffffffffffffffffffffffffffffffff168173ffffffffffffffffffffffffffffffffffffffff167f8be0079c531659141344cd1fd0a4f28419497f9722a3daafe3b4186f6b6457e060405160405180910390a35050565b600081836120fc9190612d72565b905092915050565b600081836121129190612d1c565b905092915050565b600033905090565b82805461212e90612e5b565b90600052602060002090601f0160209004810192826121505760008555612197565b82601f1061216957805160ff1916838001178555612197565b82800160010185558215612197579182015b8281111561219657825182559160200191906001019061217b565b5b5090506121a491906121a8565b5090565b5b808211156121c15760008160009055506001016121a9565b5090565b60006121d86121d384612bc6565b612b95565b9050828152602081018484840111156121f057600080fd5b6121fb848285612e19565b509392505050565b60008135905061221281612fb7565b92915050565b60008135905061222781612fce565b92915050565b600082601f83011261223e57600080fd5b813561224e8482602086016121c5565b91505092915050565b60008135905061226681612fe5565b92915050565b60006020828403121561227e57600080fd5b600061228c84828501612203565b91505092915050565b6000806000606084860312156122aa57600080fd5b60006122b886828701612218565b93505060206122c986828701612257565b925050604084013567ffffffffffffffff8111156122e657600080fd5b6122f28682870161222d565b9150509250925092565b6000806040838503121561230f57600080fd5b600061231d85828601612203565b925050602061232e85828601612257565b9150509250929050565b60006020828403121561234a57600080fd5b600061235884828501612257565b91505092915050565b600061236d83836123cc565b60208301905092915050565b60006123858383612579565b60208301905092915050565b600061239d8383612597565b905092915050565b60006123b1838361286f565b60208301905092915050565b6123c681612db8565b82525050565b6123d581612da6565b82525050565b6123e481612da6565b82525050565b60006123f582612c4b565b6123ff8185612cb6565b935061240a83612bf6565b8060005b8381101561243b5781516124228882612361565b975061242d83612c82565b92505060018101905061240e565b5085935050505092915050565b600061245382612c56565b61245d8185612ce9565b935061246883612c06565b8060005b838110156124995781516124808882612379565b975061248b83612c8f565b92505060018101905061246c565b5085935050505092915050565b60006124b182612c61565b6124bb8185612cc7565b9350836020820285016124cd85612c16565b8060005b8581101561250957848403895281516124ea8582612391565b94506124f583612c9c565b925060208a019950506001810190506124d1565b50829750879550505050505092915050565b600061252682612c6c565b6125308185612cd8565b935061253b83612c26565b8060005b8381101561256c57815161255388826123a5565b975061255e83612ca9565b92505060018101905061253f565b5085935050505092915050565b61258281612e07565b82525050565b61259181612e07565b82525050565b60006125a282612c77565b6125ac8185612cfa565b93506125bc818560208601612e28565b6125c581612f92565b840191505092915050565b60006125db82612c77565b6125e58185612d0b565b93506125f5818560208601612e28565b6125fe81612f92565b840191505092915050565b6000815461261681612e5b565b6126208186612d0b565b9450600182166000811461263b576001811461264d57612680565b60ff1983168652602086019350612680565b61265685612c36565b60005b8381101561267857815481890152600182019150602081019050612659565b808801955050505b50505092915050565b6000612696602683612d0b565b91507f4f776e61626c653a206e6577206f776e657220697320746865207a65726f206160008301527f64647265737300000000000000000000000000000000000000000000000000006020830152604082019050919050565b60006126fc601683612d0b565b91507f52657175657374206973206e6f742070656e64696e67000000000000000000006000830152602082019050919050565b600061273c602083612d0b565b91507f4f776e61626c653a2063616c6c6572206973206e6f7420746865206f776e65726000830152602082019050919050565b600061277c601e83612d0b565b91507f496e73756666696369656e742066756e647320666f72207265717565737400006000830152602082019050919050565b60006127bc601f83612d0b565b91507f5265656e7472616e637947756172643a207265656e7472616e742063616c6c006000830152602082019050919050565b60006127fc601d83612d0b565b91507f496e73756666696369656e7420636f6e74726163742062616c616e63650000006000830152602082019050919050565b600061283c601283612d0b565b91507f496e76616c6964207265717565737420494400000000000000000000000000006000830152602082019050919050565b61287881612dfd565b82525050565b61288781612dfd565b82525050565b60006020820190506128a260008301846123db565b92915050565b600060c08201905081810360008301526128c2818961251b565b905081810360208301526128d6818861251b565b905081810360408301526128ea81876123ea565b905081810360608301526128fe81866123ea565b905081810360808301526129128185612448565b905081810360a083015261292681846124a6565b9050979650505050505050565b6000608082019050818103600083015261294d818761251b565b90508181036020830152612961818661251b565b9050818103604083015261297581856124a6565b9050818103606083015261298981846123ea565b905095945050505050565b600060208201905081810360008301526129ae81846125d0565b905092915050565b600060208201905081810360008301526129cf81612689565b9050919050565b600060208201905081810360008301526129ef816126ef565b9050919050565b60006020820190508181036000830152612a0f8161272f565b9050919050565b60006020820190508181036000830152612a2f8161276f565b9050919050565b60006020820190508181036000830152612a4f816127af565b9050919050565b60006020820190508181036000830152612a6f816127ef565b9050919050565b60006020820190508181036000830152612a8f8161282f565b9050919050565b6000602082019050612aab600083018461287e565b92915050565b600060a082019050612ac6600083018861287e565b612ad360208301876123bd565b612ae060408301866123db565b612aed6060830185612588565b8181036080830152612aff81846125d0565b90509695505050505050565b6000604082019050612b20600083018561287e565b8181036020830152612b328184612609565b90509392505050565b600060a082019050612b50600083018861287e565b612b5d602083018761287e565b612b6a60408301866123db565b8181036060830152612b7c81856125d0565b9050612b8b60808301846123db565b9695505050505050565b6000604051905081810181811067ffffffffffffffff82111715612bbc57612bbb612f63565b5b8060405250919050565b600067ffffffffffffffff821115612be157612be0612f63565b5b601f19601f8301169050602081019050919050565b6000819050602082019050919050565b6000819050602082019050919050565b6000819050602082019050919050565b6000819050602082019050919050565b60008190508160005260206000209050919050565b600081519050919050565b600081519050919050565b600081519050919050565b600081519050919050565b600081519050919050565b6000602082019050919050565b6000602082019050919050565b6000602082019050919050565b6000602082019050919050565b600082825260208201905092915050565b600082825260208201905092915050565b600082825260208201905092915050565b600082825260208201905092915050565b600082825260208201905092915050565b600082825260208201905092915050565b6000612d2782612dfd565b9150612d3283612dfd565b9250827fffffffffffffffffffffffffffffffffffffffffffffffffffffffffffffffff03821115612d6757612d66612ed6565b5b828201905092915050565b6000612d7d82612dfd565b9150612d8883612dfd565b925082821015612d9b57612d9a612ed6565b5b828203905092915050565b6000612db182612ddd565b9050919050565b6000612dc382612ddd565b9050919050565b6000819050612dd882612fa3565b919050565b600073ffffffffffffffffffffffffffffffffffffffff82169050919050565b6000819050919050565b6000612e1282612dca565b9050919050565b82818337600083830152505050565b60005b83811015612e46578082015181840152602081019050612e2b565b83811115612e55576000848401525b50505050565b60006002820490506001821680612e7357607f821691505b60208210811415612e8757612e86612f34565b5b50919050565b6000612e9882612dfd565b91507fffffffffffffffffffffffffffffffffffffffffffffffffffffffffffffffff821415612ecb57612eca612ed6565b5b600182019050919050565b7f4e487b7100000000000000000000000000000000000000000000000000000000600052601160045260246000fd5b7f4e487b7100000000000000000000000000000000000000000000000000000000600052602160045260246000fd5b7f4e487b7100000000000000000000000000000000000000000000000000000000600052602260045260246000fd5b7f4e487b7100000000000000000000000000000000000000000000000000000000600052604160045260246000fd5b6000601f19601f8301169050919050565b60038110612fb457612fb3612f05565b5b50565b612fc081612da6565b8114612fcb57600080fd5b50565b612fd781612db8565b8114612fe257600080fd5b50565b612fee81612dfd565b8114612ff957600080fd5b5056fea26469706673582212200bcfe79eb1a80da86534661d290a2610ac0f49c49d96201161df011349e5a0d464736f6c63430008000033",
  "immutableReferences": {},
  "source": "// SPDX-License-Identifier: MIT\npragma solidity ^0.8.0;\n\nimport \"@openzeppelin/contracts/access/Ownable.sol\";\nimport \"@openzeppelin/contracts/utils/math/SafeMath.sol\";\nimport \"@openzeppelin/contracts/security/ReentrancyGuard.sol\";\n\ncontract Fundraiser is Ownable, ReentrancyGuard {\n    using SafeMath for uint256;\n\n    struct Donation {\n        uint256 value;\n        uint256 date;\n        address donor;\n        string fundName;\n        address ngoAddress;\n    }\n\n    struct FundsRequest {\n        uint256 amount;\n        address payable beneficiary;\n        address ngoAddress;\n        RequestStatus status;\n        string fileAddress;\n    }\n\n    enum RequestStatus {\n        Pending,\n        Approved,\n        Rejected\n    }\n\n    mapping(address => Donation[]) public _userDonations;\n    FundsRequest[] public _requests;\n    event DonationReceived(\n        address indexed donor,\n        uint256 value,\n        uint256 indexed date,\n        string fundName,\n        address indexed ngoAddress\n    );\n    event RequestCreated(\n        address indexed beneficiary,\n        uint256 value,\n        address indexed ngoAddress,\n        string fundName,\n        uint256 indexed date\n    );\n    event RequestApproved(\n        address indexed beneficiary,\n        uint256 value,\n        address indexed ngoAddress,\n        string fundName,\n        uint256 indexed date\n    );\n    event RequestRejected(\n        address indexed beneficiary,\n        uint256 value,\n        address indexed ngoAddress,\n        string fundName,\n        uint256 indexed date\n    );\n\n    string public fundName;\n    string public image;\n    string public description;\n    uint256 public goalAmount;\n    uint256 public totalDonations;\n    address public ngoAddress;\n    uint256 public donationsCount;\n\n    constructor(\n        string memory _name,\n        string memory _image,\n        string memory _description,\n        uint256 _goalAmount,\n        address _custodian // This is the address of the user who created the fund\n    ) {\n        fundName = _name;\n        image = _image;\n        description = _description;\n        ngoAddress = _custodian;\n        goalAmount = _goalAmount;\n        _transferOwnership(_custodian); //  This is the address of the user who created the fund\n    }\n\n    function myDonationsCount() public view returns (uint256) {\n        return _userDonations[msg.sender].length;\n    }\n\n    function donate() public payable {\n        Donation memory donation = Donation({\n            value: msg.value,\n            date: block.timestamp,\n            donor: msg.sender,\n            fundName: fundName,\n            ngoAddress: ngoAddress\n        });\n        _userDonations[msg.sender].push(donation);\n        donationsCount++;\n        totalDonations = totalDonations.add(msg.value);\n        emit DonationReceived(\n            msg.sender,\n            msg.value,\n            block.timestamp,\n            fundName,\n            ngoAddress\n        );\n    }\n\n    function allRequests()\n        external\n        view\n        returns (\n            uint256[] memory requestID,\n            uint256[] memory amounts,\n            address[] memory beneficiaries,\n            address[] memory ngoAddresses,\n            RequestStatus[] memory statuses,\n            string[] memory fileAddresses\n        )\n    {\n        uint256 count = _requests.length;\n        requestID = new uint256[](count); // Initialize the requestID array\n        amounts = new uint256[](count);\n        beneficiaries = new address[](count);\n        ngoAddresses = new address[](count);\n        statuses = new RequestStatus[](count);\n\n        for (uint256 i = 0; i < count; i++) {\n            FundsRequest storage request = _requests[i];\n            requestID[i] = i; // Set the request ID\n            amounts[i] = request.amount;\n            beneficiaries[i] = request.beneficiary;\n            ngoAddresses[i] = request.ngoAddress;\n            statuses[i] = request.status;\n            fileAddresses[i] = request.fileAddress;\n        }\n    }\n\n    function myDonations()\n        public\n        view\n        returns (\n            uint256[] memory values,\n            uint256[] memory dates,\n            string[] memory fundNames,\n            address[] memory ngoAddresses\n        )\n    {\n        uint256 count = myDonationsCount();\n        values = new uint256[](count);\n        dates = new uint256[](count);\n        fundNames = new string[](count);\n        ngoAddresses = new address[](count);\n\n        for (uint256 i = 0; i < count; i++) {\n            Donation storage donation = _userDonations[msg.sender][i];\n            values[i] = donation.value;\n            dates[i] = donation.date;\n            fundNames[i] = donation.fundName;\n            ngoAddresses[i] = donation.ngoAddress;\n        }\n    }\n\n    function createRequest(\n        address payable _beneficiary,\n        uint256 _requestAmount,\n        string memory fileAddress\n    ) public {\n        require(\n            totalDonations >= _requestAmount,\n            \"Insufficient funds for request\"\n        );\n\n        _requests.push(\n            FundsRequest({\n                amount: _requestAmount,\n                beneficiary: _beneficiary,\n                ngoAddress: ngoAddress,\n                status: RequestStatus.Pending,\n                fileAddress: fileAddress\n\n            })\n        );\n        emit RequestCreated(\n            _beneficiary,\n            _requestAmount,\n            ngoAddress,\n            fundName,\n            block.timestamp\n        );\n    }\n\n    function approveRequest(uint256 requestId) public onlyOwner nonReentrant {\n        require(requestId < _requests.length, \"Invalid request ID\");\n        FundsRequest storage request = _requests[requestId];\n        require(\n            request.status == RequestStatus.Pending,\n            \"Request is not pending\"\n        );\n        require(\n            address(this).balance >= request.amount,\n            \"Insufficient contract balance\"\n        );\n        totalDonations = totalDonations.sub(request.amount);\n        request.status = RequestStatus.Approved;\n        request.beneficiary.transfer(request.amount);\n\n        emit RequestApproved(\n            request.beneficiary,\n            request.amount,\n            request.ngoAddress,\n            fundName,\n            block.timestamp\n        );\n    }\n\n    function rejectRequest(uint256 requestId) public onlyOwner {\n        require(requestId < _requests.length, \"Invalid request ID\");\n        FundsRequest storage request = _requests[requestId];\n        require(\n            request.status == RequestStatus.Pending,\n            \"Request is not pending\"\n        );\n\n        request.status = RequestStatus.Rejected;\n\n        emit RequestRejected(\n            request.beneficiary,\n            request.amount,\n            request.ngoAddress,\n            fundName,\n            block.timestamp\n        );\n    }\n}\n",
  "sourcePath": "/Users/erickchandra/Documents/code/DApp/contracts/Fundraiser.sol",
  "compiler": {
    "name": "solc",
    "version": "0.8.0+commit.c7dfd78e.Emscripten.clang"
  },
  "schemaVersion": "3.4.16",
  "updatedAt": "2023-12-04T18:48:40.322Z",
  "devdoc": {
    "kind": "dev",
    "methods": {
      "owner()": {
        "details": "Returns the address of the current owner."
      },
      "renounceOwnership()": {
        "details": "Leaves the contract without owner. It will not be possible to call `onlyOwner` functions anymore. Can only be called by the current owner. NOTE: Renouncing ownership will leave the contract without an owner, thereby removing any functionality that is only available to the owner."
      },
      "transferOwnership(address)": {
        "details": "Transfers ownership of the contract to a new account (`newOwner`). Can only be called by the current owner."
      }
    },
    "version": 1
  },
  "userdoc": {
    "kind": "user",
    "methods": {},
    "version": 1
  }
}