{
  "contractName": "Fundraiser",
  "abi": [
    {
      "inputs": [
        {
          "internalType": "string",
          "name": "_name",
          "type": "string"
        },
        {
          "internalType": "string",
          "name": "_image",
          "type": "string"
        },
        {
          "internalType": "string",
          "name": "_description",
          "type": "string"
        },
        {
          "internalType": "uint256",
          "name": "_goalAmount",
          "type": "uint256"
        },
        {
          "internalType": "address",
          "name": "_custodian",
          "type": "address"
        }
      ],
      "stateMutability": "nonpayable",
      "type": "constructor"
    },
    {
      "anonymous": false,
      "inputs": [
        {
          "indexed": true,
          "internalType": "address",
          "name": "donor",
          "type": "address"
        },
        {
          "indexed": false,
          "internalType": "uint256",
          "name": "value",
          "type": "uint256"
        },
        {
          "indexed": true,
          "internalType": "uint256",
          "name": "date",
          "type": "uint256"
        },
        {
          "indexed": false,
          "internalType": "string",
          "name": "fundName",
          "type": "string"
        },
        {
          "indexed": true,
          "internalType": "address",
          "name": "ngoAddress",
          "type": "address"
        }
      ],
      "name": "DonationReceived",
      "type": "event"
    },
    {
      "anonymous": false,
      "inputs": [
        {
          "indexed": true,
          "internalType": "address",
          "name": "previousOwner",
          "type": "address"
        },
        {
          "indexed": true,
          "internalType": "address",
          "name": "newOwner",
          "type": "address"
        }
      ],
      "name": "OwnershipTransferred",
      "type": "event"
    },
    {
      "anonymous": false,
      "inputs": [
        {
          "indexed": true,
          "internalType": "address",
          "name": "beneficiary",
          "type": "address"
        },
        {
          "indexed": false,
          "internalType": "uint256",
          "name": "value",
          "type": "uint256"
        },
        {
          "indexed": true,
          "internalType": "address",
          "name": "ngoAddress",
          "type": "address"
        },
        {
          "indexed": false,
          "internalType": "string",
          "name": "fundName",
          "type": "string"
        },
        {
          "indexed": true,
          "internalType": "uint256",
          "name": "date",
          "type": "uint256"
        }
      ],
      "name": "RequestApproved",
      "type": "event"
    },
    {
      "anonymous": false,
      "inputs": [
        {
          "indexed": true,
          "internalType": "address",
          "name": "beneficiary",
          "type": "address"
        },
        {
          "indexed": false,
          "internalType": "uint256",
          "name": "value",
          "type": "uint256"
        },
        {
          "indexed": true,
          "internalType": "address",
          "name": "ngoAddress",
          "type": "address"
        },
        {
          "indexed": false,
          "internalType": "string",
          "name": "fundName",
          "type": "string"
        },
        {
          "indexed": true,
          "internalType": "uint256",
          "name": "date",
          "type": "uint256"
        }
      ],
      "name": "RequestCreated",
      "type": "event"
    },
    {
      "anonymous": false,
      "inputs": [
        {
          "indexed": true,
          "internalType": "address",
          "name": "beneficiary",
          "type": "address"
        },
        {
          "indexed": false,
          "internalType": "uint256",
          "name": "value",
          "type": "uint256"
        },
        {
          "indexed": true,
          "internalType": "address",
          "name": "ngoAddress",
          "type": "address"
        },
        {
          "indexed": false,
          "internalType": "string",
          "name": "fundName",
          "type": "string"
        },
        {
          "indexed": true,
          "internalType": "uint256",
          "name": "date",
          "type": "uint256"
        }
      ],
      "name": "RequestRejected",
      "type": "event"
    },
    {
      "inputs": [
        {
          "internalType": "uint256",
          "name": "",
          "type": "uint256"
        }
      ],
      "name": "_requests",
      "outputs": [
        {
          "internalType": "uint256",
          "name": "amount",
          "type": "uint256"
        },
        {
          "internalType": "address payable",
          "name": "beneficiary",
          "type": "address"
        },
        {
          "internalType": "address",
          "name": "ngoAddress",
          "type": "address"
        },
        {
          "internalType": "enum Fundraiser.RequestStatus",
          "name": "status",
          "type": "uint8"
        }
      ],
      "stateMutability": "view",
      "type": "function"
    },
    {
      "inputs": [
        {
          "internalType": "address",
          "name": "",
          "type": "address"
        },
        {
          "internalType": "uint256",
          "name": "",
          "type": "uint256"
        }
      ],
      "name": "_userDonations",
      "outputs": [
        {
          "internalType": "uint256",
          "name": "value",
          "type": "uint256"
        },
        {
          "internalType": "uint256",
          "name": "date",
          "type": "uint256"
        },
        {
          "internalType": "address",
          "name": "donor",
          "type": "address"
        },
        {
          "internalType": "string",
          "name": "fundName",
          "type": "string"
        },
        {
          "internalType": "address",
          "name": "ngoAddress",
          "type": "address"
        }
      ],
      "stateMutability": "view",
      "type": "function"
    },
    {
      "inputs": [],
      "name": "description",
      "outputs": [
        {
          "internalType": "string",
          "name": "",
          "type": "string"
        }
      ],
      "stateMutability": "view",
      "type": "function"
    },
    {
      "inputs": [],
      "name": "donationsCount",
      "outputs": [
        {
          "internalType": "uint256",
          "name": "",
          "type": "uint256"
        }
      ],
      "stateMutability": "view",
      "type": "function"
    },
    {
      "inputs": [],
      "name": "fundName",
      "outputs": [
        {
          "internalType": "string",
          "name": "",
          "type": "string"
        }
      ],
      "stateMutability": "view",
      "type": "function"
    },
    {
      "inputs": [],
      "name": "goalAmount",
      "outputs": [
        {
          "internalType": "uint256",
          "name": "",
          "type": "uint256"
        }
      ],
      "stateMutability": "view",
      "type": "function"
    },
    {
      "inputs": [],
      "name": "image",
      "outputs": [
        {
          "internalType": "string",
          "name": "",
          "type": "string"
        }
      ],
      "stateMutability": "view",
      "type": "function"
    },
    {
      "inputs": [],
      "name": "ngoAddress",
      "outputs": [
        {
          "internalType": "address",
          "name": "",
          "type": "address"
        }
      ],
      "stateMutability": "view",
      "type": "function"
    },
    {
      "inputs": [],
      "name": "owner",
      "outputs": [
        {
          "internalType": "address",
          "name": "",
          "type": "address"
        }
      ],
      "stateMutability": "view",
      "type": "function"
    },
    {
      "inputs": [],
      "name": "renounceOwnership",
      "outputs": [],
      "stateMutability": "nonpayable",
      "type": "function"
    },
    {
      "inputs": [],
      "name": "totalDonations",
      "outputs": [
        {
          "internalType": "uint256",
          "name": "",
          "type": "uint256"
        }
      ],
      "stateMutability": "view",
      "type": "function"
    },
    {
      "inputs": [
        {
          "internalType": "address",
          "name": "newOwner",
          "type": "address"
        }
      ],
      "name": "transferOwnership",
      "outputs": [],
      "stateMutability": "nonpayable",
      "type": "function"
    },
    {
      "inputs": [],
      "name": "myDonationsCount",
      "outputs": [
        {
          "internalType": "uint256",
          "name": "",
          "type": "uint256"
        }
      ],
      "stateMutability": "view",
      "type": "function"
    },
    {
      "inputs": [],
      "name": "donate",
      "outputs": [],
      "stateMutability": "payable",
      "type": "function"
    },
    {
      "inputs": [],
      "name": "allRequests",
      "outputs": [
        {
          "internalType": "uint256[]",
          "name": "requestID",
          "type": "uint256[]"
        },
        {
          "internalType": "uint256[]",
          "name": "amounts",
          "type": "uint256[]"
        },
        {
          "internalType": "address[]",
          "name": "beneficiaries",
          "type": "address[]"
        },
        {
          "internalType": "address[]",
          "name": "ngoAddresses",
          "type": "address[]"
        },
        {
          "internalType": "enum Fundraiser.RequestStatus[]",
          "name": "statuses",
          "type": "uint8[]"
        }
      ],
      "stateMutability": "view",
      "type": "function"
    },
    {
      "inputs": [],
      "name": "myDonations",
      "outputs": [
        {
          "internalType": "uint256[]",
          "name": "values",
          "type": "uint256[]"
        },
        {
          "internalType": "uint256[]",
          "name": "dates",
          "type": "uint256[]"
        },
        {
          "internalType": "string[]",
          "name": "fundNames",
          "type": "string[]"
        },
        {
          "internalType": "address[]",
          "name": "ngoAddresses",
          "type": "address[]"
        }
      ],
      "stateMutability": "view",
      "type": "function"
    },
    {
      "inputs": [
        {
          "internalType": "address payable",
          "name": "_beneficiary",
          "type": "address"
        },
        {
          "internalType": "uint256",
          "name": "_requestAmount",
          "type": "uint256"
        }
      ],
      "name": "createRequest",
      "outputs": [],
      "stateMutability": "nonpayable",
      "type": "function"
    },
    {
      "inputs": [
        {
          "internalType": "uint256",
          "name": "requestId",
          "type": "uint256"
        }
      ],
      "name": "approveRequest",
      "outputs": [],
      "stateMutability": "nonpayable",
      "type": "function"
    },
    {
      "inputs": [
        {
          "internalType": "uint256",
          "name": "requestId",
          "type": "uint256"
        }
      ],
      "name": "rejectRequest",
      "outputs": [],
      "stateMutability": "nonpayable",
      "type": "function"
    }
  ],
  "bytecode": "0x60806040523480156200001157600080fd5b506040516200330c3803806200330c833981810160405281019062000037919062000329565b620000576200004b6200010d60201b60201c565b6200011560201b60201c565b60018081905550846004908051906020019062000076929190620001d9565b5083600590805190602001906200008f929190620001d9565b508260069080519060200190620000a8929190620001d9565b5080600960006101000a81548173ffffffffffffffffffffffffffffffffffffffff021916908373ffffffffffffffffffffffffffffffffffffffff1602179055508160078190555062000102816200011560201b60201c565b505050505062000599565b600033905090565b60008060009054906101000a900473ffffffffffffffffffffffffffffffffffffffff169050816000806101000a81548173ffffffffffffffffffffffffffffffffffffffff021916908373ffffffffffffffffffffffffffffffffffffffff1602179055508173ffffffffffffffffffffffffffffffffffffffff168173ffffffffffffffffffffffffffffffffffffffff167f8be0079c531659141344cd1fd0a4f28419497f9722a3daafe3b4186f6b6457e060405160405180910390a35050565b828054620001e790620004d1565b90600052602060002090601f0160209004810192826200020b576000855562000257565b82601f106200022657805160ff191683800117855562000257565b8280016001018555821562000257579182015b828111156200025657825182559160200191906001019062000239565b5b5090506200026691906200026a565b5090565b5b80821115620002855760008160009055506001016200026b565b5090565b6000620002a06200029a846200042a565b620003f6565b905082815260208101848484011115620002b957600080fd5b620002c68482856200049b565b509392505050565b600081519050620002df8162000565565b92915050565b600082601f830112620002f757600080fd5b81516200030984826020860162000289565b91505092915050565b60008151905062000323816200057f565b92915050565b600080600080600060a086880312156200034257600080fd5b600086015167ffffffffffffffff8111156200035d57600080fd5b6200036b88828901620002e5565b955050602086015167ffffffffffffffff8111156200038957600080fd5b6200039788828901620002e5565b945050604086015167ffffffffffffffff811115620003b557600080fd5b620003c388828901620002e5565b9350506060620003d68882890162000312565b9250506080620003e988828901620002ce565b9150509295509295909350565b6000604051905081810181811067ffffffffffffffff8211171562000420576200041f62000536565b5b8060405250919050565b600067ffffffffffffffff82111562000448576200044762000536565b5b601f19601f8301169050602081019050919050565b60006200046a8262000471565b9050919050565b600073ffffffffffffffffffffffffffffffffffffffff82169050919050565b6000819050919050565b60005b83811015620004bb5780820151818401526020810190506200049e565b83811115620004cb576000848401525b50505050565b60006002820490506001821680620004ea57607f821691505b6020821081141562000501576200050062000507565b5b50919050565b7f4e487b7100000000000000000000000000000000000000000000000000000000600052602260045260246000fd5b7f4e487b7100000000000000000000000000000000000000000000000000000000600052604160045260246000fd5b62000570816200045d565b81146200057c57600080fd5b50565b6200058a8162000491565b81146200059657600080fd5b50565b612d6380620005a96000396000f3fe6080604052600436106101145760003560e01c80639ce1413b116100a0578063de2ed89311610064578063de2ed8931461038d578063ed88c68e146103b8578063edc08925146103c2578063f2fde38b146103eb578063f3ccaac01461041457610114565b80639ce1413b1461028d578063bff60c0f146102b8578063ccf179b0146102f8578063d251e51d14610323578063d7d1bbdb1461036457610114565b80632d7788db116100e75780632d7788db146101c8578063715018a6146101f15780637284e416146102085780638a4473a9146102335780638da5cb5b1461026257610114565b80630180b97c146101195780631a57f7b4146101445780631f522595146101725780632636b9451461019d575b600080fd5b34801561012557600080fd5b5061012e61043f565b60405161013b919061287b565b60405180910390f35b34801561015057600080fd5b50610159610489565b6040516101699493929190612718565b60405180910390f35b34801561017e57600080fd5b50610187610911565b604051610194919061287b565b60405180910390f35b3480156101a957600080fd5b506101b2610917565b6040516101bf919061287b565b60405180910390f35b3480156101d457600080fd5b506101ef60048036038101906101ea9190612132565b61091d565b005b3480156101fd57600080fd5b50610206610b88565b005b34801561021457600080fd5b5061021d610b9c565b60405161022a9190612779565b60405180910390f35b34801561023f57600080fd5b50610248610c2a565b6040516102599594939291906126a2565b60405180910390f35b34801561026e57600080fd5b5061027761116e565b6040516102849190612687565b60405180910390f35b34801561029957600080fd5b506102a2611197565b6040516102af9190612779565b60405180910390f35b3480156102c457600080fd5b506102df60048036038101906102da9190612132565b611225565b6040516102ef9493929190612896565b60405180910390f35b34801561030457600080fd5b5061030d6112b2565b60405161031a9190612687565b60405180910390f35b34801561032f57600080fd5b5061034a600480360381019061034591906120f6565b6112d8565b60405161035b95949392919061290b565b60405180910390f35b34801561037057600080fd5b5061038b60048036038101906103869190612132565b6113f3565b005b34801561039957600080fd5b506103a2611743565b6040516103af919061287b565b60405180910390f35b6103c0611749565b005b3480156103ce57600080fd5b506103e960048036038101906103e491906120ba565b611a37565b005b3480156103f757600080fd5b50610412600480360381019061040d9190612091565b611cce565b005b34801561042057600080fd5b50610429611d52565b6040516104369190612779565b60405180910390f35b6000600260003373ffffffffffffffffffffffffffffffffffffffff1673ffffffffffffffffffffffffffffffffffffffff16815260200190815260200160002080549050905090565b606080606080600061049961043f565b90508067ffffffffffffffff8111156104db577f4e487b7100000000000000000000000000000000000000000000000000000000600052604160045260246000fd5b6040519080825280602002602001820160405280156105095781602001602082028036833780820191505090505b5094508067ffffffffffffffff81111561054c577f4e487b7100000000000000000000000000000000000000000000000000000000600052604160045260246000fd5b60405190808252806020026020018201604052801561057a5781602001602082028036833780820191505090505b5093508067ffffffffffffffff8111156105bd577f4e487b7100000000000000000000000000000000000000000000000000000000600052604160045260246000fd5b6040519080825280602002602001820160405280156105f057816020015b60608152602001906001900390816105db5790505b5092508067ffffffffffffffff811115610633577f4e487b7100000000000000000000000000000000000000000000000000000000600052604160045260246000fd5b6040519080825280602002602001820160405280156106615781602001602082028036833780820191505090505b50915060005b81811015610909576000600260003373ffffffffffffffffffffffffffffffffffffffff1673ffffffffffffffffffffffffffffffffffffffff16815260200190815260200160002082815481106106e8577f4e487b7100000000000000000000000000000000000000000000000000000000600052603260045260246000fd5b906000526020600020906005020190508060000154878381518110610736577f4e487b7100000000000000000000000000000000000000000000000000000000600052603260045260246000fd5b6020026020010181815250508060010154868381518110610780577f4e487b7100000000000000000000000000000000000000000000000000000000600052603260045260246000fd5b60200260200101818152505080600301805461079b90612bbb565b80601f01602080910402602001604051908101604052809291908181526020018280546107c790612bbb565b80156108145780601f106107e957610100808354040283529160200191610814565b820191906000526020600020905b8154815290600101906020018083116107f757829003601f168201915b5050505050858381518110610852577f4e487b7100000000000000000000000000000000000000000000000000000000600052603260045260246000fd5b60200260200101819052508060040160009054906101000a900473ffffffffffffffffffffffffffffffffffffffff168483815181106108bb577f4e487b7100000000000000000000000000000000000000000000000000000000600052603260045260246000fd5b602002602001019073ffffffffffffffffffffffffffffffffffffffff16908173ffffffffffffffffffffffffffffffffffffffff168152505050808061090190612bed565b915050610667565b505090919293565b600a5481565b60075481565b610925611de0565b600380549050811061096c576040517f08c379a00000000000000000000000000000000000000000000000000000000081526004016109639061285b565b60405180910390fd5b6000600382815481106109a8577f4e487b7100000000000000000000000000000000000000000000000000000000600052603260045260246000fd5b90600052602060002090600302019050600060028111156109f2577f4e487b7100000000000000000000000000000000000000000000000000000000600052602160045260246000fd5b8160020160149054906101000a900460ff166002811115610a3c577f4e487b7100000000000000000000000000000000000000000000000000000000600052602160045260246000fd5b14610a7c576040517f08c379a0000000000000000000000000000000000000000000000000000000008152600401610a73906127bb565b60405180910390fd5b60028160020160146101000a81548160ff02191690836002811115610aca577f4e487b7100000000000000000000000000000000000000000000000000000000600052602160045260246000fd5b0217905550428160020160009054906101000a900473ffffffffffffffffffffffffffffffffffffffff1673ffffffffffffffffffffffffffffffffffffffff168260010160009054906101000a900473ffffffffffffffffffffffffffffffffffffffff1673ffffffffffffffffffffffffffffffffffffffff167f592da2f7c068823877ad9923447991ff1ee3158fbbd064f0fcc896847bc048e384600001546004604051610b7c9291906128db565b60405180910390a45050565b610b90611de0565b610b9a6000611e5e565b565b60068054610ba990612bbb565b80601f0160208091040260200160405190810160405280929190818152602001828054610bd590612bbb565b8015610c225780601f10610bf757610100808354040283529160200191610c22565b820191906000526020600020905b815481529060010190602001808311610c0557829003601f168201915b505050505081565b6060806060806060600060038054905090508067ffffffffffffffff811115610c7c577f4e487b7100000000000000000000000000000000000000000000000000000000600052604160045260246000fd5b604051908082528060200260200182016040528015610caa5781602001602082028036833780820191505090505b5095508067ffffffffffffffff811115610ced577f4e487b7100000000000000000000000000000000000000000000000000000000600052604160045260246000fd5b604051908082528060200260200182016040528015610d1b5781602001602082028036833780820191505090505b5094508067ffffffffffffffff811115610d5e577f4e487b7100000000000000000000000000000000000000000000000000000000600052604160045260246000fd5b604051908082528060200260200182016040528015610d8c5781602001602082028036833780820191505090505b5093508067ffffffffffffffff811115610dcf577f4e487b7100000000000000000000000000000000000000000000000000000000600052604160045260246000fd5b604051908082528060200260200182016040528015610dfd5781602001602082028036833780820191505090505b5092508067ffffffffffffffff811115610e40577f4e487b7100000000000000000000000000000000000000000000000000000000600052604160045260246000fd5b604051908082528060200260200182016040528015610e6e5781602001602082028036833780820191505090505b50915060005b8181101561116557600060038281548110610eb8577f4e487b7100000000000000000000000000000000000000000000000000000000600052603260045260246000fd5b9060005260206000209060030201905081888381518110610f02577f4e487b7100000000000000000000000000000000000000000000000000000000600052603260045260246000fd5b6020026020010181815250508060000154878381518110610f4c577f4e487b7100000000000000000000000000000000000000000000000000000000600052603260045260246000fd5b6020026020010181815250508060010160009054906101000a900473ffffffffffffffffffffffffffffffffffffffff16868381518110610fb6577f4e487b7100000000000000000000000000000000000000000000000000000000600052603260045260246000fd5b602002602001019073ffffffffffffffffffffffffffffffffffffffff16908173ffffffffffffffffffffffffffffffffffffffff16815250508060020160009054906101000a900473ffffffffffffffffffffffffffffffffffffffff1685838151811061104e577f4e487b7100000000000000000000000000000000000000000000000000000000600052603260045260246000fd5b602002602001019073ffffffffffffffffffffffffffffffffffffffff16908173ffffffffffffffffffffffffffffffffffffffff16815250508060020160149054906101000a900460ff168483815181106110d3577f4e487b7100000000000000000000000000000000000000000000000000000000600052603260045260246000fd5b60200260200101906002811115611113577f4e487b7100000000000000000000000000000000000000000000000000000000600052602160045260246000fd5b9081600281111561114d577f4e487b7100000000000000000000000000000000000000000000000000000000600052602160045260246000fd5b8152505050808061115d90612bed565b915050610e74565b50509091929394565b60008060009054906101000a900473ffffffffffffffffffffffffffffffffffffffff16905090565b600480546111a490612bbb565b80601f01602080910402602001604051908101604052809291908181526020018280546111d090612bbb565b801561121d5780601f106111f25761010080835404028352916020019161121d565b820191906000526020600020905b81548152906001019060200180831161120057829003601f168201915b505050505081565b6003818154811061123557600080fd5b90600052602060002090600302016000915090508060000154908060010160009054906101000a900473ffffffffffffffffffffffffffffffffffffffff16908060020160009054906101000a900473ffffffffffffffffffffffffffffffffffffffff16908060020160149054906101000a900460ff16905084565b600960009054906101000a900473ffffffffffffffffffffffffffffffffffffffff1681565b600260205281600052604060002081815481106112f457600080fd5b9060005260206000209060050201600091509150508060000154908060010154908060020160009054906101000a900473ffffffffffffffffffffffffffffffffffffffff169080600301805461134a90612bbb565b80601f016020809104026020016040519081016040528092919081815260200182805461137690612bbb565b80156113c35780601f10611398576101008083540402835291602001916113c3565b820191906000526020600020905b8154815290600101906020018083116113a657829003601f168201915b5050505050908060040160009054906101000a900473ffffffffffffffffffffffffffffffffffffffff16905085565b6113fb611de0565b611403611f22565b600380549050811061144a576040517f08c379a00000000000000000000000000000000000000000000000000000000081526004016114419061285b565b60405180910390fd5b600060038281548110611486577f4e487b7100000000000000000000000000000000000000000000000000000000600052603260045260246000fd5b90600052602060002090600302019050600060028111156114d0577f4e487b7100000000000000000000000000000000000000000000000000000000600052602160045260246000fd5b8160020160149054906101000a900460ff16600281111561151a577f4e487b7100000000000000000000000000000000000000000000000000000000600052602160045260246000fd5b1461155a576040517f08c379a0000000000000000000000000000000000000000000000000000000008152600401611551906127bb565b60405180910390fd5b80600001544710156115a1576040517f08c379a00000000000000000000000000000000000000000000000000000000081526004016115989061283b565b60405180910390fd5b6115ba8160000154600854611f7290919063ffffffff16565b60088190555060018160020160146101000a81548160ff0219169083600281111561160e577f4e487b7100000000000000000000000000000000000000000000000000000000600052602160045260246000fd5b02179055508060010160009054906101000a900473ffffffffffffffffffffffffffffffffffffffff1673ffffffffffffffffffffffffffffffffffffffff166108fc82600001549081150290604051600060405180830381858888f19350505050158015611681573d6000803e3d6000fd5b50428160020160009054906101000a900473ffffffffffffffffffffffffffffffffffffffff1673ffffffffffffffffffffffffffffffffffffffff168260010160009054906101000a900473ffffffffffffffffffffffffffffffffffffffff1673ffffffffffffffffffffffffffffffffffffffff167f533ca94f7a1d6423d4b59b9a7bd0225c6e15af6eedcb566408c3f6942bdfe5828460000154600460405161172f9291906128db565b60405180910390a450611740611f88565b50565b60085481565b60006040518060a001604052803481526020014281526020013373ffffffffffffffffffffffffffffffffffffffff1681526020016004805461178b90612bbb565b80601f01602080910402602001604051908101604052809291908181526020018280546117b790612bbb565b80156118045780601f106117d957610100808354040283529160200191611804565b820191906000526020600020905b8154815290600101906020018083116117e757829003601f168201915b50505050508152602001600960009054906101000a900473ffffffffffffffffffffffffffffffffffffffff1673ffffffffffffffffffffffffffffffffffffffff168152509050600260003373ffffffffffffffffffffffffffffffffffffffff1673ffffffffffffffffffffffffffffffffffffffff168152602001908152602001600020819080600181540180825580915050600190039060005260206000209060050201600090919091909150600082015181600001556020820151816001015560408201518160020160006101000a81548173ffffffffffffffffffffffffffffffffffffffff021916908373ffffffffffffffffffffffffffffffffffffffff160217905550606082015181600301908051906020019061192c929190611faf565b5060808201518160040160006101000a81548173ffffffffffffffffffffffffffffffffffffffff021916908373ffffffffffffffffffffffffffffffffffffffff1602179055505050600a600081548092919061198990612bed565b91905055506119a334600854611f9190919063ffffffff16565b600881905550600960009054906101000a900473ffffffffffffffffffffffffffffffffffffffff1673ffffffffffffffffffffffffffffffffffffffff16423373ffffffffffffffffffffffffffffffffffffffff167f385b33bb5da3a6a3451f9ff1a8da6d5a24660f02a2d129d92093b3fc76df707f346004604051611a2c9291906128db565b60405180910390a450565b806008541015611a7c576040517f08c379a0000000000000000000000000000000000000000000000000000000008152600401611a73906127fb565b60405180910390fd5b600360405180608001604052808381526020018473ffffffffffffffffffffffffffffffffffffffff168152602001600960009054906101000a900473ffffffffffffffffffffffffffffffffffffffff1673ffffffffffffffffffffffffffffffffffffffff16815260200160006002811115611b23577f4e487b7100000000000000000000000000000000000000000000000000000000600052602160045260246000fd5b81525090806001815401808255809150506001900390600052602060002090600302016000909190919091506000820151816000015560208201518160010160006101000a81548173ffffffffffffffffffffffffffffffffffffffff021916908373ffffffffffffffffffffffffffffffffffffffff16021790555060408201518160020160006101000a81548173ffffffffffffffffffffffffffffffffffffffff021916908373ffffffffffffffffffffffffffffffffffffffff16021790555060608201518160020160146101000a81548160ff02191690836002811115611c38577f4e487b7100000000000000000000000000000000000000000000000000000000600052602160045260246000fd5b0217905550505042600960009054906101000a900473ffffffffffffffffffffffffffffffffffffffff1673ffffffffffffffffffffffffffffffffffffffff168373ffffffffffffffffffffffffffffffffffffffff167f54a9c83be540f00741b15590dcfdbbd18807cc3c832b6e77c01f8fbc6d316605846004604051611cc29291906128db565b60405180910390a45050565b611cd6611de0565b600073ffffffffffffffffffffffffffffffffffffffff168173ffffffffffffffffffffffffffffffffffffffff161415611d46576040517f08c379a0000000000000000000000000000000000000000000000000000000008152600401611d3d9061279b565b60405180910390fd5b611d4f81611e5e565b50565b60058054611d5f90612bbb565b80601f0160208091040260200160405190810160405280929190818152602001828054611d8b90612bbb565b8015611dd85780601f10611dad57610100808354040283529160200191611dd8565b820191906000526020600020905b815481529060010190602001808311611dbb57829003601f168201915b505050505081565b611de8611fa7565b73ffffffffffffffffffffffffffffffffffffffff16611e0661116e565b73ffffffffffffffffffffffffffffffffffffffff1614611e5c576040517f08c379a0000000000000000000000000000000000000000000000000000000008152600401611e53906127db565b60405180910390fd5b565b60008060009054906101000a900473ffffffffffffffffffffffffffffffffffffffff169050816000806101000a81548173ffffffffffffffffffffffffffffffffffffffff021916908373ffffffffffffffffffffffffffffffffffffffff1602179055508173ffffffffffffffffffffffffffffffffffffffff168173ffffffffffffffffffffffffffffffffffffffff167f8be0079c531659141344cd1fd0a4f28419497f9722a3daafe3b4186f6b6457e060405160405180910390a35050565b60026001541415611f68576040517f08c379a0000000000000000000000000000000000000000000000000000000008152600401611f5f9061281b565b60405180910390fd5b6002600181905550565b60008183611f809190612ae1565b905092915050565b60018081905550565b60008183611f9f9190612a8b565b905092915050565b600033905090565b828054611fbb90612bbb565b90600052602060002090601f016020900481019282611fdd5760008555612024565b82601f10611ff657805160ff1916838001178555612024565b82800160010185558215612024579182015b82811115612023578251825591602001919060010190612008565b5b5090506120319190612035565b5090565b5b8082111561204e576000816000905550600101612036565b5090565b60008135905061206181612ce8565b92915050565b60008135905061207681612cff565b92915050565b60008135905061208b81612d16565b92915050565b6000602082840312156120a357600080fd5b60006120b184828501612052565b91505092915050565b600080604083850312156120cd57600080fd5b60006120db85828601612067565b92505060206120ec8582860161207c565b9150509250929050565b6000806040838503121561210957600080fd5b600061211785828601612052565b92505060206121288582860161207c565b9150509250929050565b60006020828403121561214457600080fd5b60006121528482850161207c565b91505092915050565b600061216783836121c6565b60208301905092915050565b600061217f8383612373565b60208301905092915050565b60006121978383612391565b905092915050565b60006121ab8383612669565b60208301905092915050565b6121c081612b27565b82525050565b6121cf81612b15565b82525050565b6121de81612b15565b82525050565b60006121ef826129ba565b6121f98185612a25565b935061220483612965565b8060005b8381101561223557815161221c888261215b565b9750612227836129f1565b925050600181019050612208565b5085935050505092915050565b600061224d826129c5565b6122578185612a58565b935061226283612975565b8060005b8381101561229357815161227a8882612173565b9750612285836129fe565b925050600181019050612266565b5085935050505092915050565b60006122ab826129d0565b6122b58185612a36565b9350836020820285016122c785612985565b8060005b8581101561230357848403895281516122e4858261218b565b94506122ef83612a0b565b925060208a019950506001810190506122cb565b50829750879550505050505092915050565b6000612320826129db565b61232a8185612a47565b935061233583612995565b8060005b8381101561236657815161234d888261219f565b975061235883612a18565b925050600181019050612339565b5085935050505092915050565b61237c81612b76565b82525050565b61238b81612b76565b82525050565b600061239c826129e6565b6123a68185612a69565b93506123b6818560208601612b88565b6123bf81612cc3565b840191505092915050565b60006123d5826129e6565b6123df8185612a7a565b93506123ef818560208601612b88565b6123f881612cc3565b840191505092915050565b6000815461241081612bbb565b61241a8186612a7a565b9450600182166000811461243557600181146124475761247a565b60ff198316865260208601935061247a565b612450856129a5565b60005b8381101561247257815481890152600182019150602081019050612453565b808801955050505b50505092915050565b6000612490602683612a7a565b91507f4f776e61626c653a206e6577206f776e657220697320746865207a65726f206160008301527f64647265737300000000000000000000000000000000000000000000000000006020830152604082019050919050565b60006124f6601683612a7a565b91507f52657175657374206973206e6f742070656e64696e67000000000000000000006000830152602082019050919050565b6000612536602083612a7a565b91507f4f776e61626c653a2063616c6c6572206973206e6f7420746865206f776e65726000830152602082019050919050565b6000612576601e83612a7a565b91507f496e73756666696369656e742066756e647320666f72207265717565737400006000830152602082019050919050565b60006125b6601f83612a7a565b91507f5265656e7472616e637947756172643a207265656e7472616e742063616c6c006000830152602082019050919050565b60006125f6601d83612a7a565b91507f496e73756666696369656e7420636f6e74726163742062616c616e63650000006000830152602082019050919050565b6000612636601283612a7a565b91507f496e76616c6964207265717565737420494400000000000000000000000000006000830152602082019050919050565b61267281612b6c565b82525050565b61268181612b6c565b82525050565b600060208201905061269c60008301846121d5565b92915050565b600060a08201905081810360008301526126bc8188612315565b905081810360208301526126d08187612315565b905081810360408301526126e481866121e4565b905081810360608301526126f881856121e4565b9050818103608083015261270c8184612242565b90509695505050505050565b600060808201905081810360008301526127328187612315565b905081810360208301526127468186612315565b9050818103604083015261275a81856122a0565b9050818103606083015261276e81846121e4565b905095945050505050565b6000602082019050818103600083015261279381846123ca565b905092915050565b600060208201905081810360008301526127b481612483565b9050919050565b600060208201905081810360008301526127d4816124e9565b9050919050565b600060208201905081810360008301526127f481612529565b9050919050565b6000602082019050818103600083015261281481612569565b9050919050565b60006020820190508181036000830152612834816125a9565b9050919050565b60006020820190508181036000830152612854816125e9565b9050919050565b6000602082019050818103600083015261287481612629565b9050919050565b60006020820190506128906000830184612678565b92915050565b60006080820190506128ab6000830187612678565b6128b860208301866121b7565b6128c560408301856121d5565b6128d26060830184612382565b95945050505050565b60006040820190506128f06000830185612678565b81810360208301526129028184612403565b90509392505050565b600060a0820190506129206000830188612678565b61292d6020830187612678565b61293a60408301866121d5565b818103606083015261294c81856123ca565b905061295b60808301846121d5565b9695505050505050565b6000819050602082019050919050565b6000819050602082019050919050565b6000819050602082019050919050565b6000819050602082019050919050565b60008190508160005260206000209050919050565b600081519050919050565b600081519050919050565b600081519050919050565b600081519050919050565b600081519050919050565b6000602082019050919050565b6000602082019050919050565b6000602082019050919050565b6000602082019050919050565b600082825260208201905092915050565b600082825260208201905092915050565b600082825260208201905092915050565b600082825260208201905092915050565b600082825260208201905092915050565b600082825260208201905092915050565b6000612a9682612b6c565b9150612aa183612b6c565b9250827fffffffffffffffffffffffffffffffffffffffffffffffffffffffffffffffff03821115612ad657612ad5612c36565b5b828201905092915050565b6000612aec82612b6c565b9150612af783612b6c565b925082821015612b0a57612b09612c36565b5b828203905092915050565b6000612b2082612b4c565b9050919050565b6000612b3282612b4c565b9050919050565b6000819050612b4782612cd4565b919050565b600073ffffffffffffffffffffffffffffffffffffffff82169050919050565b6000819050919050565b6000612b8182612b39565b9050919050565b60005b83811015612ba6578082015181840152602081019050612b8b565b83811115612bb5576000848401525b50505050565b60006002820490506001821680612bd357607f821691505b60208210811415612be757612be6612c94565b5b50919050565b6000612bf882612b6c565b91507fffffffffffffffffffffffffffffffffffffffffffffffffffffffffffffffff821415612c2b57612c2a612c36565b5b600182019050919050565b7f4e487b7100000000000000000000000000000000000000000000000000000000600052601160045260246000fd5b7f4e487b7100000000000000000000000000000000000000000000000000000000600052602160045260246000fd5b7f4e487b7100000000000000000000000000000000000000000000000000000000600052602260045260246000fd5b6000601f19601f8301169050919050565b60038110612ce557612ce4612c65565b5b50565b612cf181612b15565b8114612cfc57600080fd5b50565b612d0881612b27565b8114612d1357600080fd5b50565b612d1f81612b6c565b8114612d2a57600080fd5b5056fea2646970667358221220623ccb3a3c08e7a3885a8914901290e9769342817e9c34ecd38f15c4a8590bd364736f6c63430008000033",
  "immutableReferences": {},
  "source": "// SPDX-License-Identifier: MIT\npragma solidity ^0.8.0;\n\nimport \"@openzeppelin/contracts/access/Ownable.sol\";\nimport \"@openzeppelin/contracts/utils/math/SafeMath.sol\";\nimport \"@openzeppelin/contracts/security/ReentrancyGuard.sol\";\n\ncontract Fundraiser is Ownable, ReentrancyGuard {\n    using SafeMath for uint256;\n\n    struct Donation {\n        uint256 value;\n        uint256 date;\n        address donor;\n        string fundName;\n        address ngoAddress;\n    }\n\n    struct FundsRequest {\n        uint256 amount;\n        address payable beneficiary;\n        address ngoAddress;\n        RequestStatus status;\n    }\n\n    enum RequestStatus {\n        Pending,\n        Approved,\n        Rejected\n    }\n\n    mapping(address => Donation[]) public _userDonations;\n    FundsRequest[] public _requests;\n    event DonationReceived(\n        address indexed donor,\n        uint256 value,\n        uint256 indexed date,\n        string fundName,\n        address indexed ngoAddress\n    );\n    event RequestCreated(\n        address indexed beneficiary,\n        uint256 value,\n        address indexed ngoAddress,\n        string fundName,\n        uint256 indexed date\n    );\n    event RequestApproved(\n        address indexed beneficiary,\n        uint256 value,\n        address indexed ngoAddress,\n        string fundName,\n        uint256 indexed date\n    );\n    event RequestRejected(\n        address indexed beneficiary,\n        uint256 value,\n        address indexed ngoAddress,\n        string fundName,\n        uint256 indexed date\n    );\n\n    string public fundName;\n    string public image;\n    string public description;\n    uint256 public goalAmount;\n    uint256 public totalDonations;\n    address public ngoAddress;\n    uint256 public donationsCount;\n\n    constructor(\n        string memory _name,\n        string memory _image,\n        string memory _description,\n        uint256 _goalAmount,\n        address _custodian // This is the address of the user who created the fund\n    ) {\n        fundName = _name;\n        image = _image;\n        description = _description;\n        ngoAddress = _custodian;\n        goalAmount = _goalAmount;\n        _transferOwnership(_custodian); //  This is the address of the user who created the fund\n    }\n\n    function myDonationsCount() public view returns (uint256) {\n        return _userDonations[msg.sender].length;\n    }\n\n    function donate() public payable {\n        Donation memory donation = Donation({\n            value: msg.value,\n            date: block.timestamp,\n            donor: msg.sender,\n            fundName: fundName,\n            ngoAddress: ngoAddress\n        });\n        _userDonations[msg.sender].push(donation);\n        donationsCount++;\n        totalDonations = totalDonations.add(msg.value);\n        emit DonationReceived(\n            msg.sender,\n            msg.value,\n            block.timestamp,\n            fundName,\n            ngoAddress\n        );\n    }\n\n    function allRequests()\n        external\n        view\n        returns (\n            uint256[] memory requestID,\n            uint256[] memory amounts,\n            address[] memory beneficiaries,\n            address[] memory ngoAddresses,\n            RequestStatus[] memory statuses\n        )\n    {\n        uint256 count = _requests.length;\n        requestID = new uint256[](count); // Initialize the requestID array\n        amounts = new uint256[](count);\n        beneficiaries = new address[](count);\n        ngoAddresses = new address[](count);\n        statuses = new RequestStatus[](count);\n\n        for (uint256 i = 0; i < count; i++) {\n            FundsRequest storage request = _requests[i];\n            requestID[i] = i; // Set the request ID\n            amounts[i] = request.amount;\n            beneficiaries[i] = request.beneficiary;\n            ngoAddresses[i] = request.ngoAddress;\n            statuses[i] = request.status;\n        }\n    }\n\n    function myDonations()\n        public\n        view\n        returns (\n            uint256[] memory values,\n            uint256[] memory dates,\n            string[] memory fundNames,\n            address[] memory ngoAddresses\n        )\n    {\n        uint256 count = myDonationsCount();\n        values = new uint256[](count);\n        dates = new uint256[](count);\n        fundNames = new string[](count);\n        ngoAddresses = new address[](count);\n\n        for (uint256 i = 0; i < count; i++) {\n            Donation storage donation = _userDonations[msg.sender][i];\n            values[i] = donation.value;\n            dates[i] = donation.date;\n            fundNames[i] = donation.fundName;\n            ngoAddresses[i] = donation.ngoAddress;\n        }\n    }\n\n    function createRequest(\n        address payable _beneficiary,\n        uint256 _requestAmount\n    ) public {\n        require(\n            totalDonations >= _requestAmount,\n            \"Insufficient funds for request\"\n        );\n\n        _requests.push(\n            FundsRequest({\n                amount: _requestAmount,\n                beneficiary: _beneficiary,\n                ngoAddress: ngoAddress,\n                status: RequestStatus.Pending\n            })\n        );\n        emit RequestCreated(\n            _beneficiary,\n            _requestAmount,\n            ngoAddress,\n            fundName,\n            block.timestamp\n        );\n    }\n\n    function approveRequest(uint256 requestId) public onlyOwner nonReentrant {\n        require(requestId < _requests.length, \"Invalid request ID\");\n        FundsRequest storage request = _requests[requestId];\n        require(\n            request.status == RequestStatus.Pending,\n            \"Request is not pending\"\n        );\n        require(\n            address(this).balance >= request.amount,\n            \"Insufficient contract balance\"\n        );\n        totalDonations = totalDonations.sub(request.amount);\n        request.status = RequestStatus.Approved;\n        request.beneficiary.transfer(request.amount);\n\n        emit RequestApproved(\n            request.beneficiary,\n            request.amount,\n            request.ngoAddress,\n            fundName,\n            block.timestamp\n        );\n    }\n\n    function rejectRequest(uint256 requestId) public onlyOwner {\n        require(requestId < _requests.length, \"Invalid request ID\");\n        FundsRequest storage request = _requests[requestId];\n        require(\n            request.status == RequestStatus.Pending,\n            \"Request is not pending\"\n        );\n\n        request.status = RequestStatus.Rejected;\n\n        emit RequestRejected(\n            request.beneficiary,\n            request.amount,\n            request.ngoAddress,\n            fundName,\n            block.timestamp\n        );\n    }\n}\n",
  "sourcePath": "/Users/tianqinzhang/Desktop/DApp/contracts/Fundraiser.sol",
  "compiler": {
    "name": "solc",
    "version": "0.8.0+commit.c7dfd78e.Emscripten.clang"
  },
  "schemaVersion": "3.4.16",
  "updatedAt": "2023-12-04T05:53:10.658Z",
  "devdoc": {
    "kind": "dev",
    "methods": {
      "owner()": {
        "details": "Returns the address of the current owner."
      },
      "renounceOwnership()": {
        "details": "Leaves the contract without owner. It will not be possible to call `onlyOwner` functions. Can only be called by the current owner. NOTE: Renouncing ownership will leave the contract without an owner, thereby disabling any functionality that is only available to the owner."
      },
      "transferOwnership(address)": {
        "details": "Transfers ownership of the contract to a new account (`newOwner`). Can only be called by the current owner."
      }
    },
    "version": 1
  },
  "userdoc": {
    "kind": "user",
    "methods": {},
    "version": 1
  }
}