{
  "contractName": "Fundraiser",
  "abi": [
    {
      "inputs": [
        {
          "internalType": "string",
          "name": "_name",
          "type": "string"
        },
        {
          "internalType": "string",
          "name": "_image",
          "type": "string"
        },
        {
          "internalType": "string",
          "name": "_description",
          "type": "string"
        },
        {
          "internalType": "uint256",
          "name": "_goalAmount",
          "type": "uint256"
        },
        {
          "internalType": "address",
          "name": "_custodian",
          "type": "address"
        }
      ],
      "stateMutability": "nonpayable",
      "type": "constructor"
    },
    {
      "anonymous": false,
      "inputs": [
        {
          "indexed": true,
          "internalType": "address",
          "name": "donor",
          "type": "address"
        },
        {
          "indexed": false,
          "internalType": "uint256",
          "name": "value",
          "type": "uint256"
        },
        {
          "indexed": true,
          "internalType": "uint256",
          "name": "date",
          "type": "uint256"
        },
        {
          "indexed": false,
          "internalType": "string",
          "name": "fundName",
          "type": "string"
        },
        {
          "indexed": true,
          "internalType": "address",
          "name": "ngoAddress",
          "type": "address"
        }
      ],
      "name": "DonationReceived",
      "type": "event"
    },
    {
      "anonymous": false,
      "inputs": [
        {
          "indexed": true,
          "internalType": "address",
          "name": "previousOwner",
          "type": "address"
        },
        {
          "indexed": true,
          "internalType": "address",
          "name": "newOwner",
          "type": "address"
        }
      ],
      "name": "OwnershipTransferred",
      "type": "event"
    },
    {
      "anonymous": false,
      "inputs": [
        {
          "indexed": true,
          "internalType": "address",
          "name": "beneficiary",
          "type": "address"
        },
        {
          "indexed": false,
          "internalType": "uint256",
          "name": "value",
          "type": "uint256"
        },
        {
          "indexed": true,
          "internalType": "address",
          "name": "ngoAddress",
          "type": "address"
        },
        {
          "indexed": false,
          "internalType": "string",
          "name": "fundName",
          "type": "string"
        },
        {
          "indexed": true,
          "internalType": "uint256",
          "name": "date",
          "type": "uint256"
        }
      ],
      "name": "RequestApproved",
      "type": "event"
    },
    {
      "anonymous": false,
      "inputs": [
        {
          "indexed": true,
          "internalType": "address",
          "name": "beneficiary",
          "type": "address"
        },
        {
          "indexed": false,
          "internalType": "uint256",
          "name": "value",
          "type": "uint256"
        },
        {
          "indexed": true,
          "internalType": "address",
          "name": "ngoAddress",
          "type": "address"
        },
        {
          "indexed": false,
          "internalType": "string",
          "name": "fundName",
          "type": "string"
        },
        {
          "indexed": true,
          "internalType": "uint256",
          "name": "date",
          "type": "uint256"
        }
      ],
      "name": "RequestCreated",
      "type": "event"
    },
    {
      "anonymous": false,
      "inputs": [
        {
          "indexed": true,
          "internalType": "address",
          "name": "beneficiary",
          "type": "address"
        },
        {
          "indexed": false,
          "internalType": "uint256",
          "name": "value",
          "type": "uint256"
        },
        {
          "indexed": true,
          "internalType": "address",
          "name": "ngoAddress",
          "type": "address"
        },
        {
          "indexed": false,
          "internalType": "string",
          "name": "fundName",
          "type": "string"
        },
        {
          "indexed": true,
          "internalType": "uint256",
          "name": "date",
          "type": "uint256"
        }
      ],
      "name": "RequestRejected",
      "type": "event"
    },
    {
      "inputs": [
        {
          "internalType": "uint256",
          "name": "",
          "type": "uint256"
        }
      ],
      "name": "_requests",
      "outputs": [
        {
          "internalType": "uint256",
          "name": "amount",
          "type": "uint256"
        },
        {
          "internalType": "address payable",
          "name": "beneficiary",
          "type": "address"
        },
        {
          "internalType": "address",
          "name": "ngoAddress",
          "type": "address"
        },
        {
          "internalType": "enum Fundraiser.RequestStatus",
          "name": "status",
          "type": "uint8"
        }
      ],
      "stateMutability": "view",
      "type": "function"
    },
    {
      "inputs": [
        {
          "internalType": "address",
          "name": "",
          "type": "address"
        },
        {
          "internalType": "uint256",
          "name": "",
          "type": "uint256"
        }
      ],
      "name": "_userDonations",
      "outputs": [
        {
          "internalType": "uint256",
          "name": "value",
          "type": "uint256"
        },
        {
          "internalType": "uint256",
          "name": "date",
          "type": "uint256"
        },
        {
          "internalType": "address",
          "name": "donor",
          "type": "address"
        },
        {
          "internalType": "string",
          "name": "fundName",
          "type": "string"
        },
        {
          "internalType": "address",
          "name": "ngoAddress",
          "type": "address"
        }
      ],
      "stateMutability": "view",
      "type": "function"
    },
    {
      "inputs": [],
      "name": "description",
      "outputs": [
        {
          "internalType": "string",
          "name": "",
          "type": "string"
        }
      ],
      "stateMutability": "view",
      "type": "function"
    },
    {
      "inputs": [],
      "name": "donationsCount",
      "outputs": [
        {
          "internalType": "uint256",
          "name": "",
          "type": "uint256"
        }
      ],
      "stateMutability": "view",
      "type": "function"
    },
    {
      "inputs": [],
      "name": "fundName",
      "outputs": [
        {
          "internalType": "string",
          "name": "",
          "type": "string"
        }
      ],
      "stateMutability": "view",
      "type": "function"
    },
    {
      "inputs": [],
      "name": "goalAmount",
      "outputs": [
        {
          "internalType": "uint256",
          "name": "",
          "type": "uint256"
        }
      ],
      "stateMutability": "view",
      "type": "function"
    },
    {
      "inputs": [],
      "name": "image",
      "outputs": [
        {
          "internalType": "string",
          "name": "",
          "type": "string"
        }
      ],
      "stateMutability": "view",
      "type": "function"
    },
    {
      "inputs": [],
      "name": "ngoAddress",
      "outputs": [
        {
          "internalType": "address",
          "name": "",
          "type": "address"
        }
      ],
      "stateMutability": "view",
      "type": "function"
    },
    {
      "inputs": [],
      "name": "owner",
      "outputs": [
        {
          "internalType": "address",
          "name": "",
          "type": "address"
        }
      ],
      "stateMutability": "view",
      "type": "function"
    },
    {
      "inputs": [],
      "name": "renounceOwnership",
      "outputs": [],
      "stateMutability": "nonpayable",
      "type": "function"
    },
    {
      "inputs": [],
      "name": "totalDonations",
      "outputs": [
        {
          "internalType": "uint256",
          "name": "",
          "type": "uint256"
        }
      ],
      "stateMutability": "view",
      "type": "function"
    },
    {
      "inputs": [
        {
          "internalType": "address",
          "name": "newOwner",
          "type": "address"
        }
      ],
      "name": "transferOwnership",
      "outputs": [],
      "stateMutability": "nonpayable",
      "type": "function"
    },
    {
      "inputs": [],
      "name": "myDonationsCount",
      "outputs": [
        {
          "internalType": "uint256",
          "name": "",
          "type": "uint256"
        }
      ],
      "stateMutability": "view",
      "type": "function"
    },
    {
      "inputs": [],
      "name": "donate",
      "outputs": [],
      "stateMutability": "payable",
      "type": "function"
    },
    {
      "inputs": [],
      "name": "myDonations",
      "outputs": [
        {
          "internalType": "uint256[]",
          "name": "values",
          "type": "uint256[]"
        },
        {
          "internalType": "uint256[]",
          "name": "dates",
          "type": "uint256[]"
        },
        {
          "internalType": "string[]",
          "name": "fundNames",
          "type": "string[]"
        },
        {
          "internalType": "address[]",
          "name": "ngoAddresses",
          "type": "address[]"
        }
      ],
      "stateMutability": "view",
      "type": "function"
    },
    {
      "inputs": [
        {
          "internalType": "address payable",
          "name": "_beneficiary",
          "type": "address"
        },
        {
          "internalType": "uint256",
          "name": "_requestAmount",
          "type": "uint256"
        }
      ],
      "name": "createRequest",
      "outputs": [],
      "stateMutability": "nonpayable",
      "type": "function"
    },
    {
      "inputs": [
        {
          "internalType": "uint256",
          "name": "requestId",
          "type": "uint256"
        }
      ],
      "name": "approveRequest",
      "outputs": [],
      "stateMutability": "nonpayable",
      "type": "function"
    },
    {
      "inputs": [
        {
          "internalType": "uint256",
          "name": "requestId",
          "type": "uint256"
        }
      ],
      "name": "rejectRequest",
      "outputs": [],
      "stateMutability": "nonpayable",
      "type": "function"
    }
  ],
  "bytecode": "0x60806040523480156200001157600080fd5b5060405162002c4638038062002c46833981810160405281019062000037919062000329565b620000576200004b6200010d60201b60201c565b6200011560201b60201c565b60018081905550846004908051906020019062000076929190620001d9565b5083600590805190602001906200008f929190620001d9565b508260069080519060200190620000a8929190620001d9565b5080600960006101000a81548173ffffffffffffffffffffffffffffffffffffffff021916908373ffffffffffffffffffffffffffffffffffffffff1602179055508160078190555062000102816200011560201b60201c565b505050505062000599565b600033905090565b60008060009054906101000a900473ffffffffffffffffffffffffffffffffffffffff169050816000806101000a81548173ffffffffffffffffffffffffffffffffffffffff021916908373ffffffffffffffffffffffffffffffffffffffff1602179055508173ffffffffffffffffffffffffffffffffffffffff168173ffffffffffffffffffffffffffffffffffffffff167f8be0079c531659141344cd1fd0a4f28419497f9722a3daafe3b4186f6b6457e060405160405180910390a35050565b828054620001e790620004d1565b90600052602060002090601f0160209004810192826200020b576000855562000257565b82601f106200022657805160ff191683800117855562000257565b8280016001018555821562000257579182015b828111156200025657825182559160200191906001019062000239565b5b5090506200026691906200026a565b5090565b5b80821115620002855760008160009055506001016200026b565b5090565b6000620002a06200029a846200042a565b620003f6565b905082815260208101848484011115620002b957600080fd5b620002c68482856200049b565b509392505050565b600081519050620002df8162000565565b92915050565b600082601f830112620002f757600080fd5b81516200030984826020860162000289565b91505092915050565b60008151905062000323816200057f565b92915050565b600080600080600060a086880312156200034257600080fd5b600086015167ffffffffffffffff8111156200035d57600080fd5b6200036b88828901620002e5565b955050602086015167ffffffffffffffff8111156200038957600080fd5b6200039788828901620002e5565b945050604086015167ffffffffffffffff811115620003b557600080fd5b620003c388828901620002e5565b9350506060620003d68882890162000312565b9250506080620003e988828901620002ce565b9150509295509295909350565b6000604051905081810181811067ffffffffffffffff8211171562000420576200041f62000536565b5b8060405250919050565b600067ffffffffffffffff82111562000448576200044762000536565b5b601f19601f8301169050602081019050919050565b60006200046a8262000471565b9050919050565b600073ffffffffffffffffffffffffffffffffffffffff82169050919050565b6000819050919050565b60005b83811015620004bb5780820151818401526020810190506200049e565b83811115620004cb576000848401525b50505050565b60006002820490506001821680620004ea57607f821691505b6020821081141562000501576200050062000507565b5b50919050565b7f4e487b7100000000000000000000000000000000000000000000000000000000600052602260045260246000fd5b7f4e487b7100000000000000000000000000000000000000000000000000000000600052604160045260246000fd5b62000570816200045d565b81146200057c57600080fd5b50565b6200058a8162000491565b81146200059657600080fd5b50565b61269d80620005a96000396000f3fe6080604052600436106101095760003560e01c8063bff60c0f11610095578063de2ed89311610064578063de2ed89314610353578063ed88c68e1461037e578063edc0892514610388578063f2fde38b146103b1578063f3ccaac0146103da57610109565b8063bff60c0f1461027e578063ccf179b0146102be578063d251e51d146102e9578063d7d1bbdb1461032a57610109565b80632d7788db116100dc5780632d7788db146101bd578063715018a6146101e65780637284e416146101fd5780638da5cb5b146102285780639ce1413b1461025357610109565b80630180b97c1461010e5780631a57f7b4146101395780631f522595146101675780632636b94514610192575b600080fd5b34801561011a57600080fd5b50610123610405565b60405161013091906121ee565b60405180910390f35b34801561014557600080fd5b5061014e61044f565b60405161015e949392919061208b565b60405180910390f35b34801561017357600080fd5b5061017c6108d7565b60405161018991906121ee565b60405180910390f35b34801561019e57600080fd5b506101a76108dd565b6040516101b491906121ee565b60405180910390f35b3480156101c957600080fd5b506101e460048036038101906101df9190611ba0565b6108e3565b005b3480156101f257600080fd5b506101fb610b4e565b005b34801561020957600080fd5b50610212610b62565b60405161021f91906120ec565b60405180910390f35b34801561023457600080fd5b5061023d610bf0565b60405161024a9190612070565b60405180910390f35b34801561025f57600080fd5b50610268610c19565b60405161027591906120ec565b60405180910390f35b34801561028a57600080fd5b506102a560048036038101906102a09190611ba0565b610ca7565b6040516102b59493929190612209565b60405180910390f35b3480156102ca57600080fd5b506102d3610d34565b6040516102e09190612070565b60405180910390f35b3480156102f557600080fd5b50610310600480360381019061030b9190611b64565b610d5a565b60405161032195949392919061227e565b60405180910390f35b34801561033657600080fd5b50610351600480360381019061034c9190611ba0565b610e75565b005b34801561035f57600080fd5b5061036861120a565b60405161037591906121ee565b60405180910390f35b610386611210565b005b34801561039457600080fd5b506103af60048036038101906103aa9190611b28565b6114fe565b005b3480156103bd57600080fd5b506103d860048036038101906103d39190611aff565b611795565b005b3480156103e657600080fd5b506103ef611819565b6040516103fc91906120ec565b60405180910390f35b6000600260003373ffffffffffffffffffffffffffffffffffffffff1673ffffffffffffffffffffffffffffffffffffffff16815260200190815260200160002080549050905090565b606080606080600061045f610405565b90508067ffffffffffffffff8111156104a1577f4e487b7100000000000000000000000000000000000000000000000000000000600052604160045260246000fd5b6040519080825280602002602001820160405280156104cf5781602001602082028036833780820191505090505b5094508067ffffffffffffffff811115610512577f4e487b7100000000000000000000000000000000000000000000000000000000600052604160045260246000fd5b6040519080825280602002602001820160405280156105405781602001602082028036833780820191505090505b5093508067ffffffffffffffff811115610583577f4e487b7100000000000000000000000000000000000000000000000000000000600052604160045260246000fd5b6040519080825280602002602001820160405280156105b657816020015b60608152602001906001900390816105a15790505b5092508067ffffffffffffffff8111156105f9577f4e487b7100000000000000000000000000000000000000000000000000000000600052604160045260246000fd5b6040519080825280602002602001820160405280156106275781602001602082028036833780820191505090505b50915060005b818110156108cf576000600260003373ffffffffffffffffffffffffffffffffffffffff1673ffffffffffffffffffffffffffffffffffffffff16815260200190815260200160002082815481106106ae577f4e487b7100000000000000000000000000000000000000000000000000000000600052603260045260246000fd5b9060005260206000209060050201905080600001548783815181106106fc577f4e487b7100000000000000000000000000000000000000000000000000000000600052603260045260246000fd5b6020026020010181815250508060010154868381518110610746577f4e487b7100000000000000000000000000000000000000000000000000000000600052603260045260246000fd5b602002602001018181525050806003018054610761906124f5565b80601f016020809104026020016040519081016040528092919081815260200182805461078d906124f5565b80156107da5780601f106107af576101008083540402835291602001916107da565b820191906000526020600020905b8154815290600101906020018083116107bd57829003601f168201915b5050505050858381518110610818577f4e487b7100000000000000000000000000000000000000000000000000000000600052603260045260246000fd5b60200260200101819052508060040160009054906101000a900473ffffffffffffffffffffffffffffffffffffffff16848381518110610881577f4e487b7100000000000000000000000000000000000000000000000000000000600052603260045260246000fd5b602002602001019073ffffffffffffffffffffffffffffffffffffffff16908173ffffffffffffffffffffffffffffffffffffffff16815250505080806108c790612527565b91505061062d565b505090919293565b600a5481565b60075481565b6108eb6118a7565b6003805490508110610932576040517f08c379a0000000000000000000000000000000000000000000000000000000008152600401610929906121ce565b60405180910390fd5b60006003828154811061096e577f4e487b7100000000000000000000000000000000000000000000000000000000600052603260045260246000fd5b90600052602060002090600302019050600060028111156109b8577f4e487b7100000000000000000000000000000000000000000000000000000000600052602160045260246000fd5b8160020160149054906101000a900460ff166002811115610a02577f4e487b7100000000000000000000000000000000000000000000000000000000600052602160045260246000fd5b14610a42576040517f08c379a0000000000000000000000000000000000000000000000000000000008152600401610a399061212e565b60405180910390fd5b60028160020160146101000a81548160ff02191690836002811115610a90577f4e487b7100000000000000000000000000000000000000000000000000000000600052602160045260246000fd5b0217905550428160020160009054906101000a900473ffffffffffffffffffffffffffffffffffffffff1673ffffffffffffffffffffffffffffffffffffffff168260010160009054906101000a900473ffffffffffffffffffffffffffffffffffffffff1673ffffffffffffffffffffffffffffffffffffffff167f592da2f7c068823877ad9923447991ff1ee3158fbbd064f0fcc896847bc048e384600001546004604051610b4292919061224e565b60405180910390a45050565b610b566118a7565b610b606000611925565b565b60068054610b6f906124f5565b80601f0160208091040260200160405190810160405280929190818152602001828054610b9b906124f5565b8015610be85780601f10610bbd57610100808354040283529160200191610be8565b820191906000526020600020905b815481529060010190602001808311610bcb57829003601f168201915b505050505081565b60008060009054906101000a900473ffffffffffffffffffffffffffffffffffffffff16905090565b60048054610c26906124f5565b80601f0160208091040260200160405190810160405280929190818152602001828054610c52906124f5565b8015610c9f5780601f10610c7457610100808354040283529160200191610c9f565b820191906000526020600020905b815481529060010190602001808311610c8257829003601f168201915b505050505081565b60038181548110610cb757600080fd5b90600052602060002090600302016000915090508060000154908060010160009054906101000a900473ffffffffffffffffffffffffffffffffffffffff16908060020160009054906101000a900473ffffffffffffffffffffffffffffffffffffffff16908060020160149054906101000a900460ff16905084565b600960009054906101000a900473ffffffffffffffffffffffffffffffffffffffff1681565b60026020528160005260406000208181548110610d7657600080fd5b9060005260206000209060050201600091509150508060000154908060010154908060020160009054906101000a900473ffffffffffffffffffffffffffffffffffffffff1690806003018054610dcc906124f5565b80601f0160208091040260200160405190810160405280929190818152602001828054610df8906124f5565b8015610e455780601f10610e1a57610100808354040283529160200191610e45565b820191906000526020600020905b815481529060010190602001808311610e2857829003601f168201915b5050505050908060040160009054906101000a900473ffffffffffffffffffffffffffffffffffffffff16905085565b610e7d6118a7565b60026001541415610ec3576040517f08c379a0000000000000000000000000000000000000000000000000000000008152600401610eba9061218e565b60405180910390fd5b60026001819055506003805490508110610f12576040517f08c379a0000000000000000000000000000000000000000000000000000000008152600401610f09906121ce565b60405180910390fd5b600060038281548110610f4e577f4e487b7100000000000000000000000000000000000000000000000000000000600052603260045260246000fd5b9060005260206000209060030201905060006002811115610f98577f4e487b7100000000000000000000000000000000000000000000000000000000600052602160045260246000fd5b8160020160149054906101000a900460ff166002811115610fe2577f4e487b7100000000000000000000000000000000000000000000000000000000600052602160045260246000fd5b14611022576040517f08c379a00000000000000000000000000000000000000000000000000000000081526004016110199061212e565b60405180910390fd5b8060000154471015611069576040517f08c379a0000000000000000000000000000000000000000000000000000000008152600401611060906121ae565b60405180910390fd5b61108281600001546008546119e990919063ffffffff16565b60088190555060018160020160146101000a81548160ff021916908360028111156110d6577f4e487b7100000000000000000000000000000000000000000000000000000000600052602160045260246000fd5b02179055508060010160009054906101000a900473ffffffffffffffffffffffffffffffffffffffff1673ffffffffffffffffffffffffffffffffffffffff166108fc82600001549081150290604051600060405180830381858888f19350505050158015611149573d6000803e3d6000fd5b50428160020160009054906101000a900473ffffffffffffffffffffffffffffffffffffffff1673ffffffffffffffffffffffffffffffffffffffff168260010160009054906101000a900473ffffffffffffffffffffffffffffffffffffffff1673ffffffffffffffffffffffffffffffffffffffff167f533ca94f7a1d6423d4b59b9a7bd0225c6e15af6eedcb566408c3f6942bdfe582846000015460046040516111f792919061224e565b60405180910390a4506001808190555050565b60085481565b60006040518060a001604052803481526020014281526020013373ffffffffffffffffffffffffffffffffffffffff16815260200160048054611252906124f5565b80601f016020809104026020016040519081016040528092919081815260200182805461127e906124f5565b80156112cb5780601f106112a0576101008083540402835291602001916112cb565b820191906000526020600020905b8154815290600101906020018083116112ae57829003601f168201915b50505050508152602001600960009054906101000a900473ffffffffffffffffffffffffffffffffffffffff1673ffffffffffffffffffffffffffffffffffffffff168152509050600260003373ffffffffffffffffffffffffffffffffffffffff1673ffffffffffffffffffffffffffffffffffffffff168152602001908152602001600020819080600181540180825580915050600190039060005260206000209060050201600090919091909150600082015181600001556020820151816001015560408201518160020160006101000a81548173ffffffffffffffffffffffffffffffffffffffff021916908373ffffffffffffffffffffffffffffffffffffffff16021790555060608201518160030190805190602001906113f3929190611a1d565b5060808201518160040160006101000a81548173ffffffffffffffffffffffffffffffffffffffff021916908373ffffffffffffffffffffffffffffffffffffffff1602179055505050600a600081548092919061145090612527565b919050555061146a346008546119ff90919063ffffffff16565b600881905550600960009054906101000a900473ffffffffffffffffffffffffffffffffffffffff1673ffffffffffffffffffffffffffffffffffffffff16423373ffffffffffffffffffffffffffffffffffffffff167f385b33bb5da3a6a3451f9ff1a8da6d5a24660f02a2d129d92093b3fc76df707f3460046040516114f392919061224e565b60405180910390a450565b806008541015611543576040517f08c379a000000000000000000000000000000000000000000000000000000000815260040161153a9061216e565b60405180910390fd5b600360405180608001604052808381526020018473ffffffffffffffffffffffffffffffffffffffff168152602001600960009054906101000a900473ffffffffffffffffffffffffffffffffffffffff1673ffffffffffffffffffffffffffffffffffffffff168152602001600060028111156115ea577f4e487b7100000000000000000000000000000000000000000000000000000000600052602160045260246000fd5b81525090806001815401808255809150506001900390600052602060002090600302016000909190919091506000820151816000015560208201518160010160006101000a81548173ffffffffffffffffffffffffffffffffffffffff021916908373ffffffffffffffffffffffffffffffffffffffff16021790555060408201518160020160006101000a81548173ffffffffffffffffffffffffffffffffffffffff021916908373ffffffffffffffffffffffffffffffffffffffff16021790555060608201518160020160146101000a81548160ff021916908360028111156116ff577f4e487b7100000000000000000000000000000000000000000000000000000000600052602160045260246000fd5b0217905550505042600960009054906101000a900473ffffffffffffffffffffffffffffffffffffffff1673ffffffffffffffffffffffffffffffffffffffff168373ffffffffffffffffffffffffffffffffffffffff167f54a9c83be540f00741b15590dcfdbbd18807cc3c832b6e77c01f8fbc6d31660584600460405161178992919061224e565b60405180910390a45050565b61179d6118a7565b600073ffffffffffffffffffffffffffffffffffffffff168173ffffffffffffffffffffffffffffffffffffffff16141561180d576040517f08c379a00000000000000000000000000000000000000000000000000000000081526004016118049061210e565b60405180910390fd5b61181681611925565b50565b60058054611826906124f5565b80601f0160208091040260200160405190810160405280929190818152602001828054611852906124f5565b801561189f5780601f106118745761010080835404028352916020019161189f565b820191906000526020600020905b81548152906001019060200180831161188257829003601f168201915b505050505081565b6118af611a15565b73ffffffffffffffffffffffffffffffffffffffff166118cd610bf0565b73ffffffffffffffffffffffffffffffffffffffff1614611923576040517f08c379a000000000000000000000000000000000000000000000000000000000815260040161191a9061214e565b60405180910390fd5b565b60008060009054906101000a900473ffffffffffffffffffffffffffffffffffffffff169050816000806101000a81548173ffffffffffffffffffffffffffffffffffffffff021916908373ffffffffffffffffffffffffffffffffffffffff1602179055508173ffffffffffffffffffffffffffffffffffffffff168173ffffffffffffffffffffffffffffffffffffffff167f8be0079c531659141344cd1fd0a4f28419497f9722a3daafe3b4186f6b6457e060405160405180910390a35050565b600081836119f7919061241b565b905092915050565b60008183611a0d91906123c5565b905092915050565b600033905090565b828054611a29906124f5565b90600052602060002090601f016020900481019282611a4b5760008555611a92565b82601f10611a6457805160ff1916838001178555611a92565b82800160010185558215611a92579182015b82811115611a91578251825591602001919060010190611a76565b5b509050611a9f9190611aa3565b5090565b5b80821115611abc576000816000905550600101611aa4565b5090565b600081359050611acf81612622565b92915050565b600081359050611ae481612639565b92915050565b600081359050611af981612650565b92915050565b600060208284031215611b1157600080fd5b6000611b1f84828501611ac0565b91505092915050565b60008060408385031215611b3b57600080fd5b6000611b4985828601611ad5565b9250506020611b5a85828601611aea565b9150509250929050565b60008060408385031215611b7757600080fd5b6000611b8585828601611ac0565b9250506020611b9685828601611aea565b9150509250929050565b600060208284031215611bb257600080fd5b6000611bc084828501611aea565b91505092915050565b6000611bd58383611c1c565b60208301905092915050565b6000611bed8383611d7a565b905092915050565b6000611c018383612052565b60208301905092915050565b611c1681612461565b82525050565b611c258161244f565b82525050565b611c348161244f565b82525050565b6000611c458261231d565b611c4f8185612370565b9350611c5a836122d8565b8060005b83811015611c8b578151611c728882611bc9565b9750611c7d83612349565b925050600181019050611c5e565b5085935050505092915050565b6000611ca382612328565b611cad8185612381565b935083602082028501611cbf856122e8565b8060005b85811015611cfb5784840389528151611cdc8582611be1565b9450611ce783612356565b925060208a01995050600181019050611cc3565b50829750879550505050505092915050565b6000611d1882612333565b611d228185612392565b9350611d2d836122f8565b8060005b83811015611d5e578151611d458882611bf5565b9750611d5083612363565b925050600181019050611d31565b5085935050505092915050565b611d74816124b0565b82525050565b6000611d858261233e565b611d8f81856123a3565b9350611d9f8185602086016124c2565b611da8816125fd565b840191505092915050565b6000611dbe8261233e565b611dc881856123b4565b9350611dd88185602086016124c2565b611de1816125fd565b840191505092915050565b60008154611df9816124f5565b611e0381866123b4565b94506001821660008114611e1e5760018114611e3057611e63565b60ff1983168652602086019350611e63565b611e3985612308565b60005b83811015611e5b57815481890152600182019150602081019050611e3c565b808801955050505b50505092915050565b6000611e796026836123b4565b91507f4f776e61626c653a206e6577206f776e657220697320746865207a65726f206160008301527f64647265737300000000000000000000000000000000000000000000000000006020830152604082019050919050565b6000611edf6016836123b4565b91507f52657175657374206973206e6f742070656e64696e67000000000000000000006000830152602082019050919050565b6000611f1f6020836123b4565b91507f4f776e61626c653a2063616c6c6572206973206e6f7420746865206f776e65726000830152602082019050919050565b6000611f5f601e836123b4565b91507f496e73756666696369656e742066756e647320666f72207265717565737400006000830152602082019050919050565b6000611f9f601f836123b4565b91507f5265656e7472616e637947756172643a207265656e7472616e742063616c6c006000830152602082019050919050565b6000611fdf601d836123b4565b91507f496e73756666696369656e7420636f6e74726163742062616c616e63650000006000830152602082019050919050565b600061201f6012836123b4565b91507f496e76616c6964207265717565737420494400000000000000000000000000006000830152602082019050919050565b61205b816124a6565b82525050565b61206a816124a6565b82525050565b60006020820190506120856000830184611c2b565b92915050565b600060808201905081810360008301526120a58187611d0d565b905081810360208301526120b98186611d0d565b905081810360408301526120cd8185611c98565b905081810360608301526120e18184611c3a565b905095945050505050565b600060208201905081810360008301526121068184611db3565b905092915050565b6000602082019050818103600083015261212781611e6c565b9050919050565b6000602082019050818103600083015261214781611ed2565b9050919050565b6000602082019050818103600083015261216781611f12565b9050919050565b6000602082019050818103600083015261218781611f52565b9050919050565b600060208201905081810360008301526121a781611f92565b9050919050565b600060208201905081810360008301526121c781611fd2565b9050919050565b600060208201905081810360008301526121e781612012565b9050919050565b60006020820190506122036000830184612061565b92915050565b600060808201905061221e6000830187612061565b61222b6020830186611c0d565b6122386040830185611c2b565b6122456060830184611d6b565b95945050505050565b60006040820190506122636000830185612061565b81810360208301526122758184611dec565b90509392505050565b600060a0820190506122936000830188612061565b6122a06020830187612061565b6122ad6040830186611c2b565b81810360608301526122bf8185611db3565b90506122ce6080830184611c2b565b9695505050505050565b6000819050602082019050919050565b6000819050602082019050919050565b6000819050602082019050919050565b60008190508160005260206000209050919050565b600081519050919050565b600081519050919050565b600081519050919050565b600081519050919050565b6000602082019050919050565b6000602082019050919050565b6000602082019050919050565b600082825260208201905092915050565b600082825260208201905092915050565b600082825260208201905092915050565b600082825260208201905092915050565b600082825260208201905092915050565b60006123d0826124a6565b91506123db836124a6565b9250827fffffffffffffffffffffffffffffffffffffffffffffffffffffffffffffffff038211156124105761240f612570565b5b828201905092915050565b6000612426826124a6565b9150612431836124a6565b92508282101561244457612443612570565b5b828203905092915050565b600061245a82612486565b9050919050565b600061246c82612486565b9050919050565b60008190506124818261260e565b919050565b600073ffffffffffffffffffffffffffffffffffffffff82169050919050565b6000819050919050565b60006124bb82612473565b9050919050565b60005b838110156124e05780820151818401526020810190506124c5565b838111156124ef576000848401525b50505050565b6000600282049050600182168061250d57607f821691505b60208210811415612521576125206125ce565b5b50919050565b6000612532826124a6565b91507fffffffffffffffffffffffffffffffffffffffffffffffffffffffffffffffff82141561256557612564612570565b5b600182019050919050565b7f4e487b7100000000000000000000000000000000000000000000000000000000600052601160045260246000fd5b7f4e487b7100000000000000000000000000000000000000000000000000000000600052602160045260246000fd5b7f4e487b7100000000000000000000000000000000000000000000000000000000600052602260045260246000fd5b6000601f19601f8301169050919050565b6003811061261f5761261e61259f565b5b50565b61262b8161244f565b811461263657600080fd5b50565b61264281612461565b811461264d57600080fd5b50565b612659816124a6565b811461266457600080fd5b5056fea264697066735822122086b754b2f7924cc2ac4200e5b263be7f512d41793b7add8a79759dc18dde040564736f6c63430008000033",
  "immutableReferences": {},
  "source": "// SPDX-License-Identifier: MIT\npragma solidity ^0.8.0;\n\nimport \"@openzeppelin/contracts/access/Ownable.sol\";\nimport \"@openzeppelin/contracts/utils/math/SafeMath.sol\";\nimport \"@openzeppelin/contracts/security/ReentrancyGuard.sol\";\n\ncontract Fundraiser is Ownable, ReentrancyGuard {\n    using SafeMath for uint256;\n\n    struct Donation {\n        uint256 value;\n        uint256 date;\n        address donor;\n        string fundName;\n        address ngoAddress;\n    }\n\n    struct FundsRequest {\n        uint256 amount;\n        address payable beneficiary;\n        address ngoAddress;\n        RequestStatus status;\n    }\n\n    enum RequestStatus {\n        Pending,\n        Approved,\n        Rejected\n    }\n\n    mapping(address => Donation[]) public _userDonations;\n    FundsRequest[] public _requests;\n    event DonationReceived(\n        address indexed donor,\n        uint256 value,\n        uint256 indexed date,\n        string fundName,\n        address indexed ngoAddress\n    );\n    event RequestCreated(\n        address indexed beneficiary,\n        uint256 value,\n        address indexed ngoAddress,\n        string fundName,\n        uint256 indexed date\n    );\n    event RequestApproved(\n        address indexed beneficiary,\n        uint256 value,\n        address indexed ngoAddress,\n        string fundName,\n        uint256 indexed date\n    );\n    event RequestRejected(\n        address indexed beneficiary,\n        uint256 value,\n        address indexed ngoAddress,\n        string fundName,\n        uint256 indexed date\n    );\n\n    string public fundName;\n    string public image;\n    string public description;\n    uint256 public goalAmount;\n    uint256 public totalDonations;\n    address public ngoAddress;\n    uint256 public donationsCount;\n\n    constructor(\n        string memory _name,\n        string memory _image,\n        string memory _description,\n        uint256 _goalAmount,\n        address _custodian // This is the address of the user who created the fund\n    ) {\n        fundName = _name;\n        image = _image;\n        description = _description;\n        ngoAddress = _custodian;\n        goalAmount = _goalAmount;\n        _transferOwnership(_custodian); //  This is the address of the user who created the fund\n    }\n\n    function myDonationsCount() public view returns (uint256) {\n        return _userDonations[msg.sender].length;\n    }\n\n    function donate() public payable {\n        Donation memory donation = Donation({\n            value: msg.value,\n            date: block.timestamp,\n            donor: msg.sender,\n            fundName: fundName,\n            ngoAddress: ngoAddress\n        });\n        _userDonations[msg.sender].push(donation);\n        donationsCount++;\n        totalDonations = totalDonations.add(msg.value);\n        emit DonationReceived(\n            msg.sender,\n            msg.value,\n            block.timestamp,\n            fundName,\n            ngoAddress\n        );\n    }\n\n    function myDonations()\n        public\n        view\n        returns (\n            uint256[] memory values,\n            uint256[] memory dates,\n            string[] memory fundNames,\n            address[] memory ngoAddresses\n        )\n    {\n        uint256 count = myDonationsCount();\n        values = new uint256[](count);\n        dates = new uint256[](count);\n        fundNames = new string[](count);\n        ngoAddresses = new address[](count);\n\n        for (uint256 i = 0; i < count; i++) {\n            Donation storage donation = _userDonations[msg.sender][i];\n            values[i] = donation.value;\n            dates[i] = donation.date;\n            fundNames[i] = donation.fundName;\n            ngoAddresses[i] = donation.ngoAddress;\n        }\n    }\n\n    function createRequest(\n        address payable _beneficiary,\n        uint256 _requestAmount\n    ) public {\n        require(\n            totalDonations >= _requestAmount,\n            \"Insufficient funds for request\"\n        );\n\n        _requests.push(\n            FundsRequest({\n                amount: _requestAmount,\n                beneficiary: _beneficiary,\n                ngoAddress: ngoAddress,\n                status: RequestStatus.Pending\n            })\n        );\n        emit RequestCreated(\n            _beneficiary,\n            _requestAmount,\n            ngoAddress,\n            fundName,\n            block.timestamp\n        );\n    }\n\n    function approveRequest(uint256 requestId) public onlyOwner nonReentrant {\n        require(requestId < _requests.length, \"Invalid request ID\");\n        FundsRequest storage request = _requests[requestId];\n        require(\n            request.status == RequestStatus.Pending,\n            \"Request is not pending\"\n        );\n        require(\n            address(this).balance >= request.amount,\n            \"Insufficient contract balance\"\n        );\n        totalDonations = totalDonations.sub(request.amount);\n        request.status = RequestStatus.Approved;\n        request.beneficiary.transfer(request.amount);\n\n        emit RequestApproved(\n            request.beneficiary,\n            request.amount,\n            request.ngoAddress,\n            fundName,\n            block.timestamp\n        );\n    }\n\n    function rejectRequest(uint256 requestId) public onlyOwner {\n        require(requestId < _requests.length, \"Invalid request ID\");\n        FundsRequest storage request = _requests[requestId];\n        require(\n            request.status == RequestStatus.Pending,\n            \"Request is not pending\"\n        );\n\n        request.status = RequestStatus.Rejected;\n\n        emit RequestRejected(\n            request.beneficiary,\n            request.amount,\n            request.ngoAddress,\n            fundName,\n            block.timestamp\n        );\n    }\n}\n",
  "sourcePath": "/Users/erickchandra/Documents/code/DApp/contracts/Fundraiser.sol",
  "compiler": {
    "name": "solc",
    "version": "0.8.0+commit.c7dfd78e.Emscripten.clang"
  },
  "schemaVersion": "3.4.16",
  "updatedAt": "2023-12-02T09:09:51.117Z",
  "devdoc": {
    "kind": "dev",
    "methods": {
      "owner()": {
        "details": "Returns the address of the current owner."
      },
      "renounceOwnership()": {
        "details": "Leaves the contract without owner. It will not be possible to call `onlyOwner` functions anymore. Can only be called by the current owner. NOTE: Renouncing ownership will leave the contract without an owner, thereby removing any functionality that is only available to the owner."
      },
      "transferOwnership(address)": {
        "details": "Transfers ownership of the contract to a new account (`newOwner`). Can only be called by the current owner."
      }
    },
    "version": 1
  },
  "userdoc": {
    "kind": "user",
    "methods": {},
    "version": 1
  }
}