{
  "contractName": "UserAccessControl",
  "abi": [
    {
      "inputs": [],
      "stateMutability": "nonpayable",
      "type": "constructor"
    },
    {
      "inputs": [],
      "name": "admin",
      "outputs": [
        {
          "internalType": "address",
          "name": "",
          "type": "address"
        }
      ],
      "stateMutability": "view",
      "type": "function",
      "constant": true
    },
    {
      "inputs": [
        {
          "internalType": "address",
          "name": "",
          "type": "address"
        }
      ],
      "name": "users",
      "outputs": [
        {
          "internalType": "enum UserAccessControl.UserRole",
          "name": "role",
          "type": "uint8"
        },
        {
          "internalType": "bool",
          "name": "isRegistered",
          "type": "bool"
        }
      ],
      "stateMutability": "view",
      "type": "function",
      "constant": true
    },
    {
      "inputs": [
        {
          "internalType": "address",
          "name": "user",
          "type": "address"
        },
        {
          "internalType": "enum UserAccessControl.UserRole",
          "name": "role",
          "type": "uint8"
        }
      ],
      "name": "registerUser",
      "outputs": [],
      "stateMutability": "nonpayable",
      "type": "function"
    },
    {
      "inputs": [
        {
          "internalType": "address",
          "name": "user",
          "type": "address"
        },
        {
          "internalType": "enum UserAccessControl.UserRole",
          "name": "role",
          "type": "uint8"
        }
      ],
      "name": "setUser",
      "outputs": [],
      "stateMutability": "nonpayable",
      "type": "function"
    },
    {
      "inputs": [
        {
          "internalType": "address",
          "name": "user",
          "type": "address"
        }
      ],
      "name": "getUserRole",
      "outputs": [
        {
          "internalType": "enum UserAccessControl.UserRole",
          "name": "",
          "type": "uint8"
        }
      ],
      "stateMutability": "view",
      "type": "function",
      "constant": true
    }
  ],
  "bytecode": "0x608060405234801561001057600080fd5b5033600160006101000a81548173ffffffffffffffffffffffffffffffffffffffff021916908373ffffffffffffffffffffffffffffffffffffffff160217905550610970806100616000396000f3fe608060405234801561001057600080fd5b50600436106100575760003560e01c8063278208511461005c57806351d031ee1461008c5780639e9fa097146100a8578063a87430ba146100c4578063f851a440146100f5575b600080fd5b6100766004803603810190610071919061064b565b610113565b60405161008391906107b8565b60405180910390f35b6100a660048036038101906100a19190610674565b6101f9565b005b6100c260048036038101906100bd9190610674565b610393565b005b6100de60048036038101906100d9919061064b565b6105bd565b6040516100ec9291906107d3565b60405180910390f35b6100fd6105fb565b60405161010a919061079d565b60405180910390f35b60008060008373ffffffffffffffffffffffffffffffffffffffff1673ffffffffffffffffffffffffffffffffffffffff16815260200190815260200160002060000160019054906101000a900460ff166101a3576040517f08c379a000000000000000000000000000000000000000000000000000000000815260040161019a906107fc565b60405180910390fd5b6000808373ffffffffffffffffffffffffffffffffffffffff1673ffffffffffffffffffffffffffffffffffffffff16815260200190815260200160002060000160009054906101000a900460ff169050919050565b6000808373ffffffffffffffffffffffffffffffffffffffff1673ffffffffffffffffffffffffffffffffffffffff16815260200190815260200160002060000160019054906101000a900460ff1615610288576040517f08c379a000000000000000000000000000000000000000000000000000000000815260040161027f9061081c565b60405180910390fd5b60405180604001604052808260028111156102cc577f4e487b7100000000000000000000000000000000000000000000000000000000600052602160045260246000fd5b8152602001600115158152506000808473ffffffffffffffffffffffffffffffffffffffff1673ffffffffffffffffffffffffffffffffffffffff16815260200190815260200160002060008201518160000160006101000a81548160ff02191690836002811115610367577f4e487b7100000000000000000000000000000000000000000000000000000000600052602160045260246000fd5b021790555060208201518160000160016101000a81548160ff0219169083151502179055509050505050565b600160009054906101000a900473ffffffffffffffffffffffffffffffffffffffff1673ffffffffffffffffffffffffffffffffffffffff163373ffffffffffffffffffffffffffffffffffffffff1614610423576040517f08c379a000000000000000000000000000000000000000000000000000000000815260040161041a9061083c565b60405180910390fd5b6000808373ffffffffffffffffffffffffffffffffffffffff1673ffffffffffffffffffffffffffffffffffffffff16815260200190815260200160002060000160019054906101000a900460ff16156104b2576040517f08c379a00000000000000000000000000000000000000000000000000000000081526004016104a99061081c565b60405180910390fd5b60405180604001604052808260028111156104f6577f4e487b7100000000000000000000000000000000000000000000000000000000600052602160045260246000fd5b8152602001600115158152506000808473ffffffffffffffffffffffffffffffffffffffff1673ffffffffffffffffffffffffffffffffffffffff16815260200190815260200160002060008201518160000160006101000a81548160ff02191690836002811115610591577f4e487b7100000000000000000000000000000000000000000000000000000000600052602160045260246000fd5b021790555060208201518160000160016101000a81548160ff0219169083151502179055509050505050565b60006020528060005260406000206000915090508060000160009054906101000a900460ff16908060000160019054906101000a900460ff16905082565b600160009054906101000a900473ffffffffffffffffffffffffffffffffffffffff1681565b60008135905061063081610913565b92915050565b6000813590506106458161092a565b92915050565b60006020828403121561065d57600080fd5b600061066b84828501610621565b91505092915050565b6000806040838503121561068757600080fd5b600061069585828601610621565b92505060206106a685828601610636565b9150509250929050565b6106b98161086d565b82525050565b6106c88161087f565b82525050565b6106d7816108be565b82525050565b60006106ea60138361085c565b91507f55736572206e6f742072656769737465726564000000000000000000000000006000830152602082019050919050565b600061072a60178361085c565b91507f5573657220616c726561647920726567697374657265640000000000000000006000830152602082019050919050565b600061076a600e8361085c565b91507f4e6f7420617574686f72697a65640000000000000000000000000000000000006000830152602082019050919050565b60006020820190506107b260008301846106b0565b92915050565b60006020820190506107cd60008301846106ce565b92915050565b60006040820190506107e860008301856106ce565b6107f560208301846106bf565b9392505050565b60006020820190508181036000830152610815816106dd565b9050919050565b600060208201905081810360008301526108358161071d565b9050919050565b600060208201905081810360008301526108558161075d565b9050919050565b600082825260208201905092915050565b60006108788261089e565b9050919050565b60008115159050919050565b6000819050610899826108ff565b919050565b600073ffffffffffffffffffffffffffffffffffffffff82169050919050565b60006108c98261088b565b9050919050565b7f4e487b7100000000000000000000000000000000000000000000000000000000600052602160045260246000fd5b600381106109105761090f6108d0565b5b50565b61091c8161086d565b811461092757600080fd5b50565b6003811061093757600080fd5b5056fea264697066735822122065c091c5850c7575bc7d8ec3e48b9444ef192285669451806889c5e903a3287664736f6c63430008000033",
  "immutableReferences": {},
  "source": "// SPDX-License-Identifier: MIT\npragma solidity ^0.8.0;\n\ncontract UserAccessControl {\n    enum UserRole { Donor, Beneficiary, NGO }\n\n    struct User {\n        UserRole role;\n        bool isRegistered;\n    }\n\n    mapping(address => User) public users;\n    address public admin;\n\n    constructor() {\n        admin = msg.sender;\n    }\n\n    modifier onlyAdmin {\n        require(msg.sender == admin, \"Not authorized\");\n        _;\n    }\n\n    function registerUser(address user, UserRole role) public onlyAdmin {\n        require(!users[user].isRegistered, \"User already registered\");\n        users[user] = User(role, true);\n    }\n\n    function setUser(address user, UserRole role) public {\n        require(!users[user].isRegistered, \"User already registered\");\n        users[user] = User(role, true);\n    }\n\n    function getUserRole(address user) public view returns (UserRole) {\n        require(users[user].isRegistered, \"User not registered\");\n        return users[user].role;\n    }\n}",
  "sourcePath": "/Users/tianqinzhang/Desktop/DApp/contracts/UserAccessControl.sol",
  "compiler": {
    "name": "solc",
    "version": "0.8.0+commit.c7dfd78e.Emscripten.clang"
  },
  "schemaVersion": "3.4.16",
  "updatedAt": "2023-11-22T09:34:15.696Z",
  "networkType": "ethereum",
  "devdoc": {
    "kind": "dev",
    "methods": {},
    "version": 1
  },
  "userdoc": {
    "kind": "user",
    "methods": {},
    "version": 1
  }
}