{
  "contractName": "UserAccessControl",
  "abi": [
    {
      "inputs": [],
      "stateMutability": "nonpayable",
      "type": "constructor"
    },
    {
      "anonymous": false,
      "inputs": [
        {
          "indexed": true,
          "internalType": "address",
          "name": "user",
          "type": "address"
        },
        {
          "indexed": false,
          "internalType": "enum UserAccessControl.UserRole",
          "name": "role",
          "type": "uint8"
        }
      ],
      "name": "UserRegistered",
      "type": "event"
    },
    {
      "inputs": [],
      "name": "admin",
      "outputs": [
        {
          "internalType": "address",
          "name": "",
          "type": "address"
        }
      ],
      "stateMutability": "view",
      "type": "function",
      "constant": true
    },
    {
      "inputs": [
        {
          "internalType": "address",
          "name": "",
          "type": "address"
        }
      ],
      "name": "users",
      "outputs": [
        {
          "internalType": "enum UserAccessControl.UserRole",
          "name": "role",
          "type": "uint8"
        },
        {
          "internalType": "bool",
          "name": "isRegistered",
          "type": "bool"
        }
      ],
      "stateMutability": "view",
      "type": "function",
      "constant": true
    },
    {
      "inputs": [
        {
          "internalType": "address",
          "name": "user",
          "type": "address"
        },
        {
          "internalType": "enum UserAccessControl.UserRole",
          "name": "role",
          "type": "uint8"
        }
      ],
      "name": "registerUser",
      "outputs": [],
      "stateMutability": "nonpayable",
      "type": "function"
    },
    {
      "inputs": [
        {
          "internalType": "address",
          "name": "user",
          "type": "address"
        },
        {
          "internalType": "enum UserAccessControl.UserRole",
          "name": "role",
          "type": "uint8"
        }
      ],
      "name": "setUser",
      "outputs": [],
      "stateMutability": "nonpayable",
      "type": "function"
    },
    {
      "inputs": [
        {
          "internalType": "address",
          "name": "user",
          "type": "address"
        },
        {
          "internalType": "enum UserAccessControl.UserRole",
          "name": "role",
          "type": "uint8"
        }
      ],
      "name": "register",
      "outputs": [],
      "stateMutability": "nonpayable",
      "type": "function"
    },
    {
      "inputs": [
        {
          "internalType": "address",
          "name": "user",
          "type": "address"
        }
      ],
      "name": "getUserRole",
      "outputs": [
        {
          "internalType": "enum UserAccessControl.UserRole",
          "name": "",
          "type": "uint8"
        }
      ],
      "stateMutability": "view",
      "type": "function",
      "constant": true
    }
  ],
  "bytecode": "0x608060405234801561001057600080fd5b5033600160006101000a81548173ffffffffffffffffffffffffffffffffffffffff021916908373ffffffffffffffffffffffffffffffffffffffff160217905550610bdf806100616000396000f3fe608060405234801561001057600080fd5b50600436106100625760003560e01c806307e4959814610067578063278208511461008357806351d031ee146100b35780639e9fa097146100cf578063a87430ba146100eb578063f851a4401461011c575b600080fd5b610081600480360381019061007c9190610883565b61013a565b005b61009d6004803603810190610098919061085a565b610322565b6040516100aa9190610a07565b60405180910390f35b6100cd60048036038101906100c89190610883565b610408565b005b6100e960048036038101906100e49190610883565b6105a2565b005b6101056004803603810190610100919061085a565b6107cc565b604051610113929190610a22565b60405180910390f35b61012461080a565b60405161013191906109ec565b60405180910390f35b6000808373ffffffffffffffffffffffffffffffffffffffff1673ffffffffffffffffffffffffffffffffffffffff16815260200190815260200160002060000160019054906101000a900460ff16156101c9576040517f08c379a00000000000000000000000000000000000000000000000000000000081526004016101c090610a6b565b60405180910390fd5b604051806040016040528082600281111561020d577f4e487b7100000000000000000000000000000000000000000000000000000000600052602160045260246000fd5b8152602001600115158152506000808473ffffffffffffffffffffffffffffffffffffffff1673ffffffffffffffffffffffffffffffffffffffff16815260200190815260200160002060008201518160000160006101000a81548160ff021916908360028111156102a8577f4e487b7100000000000000000000000000000000000000000000000000000000600052602160045260246000fd5b021790555060208201518160000160016101000a81548160ff0219169083151502179055509050508173ffffffffffffffffffffffffffffffffffffffff167f8e18574f8a7333e6a87112742a55853a643e2f0550f4e1a3a2c3f1bb2994441d826040516103169190610a07565b60405180910390a25050565b60008060008373ffffffffffffffffffffffffffffffffffffffff1673ffffffffffffffffffffffffffffffffffffffff16815260200190815260200160002060000160019054906101000a900460ff166103b2576040517f08c379a00000000000000000000000000000000000000000000000000000000081526004016103a990610a8b565b60405180910390fd5b6000808373ffffffffffffffffffffffffffffffffffffffff1673ffffffffffffffffffffffffffffffffffffffff16815260200190815260200160002060000160009054906101000a900460ff169050919050565b6000808373ffffffffffffffffffffffffffffffffffffffff1673ffffffffffffffffffffffffffffffffffffffff16815260200190815260200160002060000160019054906101000a900460ff1615610497576040517f08c379a000000000000000000000000000000000000000000000000000000000815260040161048e90610a4b565b60405180910390fd5b60405180604001604052808260028111156104db577f4e487b7100000000000000000000000000000000000000000000000000000000600052602160045260246000fd5b8152602001600115158152506000808473ffffffffffffffffffffffffffffffffffffffff1673ffffffffffffffffffffffffffffffffffffffff16815260200190815260200160002060008201518160000160006101000a81548160ff02191690836002811115610576577f4e487b7100000000000000000000000000000000000000000000000000000000600052602160045260246000fd5b021790555060208201518160000160016101000a81548160ff0219169083151502179055509050505050565b600160009054906101000a900473ffffffffffffffffffffffffffffffffffffffff1673ffffffffffffffffffffffffffffffffffffffff163373ffffffffffffffffffffffffffffffffffffffff1614610632576040517f08c379a000000000000000000000000000000000000000000000000000000000815260040161062990610aab565b60405180910390fd5b6000808373ffffffffffffffffffffffffffffffffffffffff1673ffffffffffffffffffffffffffffffffffffffff16815260200190815260200160002060000160019054906101000a900460ff16156106c1576040517f08c379a00000000000000000000000000000000000000000000000000000000081526004016106b890610a4b565b60405180910390fd5b6040518060400160405280826002811115610705577f4e487b7100000000000000000000000000000000000000000000000000000000600052602160045260246000fd5b8152602001600115158152506000808473ffffffffffffffffffffffffffffffffffffffff1673ffffffffffffffffffffffffffffffffffffffff16815260200190815260200160002060008201518160000160006101000a81548160ff021916908360028111156107a0577f4e487b7100000000000000000000000000000000000000000000000000000000600052602160045260246000fd5b021790555060208201518160000160016101000a81548160ff0219169083151502179055509050505050565b60006020528060005260406000206000915090508060000160009054906101000a900460ff16908060000160019054906101000a900460ff16905082565b600160009054906101000a900473ffffffffffffffffffffffffffffffffffffffff1681565b60008135905061083f81610b82565b92915050565b60008135905061085481610b99565b92915050565b60006020828403121561086c57600080fd5b600061087a84828501610830565b91505092915050565b6000806040838503121561089657600080fd5b60006108a485828601610830565b92505060206108b585828601610845565b9150509250929050565b6108c881610adc565b82525050565b6108d781610aee565b82525050565b6108e681610b2d565b82525050565b60006108f9601783610acb565b91507f5573657220616c726561647920726567697374657265640000000000000000006000830152602082019050919050565b6000610939601883610acb565b91507f5573657220616c726561647920726567697374657265642e00000000000000006000830152602082019050919050565b6000610979601483610acb565b91507f55736572206e6f7420726567697374657265642e0000000000000000000000006000830152602082019050919050565b60006109b9600e83610acb565b91507f4e6f7420617574686f72697a65640000000000000000000000000000000000006000830152602082019050919050565b6000602082019050610a0160008301846108bf565b92915050565b6000602082019050610a1c60008301846108dd565b92915050565b6000604082019050610a3760008301856108dd565b610a4460208301846108ce565b9392505050565b60006020820190508181036000830152610a64816108ec565b9050919050565b60006020820190508181036000830152610a848161092c565b9050919050565b60006020820190508181036000830152610aa48161096c565b9050919050565b60006020820190508181036000830152610ac4816109ac565b9050919050565b600082825260208201905092915050565b6000610ae782610b0d565b9050919050565b60008115159050919050565b6000819050610b0882610b6e565b919050565b600073ffffffffffffffffffffffffffffffffffffffff82169050919050565b6000610b3882610afa565b9050919050565b7f4e487b7100000000000000000000000000000000000000000000000000000000600052602160045260246000fd5b60038110610b7f57610b7e610b3f565b5b50565b610b8b81610adc565b8114610b9657600080fd5b50565b60038110610ba657600080fd5b5056fea26469706673582212204d90cc1f6e6f3463f39ea65a5231091c8bf69d2c5f2edad7c659abfd32e9e4d064736f6c63430008000033",
  "immutableReferences": {},
  "source": "// SPDX-License-Identifier: MIT\npragma solidity ^0.8.0;\n\ncontract UserAccessControl {\n    enum UserRole {\n        Donor,\n        Beneficiary,\n        NGO\n    }\n\n    struct User {\n        UserRole role;\n        bool isRegistered;\n    }\n\n    mapping(address => User) public users;\n    address public admin;\n\n    event UserRegistered(address indexed user, UserRole role);\n\n    constructor() {\n        admin = msg.sender;\n    }\n\n    modifier onlyAdmin() {\n        require(msg.sender == admin, \"Not authorized\");\n        _;\n    }\n\n    function registerUser(address user, UserRole role) public onlyAdmin {\n        require(!users[user].isRegistered, \"User already registered\");\n        users[user] = User(role, true);\n    }\n\n    function setUser(address user, UserRole role) public {\n        require(!users[user].isRegistered, \"User already registered\");\n        users[user] = User(role, true);\n    }\n\n    function register(address user, UserRole role) public {\n        // \n        require(!users[user].isRegistered, \"User already registered.\");\n\n        // \n        users[user] = User(role, true);\n\n        // \n        emit UserRegistered(user, role);\n    }\n\n    // \n    function getUserRole(address user) public view returns (UserRole) {\n        require(users[user].isRegistered, \"User not registered.\");\n        return users[user].role;\n    }\n}\n",
  "sourcePath": "/Users/visshal/Final_Blockchain_Project/DAPP/DApp/contracts/UserAccessControl.sol",
  "compiler": {
    "name": "solc",
    "version": "0.8.0+commit.c7dfd78e.Emscripten.clang"
  },
  "schemaVersion": "3.4.16",
  "updatedAt": "2023-12-02T10:28:49.533Z",
  "networkType": "ethereum",
  "devdoc": {
    "kind": "dev",
    "methods": {},
    "version": 1
  },
  "userdoc": {
    "kind": "user",
    "methods": {},
    "version": 1
  }
}